:1000000040420020394700006DF9010025470000FB
:10001000254700002547000025470000000000009C
:10002000000000000000000000000000FD4700008C
:1000300025470000000000009D4700002547000004
:10004000C9490000A5690100C9490000C94900006B
:10005000C9490000C9490000C9490000C949000058
:10006000C9490000C9490000C9490000C949000048
:10007000C9490000C9490000C9490000C949000038
:10008000C9490000C9490000C9490000C949000028
:10009000C9490000C9490000C9490000C949000018
:1000A000C9490000C9490000C9490000C949000008
:1000B000C9490000C9490000C9490000C9490000F8
:1000C000C9490000C9490000C9490000C9490000E8
:0C00D000C9490000C9490000C9490000EE
:1000E00053B94AB9002908BF00281CBF4FF0FF319F
:1000F0004FF0FF3000F00CB8ADF1080C6DE904CE04
:1001000000F018F8DDF804E0DDE9022304B07047E0
:10011000704700BF034611F8012B03F8012B002A9A
:10012000F9D17047034613F8012B002AFBD1181AA6
:10013000013870472DE9F04786468C460846089EF0
:10014000154674461946002B40F0C2808542B2FA2B
:1001500082F245D94AB1C2F1200300FA02FC2EFA1C
:1001600003F3954043EA0C0C94404FEA154EA8B2B5
:10017000BCFBFEF8230C0EFB18CC08FB00F943EA8D
:100180000C43994528D9EB1808F1FF3704D299455B
:1001900002D9A8F102072B44A3EB0903A4B2B3FBD5
:1001A000FEFC0EFB1C330CFB00F044EA0344A042AF
:1001B00014D92C190CF1FF3304D2A04202D9ACF1AE
:1001C00002032C44241A43EA07401EB1D440002302
:1001D00034607360BDE8F0874746DDE76346F1E7CA
:1001E00092BB431B01214FEA154EAFB2B3FBFEFC9D
:1001F000200C0EFB1C330CFB07F840EA0343984528
:1002000062D9EB180CF1FF3004D2984502D9ACF159
:1002100002002B44A3EB0803A4B2B3FBFEFC0EFBCD
:100220001C330CFB07F744EA0344A7424ED92C19B0
:100230000CF1FF3304D2A74202D9ACF102032C44E3
:10024000E41B43EA0040C0E7C2F1200320FA03F1B7
:10025000954090402EFA03F303434FEA154EAFB298
:10026000B1FBFEFC0EFB1C10190C0CFB07F841EA5D
:100270000041884504FA02F422D969180CF1FF30D4
:1002800004D2884502D9ACF102002944A1EB08014F
:100290009BB2B1FBFEFC0EFB1C110CFB07F743EA03
:1002A00001439F420ED9EB180CF1FF3104D29F425B
:1002B00002D9ACF102012B44DB1B41EA004192E779
:1002C0006046E3E76146F7E76046A3E76346B7E7C2
:1002D000834206D916B9002108467BE7C6E900E04B
:1002E000F9E7B3FA83F78FB9834201D3724508D88F
:1002F000BEEB020460EB030301209C461EB9002103
:1003000068E73846FAE7C6E9004CF8E7C7F1200C81
:10031000BB4022FA0CF41C432EFA0CF120FA0CF329
:10032000B84001434FEA14490EFA07F5B3FBF9F858
:100330001FFA84FE09FB18300B0C08FB0EFA43EA87
:1003400000439A4502FA07F240D9E31808F1FF305A
:1003500004D29A4502D9A8F102002344A3EB0A0370
:1003600089B2B3FBF9F809FB183308FB0EFE41EA2A
:1003700003418E452CD9611808F1FF3304D28E4514
:1003800002D9A8F10203214443EA0040A0FB0298ED
:10039000A1EB0E014145CE46434602D306D14D4561
:1003A00004D2B9EB020E68EB04030138002EA6D08C
:1003B000B5EB0E0261EB030101FA0CFC22FA07F324
:1003C0004CEA0303F940C6E9003198E74046C5E727
:1003D0004346D9E7000000002DE9F843D0E907388B
:1003E000856903EB08042F34A5420F46164619D839
:1003F000DFF86C80A3FB080117A3D3E90023FFF704
:100400006FFE0346601BA0FB080123F07F4412A38C
:10041000D3E90023FFF764FE20F07F403C603060AA
:10042000BDE8F883DFF838900BA3D3E90023A5FBE0
:100430000901FFF755FE20F07F440A480A2106A370
:10044000D3E90023E8FB0901FFF74AFE20F07F40D3
:100450003C603060BDE8F8838D49FD1A070000005C
:1004600000CA9A3B00166BF1002800F030812DE99C
:10047000F04FC34C94F85E30DA078DB000F1618123
:10048000627F94F8293004EB820204EB8303166A3E
:10049000DF6A0EB3354615F8020BC0F380100CF07E
:1004A00085FC0368C6F802308388AB8033785B062E
:1004B00006D5062128460AF0A5FE002800F0438153
:1004C0003D4615F8020BC0F380100CF06FFC03687A
:1004D000C7F802308388AB80337813F00E0F40F0FA
:1004E0008E8063691BB10C200DB0BDE8F08F0DF05C
:1004F0001BFB8146002800F033810DF021FB824672
:10050000002800F02A8110F0D1FA0546002800F0FA
:100510002981C06E4FF6FF73AB8405F1100B0028E4
:1005200000F0178105F1600205F15C010AF076FE2A
:10053000B5F8583023F4EF6323F0070343F48C73CA
:1005400043F00103A5F8583095F8373003F03F0326
:1005500063F07F0385F8373095F8723023F0070396
:1005600085F8723095F83C3023F00F034FF0000807
:1005700085F83C304FF4C023C5F870312846C5E9F2
:100580001288C5F86C80A5F8708085F83980A5F8C8
:100590002A80C5F82E80C5F85080A5F87681A5F888
:1005A0006C8112F017FD85F83881C5F83C9110F088
:1005B00007FD95F87C3160F3020385F87C3110F07B
:1005C00005FD95F87C3160F3C50385F87C3195F81D
:1005D000683168F3410385F8683105F1B80012F01D
:1005E000BBFAC4E9159AC4F814B0C5E9028885F8C5
:1005F00000802D6116F0F4FF002840F0A680237ED5
:100600000121C3F342030DF12B008DF82B300AF0CA
:10061000A1FF024600285CD0797830460FF066FCD6
:100620005849594BB4F85C70A0FB0101C0184FF059
:10063000000551A3D3E9002341F10701C4E90255A4
:100640002570FFF74DFD60600CF06EFB00F10908AE
:100650003FB9357805F00F05A5F10105B5FA85F527
:100660006D09207E636865F3000010F001052076B7
:1006700036D0464A0992002010600225444A454F70
:1006800004930BAE019305920321CDE90200069479
:1006900043460090089607972A460B950CF0E2F91E
:1006A00031460DF0D5FAA0B93B4905914AF2D8334D
:1006B0000093CDE90300CDE9010007970896069461
:1006C0004346012203210B950CF098F92EE00FF020
:1006D00061BB6369002B3FF406AF0FF017FB02E725
:1006E0002A4A2E48049303F2471306940295912157
:1006F0001360A7FB000301FB0731264B0793244B34
:1007000005934FF6FF730992022703930BAE1AA3CA
:10071000D3E900230B970896FFF7E2FC4346CDE9A7
:1007200000503A46284603210CF09CF931460DF062
:100730008FFA0028CDD194F85E3043F0010384F89D
:100740005E300020D0E61220CEE60FF0DFFA032064
:10075000CAE605F16400E866E4E648460DF0EAF909
:100760000720C1E650460DF0F1F948460DF0E2F9D8
:10077000F6E700BFAFF300808D49FD1A07000000C7
:100780005C1B002000CA9A3B8C49FD1A501B0020BC
:1007900069FF0000C5CE000071FA0000002AE7845E
:1007A00070B5037E8AB0C3F342030D4604460121AF
:1007B0000DF1230016468DF823300AF0CBFE717838
:1007C000024628460FF092FB1F49204AA0FB013148
:1007D000981841F107011AA3D3E90023FFF780FC21
:1007E00063689842054621D21B1A00220192184ADA
:1007F0000293184BA21AA3FB023202219209002392
:100800000A4409AE099114490591CDE90333032146
:10081000D2B20696009318460CF084F931460DF0DA
:1008200017FA38B9656000200AB070BDFBD9C21A4A
:100830000023DBE70C200AB070BD00BFAFF30080DF
:100840008D49FD1A0700000000CA9A3B8C49FD1A29
:100850005C1B0020ABAAAAAAC5CE000000000000C5
:1008600038B5194C9DF810E094F838C01CF001051B
:1008700023D163F3420C400194F82630E1854FEA1E
:10088000CE0E0EF0180E00F0200040EA0E0023F00D
:10089000380303430D4884F826309121A2FB00035E
:1008A00084F838C001FB023105A3D3E90023FFF728
:1008B00017FCC4E90C00284638BD0C25284638BD75
:1008C0008D49FD1A07000000480A0020002AE7842D
:1008D00010B504469DF80800E2834FEA411CC000B1
:1008E000A17D00F018000CF0200C4CEA000C0C4824
:1008F00021F038014CEA010CA3FB0002912184F89D
:1009000016C001FB032104A3D3E90023FFF7E8FB92
:10091000206210BDAFF300808D49FD1A0700000072
:10092000002AE784000000002DE9F047044600F1AA
:10093000280190F8380094F82630514DDFF84491A2
:10094000C0F3400060F386138CB084F826300CF0BE
:100950003DFA94F82620E38D4B48246102F0790299
:10096000002784F826209121A3FB0002C4E9027726
:10097000277001FB032140A3D3E90023FFF7B0FB5D
:10098000424A636B2363651BA2FB05250933C5F34C
:100990004715984205EB45028FBF636003466060D0
:1009A000276349F8223006460CF0BEF9636900F16E
:1009B00009074FEA450A002B44D00DF12C08AA4440
:1009C00009EB8A030993CDF820800694E38D2E4825
:1009D0004FF00009A3FB0002CDF80C90912101FB20
:1009E0000321636804932A4B07932A4B0593022340
:1009F0000B9321A3D3E90023FFF772FB104619469E
:100A00004FF47A720023FFF76BFB0435EDB2CDE9AA
:100A1000016003213B462A46CDF8009048460CF081
:100A200021F841460DF014F940B994F8383043F0FC
:100A3000010384F838300CB0BDE8F0870C200CB00E
:100A4000BDE8F0870DF12C08CDE90A336168434613
:100A50000AAA032001F068F90028B0D10B990E48CA
:100A600005A3D3E90023A1FB0001FFF739FB0A9B93
:100A700020F07F471F44A2E78D49FD1A07000000C0
:100A8000480A0020D41B0020002AE784898888882F
:100A9000C5CE0000D904010000CA9A3B0000000046
:100AA0002DE9F04F05468BB08B4601200221994677
:100AB000144618F097FF00220221824601200AF016
:100AC000FDFB3F494FF4C07228460AF087FB461DE4
:100AD0003C4B0093F6B201954B4632460121002073
:100AE0000CF07AF810F0FD0F0ED0374A374938482D
:100AF00040F6B4031EF0EAFC002383F31188BFF331
:100B00006F8F0323184602DF324BA4FB03482046B5
:100B100029A3D3E900234146FFF7E2FA2E4B20F048
:100B20007F47A7FB03310722E01A02FB071168EB9E
:100B300001014FF47A720023FFF7D2FACDE9017078
:100B4000CDF800B008950695696895F937402348B7
:100B50000491234931EA240128BF01460591214C23
:100B600007944FF6FE7103914B4632460121002057
:100B70000BF044FF10F0FD0F0ED0134A1349144838
:100B800040F6C9031EF0A2FC002383F31188BFF3D3
:100B90006F8F0323184602DFBAF1000F02D10BB0AA
:100BA000BDE8F08F0122022110460BB0BDE8F04FE6
:100BB0000AF084BBAFF300808D49FD1A07000000E6
:100BC000880A0020DD090100903502005436020039
:100BD000242E020000CA9A3B8D49FD1A25630100AC
:100BE000D96401007D0901002DE9F0418468A28CDF
:100BF0004FF6FF739A428CB044D00546204612F05F
:100C0000D9FC2B7D012B00F03981022B00F02C81C7
:100C1000002B00F00B8194F83861002E40F0278102
:100C20002B8AE78D94F93720CDE90A666BB3002A49
:100C3000C0F271810023A4F87231AB7CA28D03F065
:100C40000303551C012BADB23AD0B4F87631002B1A
:100C500000F01D81AB4240F271815B1B9BB2002210
:100C6000062BA4F87631E28540F20E8194F93730F4
:100C70009342C0F26881002325E09DF827102046AA
:100C800010F082FA0CB0BDE8F081002AB8BF84F8F9
:100C90005D61AB7CA28D03F00303551C012BADB24B
:100CA0000ED0B4F87231002BCFD0AB4240F2558158
:100CB0005B1BA4F87231B4F87631002BCAD102E084
:100CC0000023A4F8763194F83C2063F3820284F880
:100CD0003C2029460DF12702204612F0B7F9743066
:100CE000CBD0B4F870312BB1AB4240F205815B1B25
:100CF000A4F87031B4F86C312BB1AB4240F2F38000
:100D00005B1BA4F86C31E58D16B9AF4200F0E280B0
:100D10000135ADB294F8B53013F0010731D1DDE9FA
:100D20000A130A46002B40F0E580002900F0D48029
:100D30001F461846A28C24690694CDE90356053255
:100D4000A54D0290CDE90017D2B2012100200595F2
:100D50000BF0E8FE10F0FD0F94D00CF0A3FF8442DE
:100D600090D09E4A9E499F4840F282531EF0AEFBAF
:100D7000002383F31188BFF36F8F0323184602DF2C
:100D800080E794F937206FF30003002A84F8B53028
:100D9000C0F2988094F85800C0F3C00100F007003A
:100DA00016F03AFA94F8582094F8593002F00301FA
:100DB0002831C2F34002C900D14003F003022832B7
:100DC000C3F34003D200DA40E38B03F23F13B1F5E3
:100DD000A07F2CBF5B1803F5A073B2F5A07F2CBFDA
:100DE0009B1803F5A07303447F4A80480721E3FB67
:100DF0000021104676A3D3E90023FFF771F9DDE95E
:100E00000A1320F07F4260686260904235BF171A73
:100E1000801A002000270A46002B8BD157EA010CCC
:100E200088D1002858D019461F4683E794F87230BD
:100E300003F01803182B7FF4EEAE218DB4F86E2169
:100E40008B1D9A42C4BF931F5B1AB4F86A11CCBFC2
:100E50009BB21346994200F09C80A4F86A31A4F832
:100E60006C31A4F87021D6E63D2684F8386131460D
:100E700020460CB0BDE8F04110F086B90023A4F87C
:100E80007031A4F86C31C6E6012633461BE7E28CCC
:100E9000052A97BF013240F2E2434FF4FA7392B24F
:100EA00003FB02F2B4F8743142F2107101FB032328
:100EB000013BB3FBF2F39BB2A4F87631002B7FF435
:100EC000C9AE00E794F85900012100F0070016F0C0
:100ED000A5F967E735461DE7002D43D000271146E9
:100EE00038463B4626E70023A4F86C31204612F032
:100EF0004FF908E738461DE70CF068FE0146A0B33D
:100F00000023A4F87031A38CC3801B2303710068F5
:100F10000CF02EFEEEE694F85D316BB3013B84F8E5
:100F20005D3104F1B808404611F058FEB8B34046B0
:100F300011F054FEB8B30023E3857BE60821204678
:100F400010F022F99EE6A7B9D4F860315A0813F0E0
:100F5000010336D1C4F860218DE63E21204610F011
:100F600013F98FE6002EB9D18CE60123A4F8703175
:100F7000C0E613460126A6E60AAA0BA92846FFF7F3
:100F80002BFADDE90A231343CBD0237884F85D31B3
:100F9000C7E7B4F8701100297FF43DAE5FE7FF208A
:100FA00010F0B4F8C3E70246D4E917010AF04EF98D
:100FB0000028C0D194F83C301B0744BF238DE38543
:100FC00038E642F000421E46C4F860213B467AE60D
:100FD0008D49FD1A07000000390901009035020013
:100FE000A0360200242E02008C49FD1A00CA9A3B4A
:100FF0002DE9F04F87B0CDE90432BDF844200378E5
:101000000192BDF84820BDF840B0BDF84C80078E75
:10101000009104460292002B00F01381013FBFB201
:1010200094F85800D4F8F490A7EB08039DB2C0F3ED
:10103000C00100F00700039516F0EEF8E68C052ECF
:1010400040F2068116FB05F6BBF1050FB6B240F281
:10105000E24A40F2088194F8592094F8581002F0BE
:1010600003032833C2F34002DB00D34001F0030244
:101070002832B3F5A47FC1F340014FEAC20222FA3D
:1010800001F238BF4FF4A473B2F5A47F2CBF9B18B4
:1010900003F5A47303F2D5131844834A834B072145
:1010A000E0FB023118464FF09613E3619623238448
:1010B0007BA3D3E90023FFF713F85D4620F07F40C0
:1010C00040F2E2430AFB06F103FB05F54B1E2B44FD
:1010D000B3FBF5F31FFA83FA05FB0AF3994260604C
:1010E000564680F0A0807048591AA1FB00016CA3FD
:1010F000D3E90023FEF7F4FF20F07F408144638DA5
:10110000B4F8FC201344984494F83730A8EB07084F
:101110004644DB09668500F0B280236C0399624F78
:1011200003FB01F102FB03320B46A16C0A44616C24
:101130008A4294BFC3EB0203C3EB0103A36416F01E
:10114000A1FA064694F85C01C0F3420016F09CFA3E
:10115000064405FB06F6564B06F5742606F23F26B6
:10116000A3FB0636B60CA36C26640AFB06F06A08DD
:101170000344963A934228BF1346C4E91123059BC2
:1011800040F2E24808FB03F323650023A0FB0701BC
:10119000C4F8643142A3D3E90023FEF7A1FF049B06
:1011A000A9EB00094348A0FB0330800A08FB00F0CC
:1011B000A0FB07013AA3D3E90023FEF791FFAE1B82
:1011C00020F07F47019B2385029BA4F874312946B8
:1011D0002046A4F826B011F075FF374B218D2B4423
:1011E000881DB3FBF5F39AB29042A4F86E2104D2A5
:1011F000C1F57F41FA310A4492B2009BA4F86A21FA
:1012000013B10023A4F876314B46324639462046C6
:10121000FFF746FC94F8683143F0010384F8683125
:1012200007B0BDE8F08F2048C91AA1FB00011CA33C
:10123000D3E90023FEF754FF20F07F40A9EB00091B
:101240005DE7438D1F44B0F8FC301F44BFB2E7E6B2
:10125000039B013616FB03F6BBF1050FB6B24FF444
:10126000FA7A3FF6F8AE4FF096130BF10105E36101
:1012700096232384ADB20A204FF4FA7322E7049B2D
:101280000948A3FB000106A3D3E90023FEF728FFCA
:1012900020F07F472E46013794E700BFAFF3008070
:1012A0008D49FD1A0700000000CA9A3B8C49FD1ABF
:1012B00083DE1B435917B7D17FC3C901000000006B
:1012C0002DE9F04F134615460A6853F8087BD2F80B
:1012D00000A0B0F82EC00246044652F82EBBD0F84B
:1012E0001E0094F81C900E469178628CA5F808C0F8
:1012F0009970D4F82A306B6091B0D4F83A30C5F8C0
:101300002230ADF83C2094F83E2085F826200E903F
:1013100010AA12E9030005F122030C90ADF8341075
:10132000184605210AF016F995F8273000F03F001D
:1013300060F3050385F8273094F83F30C3F30402C7
:1013400085F82820A28EEA820128C9F380190DD9D8
:1013500003F01F031B3303F01F030B2B06D892B2BD
:10136000063A92B240F67A439A4217D90022CAF856
:10137000082095F82C3062F3000385F82C30012604
:10138000E5682671584621460CF0E6FB28682E7168
:10139000294611B0BDE8F04F0CF0EABB33680021DC
:1013A0005960E38EB5F816802B8340F2E24303FBCD
:1013B00008F83846638E0B9311F098FE94F83F209E
:1013C00097F85C11520962F3430187F85C1116F03B
:1013D00059F90A9097F85C01C0F3420016F054F9ED
:1013E0000A9A104408FB00F0B74A00F5742000F296
:1013F0003F20A2FB00204FEA5802800C963A286357
:101400006A6394F8312040F2E24302FB03F36B6419
:10141000238FA7F874314146384611F053FEAB4B89
:10142000AB4AC7F878214344B3FBF8F39AB2A7F864
:101430006E21298B881D824204DDC1F57F41FA317E
:101440000A4492B2A7F86A216B68C7F86031234654
:1014500013F81C2FC2F340120A92DA0700F10C8134
:10146000BDF83430A4F823300C9884F81E904FF463
:101470008073C4F81F00A383EB8AE3842B8B23853E
:10148000B7F87431638597F85C31C3F3420384F88D
:101490002C3038460FF016FBA882E08021465846D3
:1014A00074680CF059FBAB8AE3801C2323710A9B00
:1014B000D4F80090002B40F0D3800A9B237721467C
:1014C00048460CF055FB95F8499095F848B009F05E
:1014D00007090BF0070B0121484615F09FFE0BF0A2
:1014E00003032833CBF3400B09F00302DB0023FA9C
:1014F0000BF32832B3F5A47FC9F340094FEAC202C7
:1015000038BF4FF4A47322FA09F2B2F5A47F2CBFBE
:101510009B1803F5A47303F2D5130344DFF8B491C9
:1015200004466D480721E3FB09014FF09613C5E916
:10153000033363A3D3E90023FEF7D2FD20F07F40FD
:101540007860F3680B982A6B40F2E24101FB0031AE
:1015500001F2B341891A0C1B01200221A8EB0208F9
:10156000002209F0ABFE50460EF0B8FE0246A4FB86
:101570000901144652A3D3E90023FEF7B1FDCDF8CB
:1015800004A0B3685549009120F07F4BA21C3A3B60
:10159000D2B25B44012100200BF01EFB01287AD05F
:1015A0009AF81830DB0753D438460FF08BFA494BC2
:1015B000A8FB0389044642A3D3E9002340464946D9
:1015C000FEF78EFD464BB668464A079220F07F45EF
:1015D000A5FB0331B8EB0300434B05934FF4F873BD
:1015E000069708937B684FF0000ACDE903A34FF0FC
:1015F000070303FB051169EB01014FF47A72002325
:10160000FEF76EFD05343A3EE4B2CDE90150CDF867
:1016100000B033462246012150460BF0EFF910F09E
:10162000FD0F0DD0314A3249324840F2F1131DF01E
:101630004DFF8AF31188BFF36F8F0323184602DF33
:1016400001220221104611B0BDE8F04F09F036BE6C
:10165000002301220093184611460BF07BFAA3E702
:1016600095F8273043F0400385F82730281D15F002
:1016700023F90123288521E71C4A1F491D48FD2322
:101680001DF024FF002383F31188BFF36F8F032322
:10169000184602DFE4E60CF005FB824580D0134AD1
:1016A000164914484FF426731DF010FF002383F3EE
:1016B0001188BFF36F8F0323184602DF70E700BF66
:1016C0008D49FD1A0700000083DE1B437FC3C9015B
:1016D000404B4C0000CA9A3B8C49FD1AE562010060
:1016E0008D49FD1AB162010025630100683B0200CB
:1016F00054360200242E020078320200C43B02005D
:101700002DE9F04F8BB09A46BDF858300593CDE9DE
:101710000301BDF85C309DF85470BDF860800693FD
:10172000002093460EF0C4FF002800F01E8107F051
:101730000105044628460BF039FB002D4CD1D4F8A6
:10174000149004F110030793B9F1000F4BD06669B0
:10175000356896F84800C0F3C00100F0070015F0A6
:101760005BFDF389B64A00F2CF300344B548072148
:10177000E3FB00211046B0A3D3E90023FEF7B0FC41
:1017800020F07F40686094F8381067F3420184F8D5
:10179000381094F827106AF30001DDE9032384F878
:1017A000271014990968A16114998988A183A4F864
:1017B000248004F11000CDF800B00021FFF788F874
:1017C000606315F00DFF002840F0D3802046FFF73E
:1017D000ABF80BB0BDE8F08F062109F013FD00282F
:1017E000ADD11220F5E70CF09FF90790002800F02A
:1017F000FD800FF05BF90546002800F0F4801430FE
:1018000009F0BCFE05F11006002840F0DE8003213F
:1018100005F1180015F0BEFB069B2B85E86E059BB5
:10182000EB844FF6FF73AB84002800F0E18005F1F4
:10183000600205F15C0109F0F1FCB5F8583023F4C1
:10184000EF6323F0070343F48C7343F00103A5F81F
:10185000583095F872304FF0000923F0070385F8EF
:101860007230C5F86C90A5F87090A5F82A90C5F86C
:101870002E9005F1320014F0C9FF95F8373060F36F
:101880000503012185F837300DF1270015F082FBA3
:101890009DF827206C4B85F83990A3FB0213DB08D9
:1018A00003EB4303A2EB830295F83730298DA5F8AB
:1018B000769103F03F0385F8373095F83C30A5F872
:1018C0006C91053223F0070385F83820059A85F8D6
:1018D0003C3040F2E2495D4BA5F8748109FB02F906
:1018E0004FF4C0224B44C5F87021881DB3FBF9F3B7
:1018F0009AB28242A5F86E2102DD063A521A92B2DD
:10190000A5F86A21284611F065FB4946284611F0E2
:10191000D9FB4FF00009079BC5F83C3185F8389199
:101920000FF04EFB95F87C3160F3020385F87C31B3
:101930000FF04CFB95F87C3160F3C50385F87C31E2
:1019400095F8683169F3410385F8683105F1B8000D
:1019500011F002F94FF09613C5E907336661C5E946
:10196000029985F800902D61F3E60C200BB0BDE8DC
:10197000F08F6569EB6D73B1354A3649364840F2F0
:1019800021431DF0A3FD002383F31188BFF36F8F64
:101990000323184602DF05F1500105F14C0009F060
:1019A00041FC0646002836D02F68EE65D7F83C513A
:1019B00015B328460CF0BEF838460FF07DF800232A
:1019C000032063610BB0BDE8F08F214A2349224810
:1019D000C1231DF07BFD89F31188BFF36F8F0323B3
:1019E000184602DF13E707980CF0A4F80720F0E68A
:1019F00005F16400E8661AE7154A1949164840F2ED
:101A00002A431DF063FD85F31188BFF36F8F032315
:101A1000184602DFCDE70E4A11490F4840F2234332
:101A20001DF054FD86F31188BFF36F8F0323184612
:101A300002DFB9E7AFF300808D49FD1A070000000F
:101A40008C49FD1A00CA9A3BABAAAAAA7FC3C90156
:101A5000F43B02006C340200242E0200DC2E020053
:101A6000E0350200000000002DE9F04F04468DB083
:101A7000067F238D406AADF82C30E307C6F3C0170C
:101A800088461546C6F340160A9000F1DF80A77716
:101A9000BDF82C300A98A4F823300027A783C4F897
:101AA0001F00D8F80030D3F800A0EB8AE3842B8B1A
:101AB0002385BAF82430638515F0E2FD84F82C0004
:101AC000D5F8009048460EF0FDFF3946A882E08028
:101AD000484611F00BFBD8F80470206821460CF042
:101AE0003BF8AB8AFB801C233C683B71002E40F026
:101AF000BD803E77394620460CF03AF895F848000C
:101B0000B5F816B0D8F80C70614C40F2E243C0F35F
:101B1000C00100F0070003FB0BFB15F07DFB00226A
:101B200002213F1A012009F0C9FB50460EF098FD32
:101B3000A7FB044754A3D3E90023054639462046B2
:101B4000FEF7CEFACDF804A0D8F80830514900913C
:101B500020F07F462A1D3A3BD2B2334401210020B7
:101B60000BF03AF810F0FD0F0ED04B4A4B494C48A1
:101B700040F241331DF0AAFC002383F31188BFF328
:101B80006F8F0323184602DF4FF0000A53460322EB
:101B90000121CDF800A050460AF0DCFF48460EF0C7
:101BA00091FF05463A4838A3D3E90023ABFB000177
:101BB000FEF796FA19463B4BD8F8088008933A4B43
:101BC000069340F27133CDF81C900993D9F8043094
:101BD0008346CDE904A3104600234FF47A72FEF742
:101BE0007FFA324B0722A6FB0331CDE902B002FB9C
:101BF0000611E01A67EB01014FF47A720023FEF739
:101C00006FFA0535A8F13A08EDB2CDE90060434618
:101C10002A46012150460AF00DFF10F0FD0F0DD0AD
:101C20001D4A1E491E4840F272331DF04FFC8AF3D4
:101C30001188BFF36F8F0323184602DF01220221B0
:101C400010460DB0BDE8F04F09F038BB124A1849F4
:101C5000134840F2BD231DF039FC002383F31188A3
:101C6000BFF36F8F0323184602DF10E795F8273084
:101C700043F0400385F82730281D14F01DFE01268F
:101C8000288536E7AFF300808D49FD1A0700000074
:101C900000CA9A3BA1640100F43B020054360200E2
:101CA000242E0200A5640100D96401008D49FD1AAB
:101CB0007832020000000000052801D000207047A3
:101CC00070B500200D460EF005FF044638B190F9BE
:101CD0003730002B05DA40682860204670BD0020B0
:101CE00070BD90F858000E4EC0F3C00100F0070020
:101CF00015F092FA0B4A00F265400721E0FB06213D
:101D0000104605A3D3E90023FEF7EAF920F07F404F
:101D1000E2E700BFAFF300808D49FD1A0700000025
:101D200000CA9A3B8C49FD1A2DE9F04F93B0FF276A
:101D30000B930B1D0A930023CDE90E33054616467F
:101D40008DF83770994608933C4698469A460DF1AF
:101D5000400B614B0593614B03930FAB01930EABAB
:101D60000020009302231093CDF818B00490029045
:101D700033460DF1370229460AF072FF022812D0CD
:101D8000109BB3B9FF2C25D03368434522D0002FD8
:101D900050D0013FFF24FFB28DF83740D9E72946E4
:101DA00000200AF0A9FF109B022BF8D0109B002BFB
:101DB000E8D04B4A4B494C4840F2D9131DF086FB02
:101DC000002383F31188BFF36F8F0323184602DFCC
:101DD000FF2CD9D19DF83700FF283AD011A9FFF781
:101DE0006BFF0028B5D09DF83730052B18D0FF2C9D
:101DF000DDF83880119B0AD04946404609930AF025
:101E000095FF0A9B03EB0A029042099B23D89A464E
:101E10000F9B9DF837400893C146D6F8008098E79D
:101E200000200EF057FE0028E1D090F93730002B4B
:101E3000DDDA8EE72D492A4A2B4840F2E1131DF0E6
:101E400045FB87F31188BFF36F8F0323184602DF2A
:101E50009FE7FF2C37D026480721AAFB000301FB90
:101E60000A311BA3D3E90023FEF73AF9044600B177
:101E70003E3408991F4AA1F57423A3F510739342C9
:101E800017D81B480721A9FB000301FB093110A348
:101E9000D3E90023FEF724F9089A174BA3FB02238A
:101EA00004EB93440B9B044400201C6013B0BDE87A
:101EB000F08F01F1E87303F5D43303F5A57309F14D
:101EC000FF390893DDE76FF0090013B0BDE8F08F2C
:101ED00000CA9A3B00000000B1670100B56701002D
:101EE000403C0200843C0200242E02008C3C020094
:101EF0008D49FD1ABFBDF07F83DE1B43000000004B
:101F00002DE9F043C668476873683D491A68D0F800
:101F10000090A7F57423A3F510738B4283B080461D
:101F200007D907F1E87707F5D43709F1FF3907F545
:101F3000A57773685168DD8ACDF8049006F1100327
:101F400001AA0220FFF7F0FE00284ED10199A1EB73
:101F500009031B0237D4084649460AF0E7FE034648
:101F600028480721A3FB000201FB032122A3D3E998
:101F70000023FEF7B5F834690444002C346109DB12
:101F800040F2E24305FB03F3A3422FD2E41AA3423B
:101F9000FCD33461D8F800301A48A3EB0903A3FB43
:101FA0000002072101FB032113A3D3E90023FEF75D
:101FB00097F8154BA3FB0737A0EB974020443061FF
:101FC00003B0BDE8F08348460AF0B0FE03460D4872
:101FD0000721A3FB000201FB032107A3D3E9002390
:101FE000FEF77EF83469241AC7E73469002CD1D192
:101FF00003B0BDE8F08300BF00CA9A3B00000000B8
:10200000BFBDF07F8D49FD1A83DE1B430000000039
:10201000F0B5C468636883B00546002B4FD117F054
:102020009DF8002017F0F0F80021084617F0DEF8C0
:1020300000222521082017F01BF93D4B019301A830
:1020400017F002F93B4940F25B6017F0B7F9237AC9
:10205000C3F3420262F306132372204615F01AFD01
:1020600027682E68384615F07FF806446A6806F13E
:102070000901012017F0E0FA17F0CEFB20460EF020
:1020800039F9811C3246C9B2384615F06FF8054659
:1020900000BB204615F002F810B9002003B0F0BDD7
:1020A000254A2649264840F229431DF00FFA85F3B8
:1020B0001188BFF36F8F0323184602DFEDE793F813
:1020C0002C309B07ABD01F48214617F005F817F0BE
:1020D00021F9E2E7184A1C49194840F211431DF062
:1020E000F5F91A4B0721A5FB030301FB05310EA3EC
:1020F000D3E90023FDF7F4FF1549024615481DF00A
:10210000E5F9002585F31188BFF36F8F0323184687
:1021100002DF1148214616F0DFFF17F0FBF86FF0E1
:102120008B00BBE7AFF3008000CA9A3B00000000C1
:10213000D6BE898E55555500543E02000C30020023
:10214000242E0200F5720100002F02008D49FD1AB5
:10215000043F0200D83E0200957601000000000016
:102160002DE9F041C46894F91630002B8CB0C0F210
:10217000DA80636805460E46002B40F0C980A37DD7
:102180006FF30003A37516F0E9FF002017F03CF889
:102190000021084617F02AF800222521082017F010
:1021A00067F801200BF032FE0746002800F0A180FE
:1021B00007F11C0017F086F8754B0B930BA817F06E
:1021C00043F8744940F25B6017F0F8F8A07DC0F363
:1021D0004100253014F0DCFF6F48214616F07CFFEB
:1021E000A37D9B0602D46368002B7FD0962017F056
:1021F00017FA00231A461946184617F049F9D4F879
:1022000000802F68404614F0AFFF07446A6807F16A
:102210000901002017F010FA17F0FEFA17F0A8F9DC
:1022200020460EF029FA011DC9B240463A4614F084
:102230009DFF804600287DD116B9236A002B31D13D
:1022400063683BB1554B0122022100209D6009F0DB
:1022500069F8B8B9204614F021FF18B900200CB075
:10226000BDE8F0814E4A4F494F4840F20B231DF024
:102270002DF9002383F31188BFF36F8F03231846D2
:1022800002DFEBE7464A4949474840F206231DF082
:102290001DF9002383F31188BFF36F8F03231846C2
:1022A00002DFD7E7424A0792424A059240F2F31210
:1022B00000930892CDE90366CDE9016606943B469A
:1022C000032231460AF09AFB10F0FD0FB8D0344AD1
:1022D000394935484FF4FA731DF0F8F886F3118840
:1022E000BFF36F8F0323184602DFA9E717F030F919
:1022F00085E72B4A31492C484FF4C5731DF0E6F8A9
:1023000087F31188BFF36F8F0323184602DF4FE76F
:10231000636893F82C30D90705D4636893F82C30A0
:102320009A077FF52CAF2648214616F0D5FE16F009
:10233000F1FF93E71A4A23491B4840F2E5131DF0C9
:10234000C5F8214B0721A8FB030301FB08310EA3AD
:10235000D3E90023FDF7C4FE1C4902461C481DF0CA
:10236000B5F8002585F31188BFF36F8F0323184656
:1023700002DF1848214616F0AFFE16F0CBFF6FF0D3
:102380008B006CE7AFF3008000CA9A3B00000000AE
:10239000D6BE898E5555550079240000980300203B
:1023A000103F02000C300200242E0200142F020005
:1023B0009D80010045810100B8330200A03E02006B
:1023C000F5720100002F02008D49FD1A5C3F0200EA
:1023D000D83E02009D7F010038B5044615F09EFDF1
:1023E000A37DA27DC3F34103013303F00303032B59
:1023F00008BF002363F3420214BF03F12500252028
:10240000A27514F0C5FE63680BB123694BB90AF0DD
:102410008BFCC11C002017F083F9BDE8384017F091
:10242000FBB917F0ABF905460AF07EFCC11C002091
:1024300017F076F917F0F0F917F0A0F929460AF02D
:1024400075FC0B4A03460721A0FB020201FB032196
:1024500005A3D3E90023FDF743FE23691B1A23617B
:1024600038BD00BFAFF3008000CA9A3B00000000F7
:102470008D49FD1A000000002DE9F0478AB004469E
:1024800016F086FFC0B250B914F0DCFEB848214601
:1024900016F022FE0AB0BDE8F04716F03BBF16F07A
:1024A00099FF054617F09CF8064617F0A3F817F0B9
:1024B00079F8EDB2074617F059F814F0C3FE002D75
:1024C000E4D001200BF0A2FC0546002800F0338187
:1024D00094F8168018F0080FC8F3C10AC8F3C001B9
:1024E00040F0C0802E7F6268FFB206F00F03002A22
:1024F00000F0BD80626892F82C20920700F1B7804E
:10250000072BC3D099B9E27DC6F3801102F0010216
:10251000914240F0AC80062205F11E0104F1080052
:1025200007931FF005FF079B002840F0A080002BB9
:1025300040F02A816B7F063B1F2BA7D804200BF0AD
:1025400065FC0028A2D017F06FF9236A064643B94C
:10255000E38B40F2712202FB03F3B0FBF3F203FBC7
:1025600012062268834B52680721A2FB030301FB7A
:1025700002317DA3D3E90023FDF7B2FD6FF442736E
:10258000C3181F3B4FF0000747F1FF32B34272F10F
:102590000002FFF47BAF16F0DBFFA67D636816F048
:1025A00027FF05F11E03019309AB0493C6F38016C0
:1025B00004F11803029603932B7FC3F380130146A3
:1025C000064600933A460123204615F079FE304630
:1025D00016F07EFE16F0C8FE002840F081816648A5
:1025E000214616F079FD626892F82C3043F0010321
:1025F00082F82C30A37D43F08003A3750BF020FC00
:10260000172303714FF6FF73C38095F81CE007464C
:102610003346CEF3401E00F11C0206F1200C1D686B
:1026200058689968DE68D66010336345156050605D
:10263000916002F11002F2D11B6813603B7FBC6015
:102640006EF345133B7717F099F8099BC7E904032C
:102650000BF0F6FBF860386839460AB0BDE8F04781
:102660000BF018BCF6B2002E3FF410AF3AE7002B87
:1026700070D16A7F052A7FF609AF252A3FF606AF9B
:1026800008F02101202940F0C1806268002A00F092
:10269000D080062B3FF6FAAE4FF0450929FA03F930
:1026A00019F0010940F0B180012B00F0B380042B38
:1026B0007FF4ECAE6B7F063B1F2B3FF6E7AE18F0C6
:1026C000010F3FF4E3AE16F093FE2E7F0278C6F3BF
:1026D0008013B3EBD21F7FF4D9AE0830062205F188
:1026E0001E011FF025FE00287FF4D0AE6B7F002B6B
:1026F0003FF4CCAE636823B106F00F06072E7FF4DB
:10270000C5AE03200BF082FB054600283FF4BEAEA9
:102710000BF096FB4FF6FF73EB8005232B71E7B9A7
:102720007F206B7E287669F3000328686B76294644
:102730000BF0B0FBAAE6114A1149124840F2C72338
:102740001CF0C4FE85F31188BFF36F8F0323184676
:1027500002DFBDE6062B8CD09BE716F013FFC0B25C
:10276000DFE700BFAFF3008000CA9A3B0000000023
:10277000B57F01008D49FD1A8D810100103F0200D7
:10278000A03E0200242E0200012BE3D16A7F0C2A16
:102790007FF47CAEC8F38013B3EBD61F4FEAD61993
:1027A00000F0AD80BAF1010F1ED9B9F1000F06D0CB
:1027B00095F8293003F0C003402B3FF4BFAEC8F3B7
:1027C0008018B8EBD61F4FEAD61913D0B9F1000F15
:1027D0003FF45CAE95F8293003F0C003402B7FF442
:1027E00055AE4FF0010985E7C8F38019B9EBD61F44
:1027F0007FF44CAE062205F1240104F118001FF00D
:1028000097FD90B94FF0000974E76A7F063A1F2AD6
:10281000F8D93BE66A7F0C2A7FF438AEC8F38018FB
:10282000B8EBD61F4FEAD619E4D0BAF1010FCDD8D4
:102830002CE69620079216F0F3FE079A104616F043
:10284000DFFD03200BF0E2FA064600283FF41EAE3F
:102850000BF0F6FA4FF6FF73F38005233371002F68
:1028600058D17F23727E33766FF300027276314641
:1028700030680BF00FFB16F0BBFD0378032666F300
:10288000030303702B7F0278C3F3801363F3C71233
:102890000C2302704370A37DD2B2C3F3801363F3A1
:1028A0008612034603F8022BA269C0F80220A28B0D
:1028B0009A80D5F81E3083606B8C838116F008FDFA
:1028C00016F052FD50BB16F0A7FFA37D1B4843F046
:1028D00001032146A3750AB0BDE8F04716F0FCBB22
:1028E000174A1849184840F2AF431CF0EFFD87F330
:1028F0001188BFF36F8F0323184602DF6FE60622AD
:1029000005F1240104F118001FF012FD00283FF426
:1029100015AE47E716F036FEC3B2A3E7084A0949E9
:10292000094840F233531CF0D1FD002383F3118892
:10293000BFF36F8F304602DFC5E700BFC97F0100DC
:10294000103F0200A83E0200242E020000000000FA
:102950002DE9F041C468A28A4FF6FF739A4282B013
:1029600000F0DF80054615F0BFFD2B89628B208CBF
:10297000A3831A4492B2104494F82730E28380B2C1
:10298000411C21845E064FF00001618304F12201A5
:1029900000F1A18003F03F000B4694F8281000904E
:1029A00004F1290013F040FF0646D4E90C31A28B54
:1029B00002FB0333A26B1344E26B8B4294BFD21829
:1029C00052188A4228BF0A46E263616C226C94F86E
:1029D00049301144616494F8622094F82C10C3F3D8
:1029E000020363F3061112F004024FF0000384F8AF
:1029F0002C10A363236478D016F0B0FB002016F0EF
:102A000003FC201D16F020FC2389A17A40F25B60B4
:102A100043EA014116F0D2FC304614F0B9FB2146DE
:102A2000594816F059FBA08916F0FAFD94F8482091
:102A300094F84900C2F3C003002102F0070200F03D
:102A4000070016F025FD204615F016FE27682E68B3
:102A5000384614F089FB06446A6806F10901002033
:102A600016F0EAFD804616F0ABFE002016F0C2FE1E
:102A7000E36B94F8490003F12F02636C00F0070048
:102A8000012103EB420516F031FC4544054494F85E
:102A9000490000F00700022825D004280CBF4FF49D
:102AA000BC73282301211D4416F022FC284416F093
:102AB00079FEA18A05313246C9B2384614F056FB78
:102AC0000546002834D1204614F0E8FAD0B9002099
:102AD00002B0BDE8F0810A4603F03F03218D13F0F8
:102AE000EFFE064661E71823DCE7D4E9130108F09E
:102AF000ADFB002880D194F8623043F0040384F8E1
:102B0000623079E7214A224922484FF4B0731CF021
:102B1000DDFC85F31188BFF36F8F0323184602DFB6
:102B2000D5E71D48214616F0D7FA16F0F3FBCEE79D
:102B3000164A1A4917484FF4AB731CF0C7FC184BE0
:102B40000721A5FB030301FB05310DA3D3E90023F6
:102B5000FDF7C6FA1349024613481CF0B7FC0025DE
:102B600085F31188BFF36F8F0323184602DF0F48E8
:102B7000214616F0B1FA16F0CDFB6FF08B00A7E7F7
:102B800000CA9A3B00000000E9880100F03F020003
:102B90000C300200242E0200F5720100002F02000A
:102BA0008D49FD1A44400200D83E0200D572010052
:102BB000F0B5C468A28A4FF6FF739A4285B000F060
:102BC0008F80054615F090FC2B89628B208CA383A7
:102BD0001A4492B2104494F82730E28380B2411C28
:102BE00021845E064FF00001618304F1220160D46C
:102BF00003F03F000B4694F82810009004F12900E0
:102C000013F012FE0646204603A915F00FFE039BA3
:102C100094F862101A7861F3C3021A70039A94F858
:102C200062301178C3F3400363F38201117016F030
:102C300095FA002016F0E8FA201D16F005FB23890E
:102C4000A17A40F25B6043EA014116F0B7FB3046DF
:102C500014F09EFA0399204615F0BEFD21463A482D
:102C600016F03AFAE08916F0DBFC94F8490000F01F
:102C7000070016F0C5FB27682E68384614F074FA72
:102C800006446A6806F10901012016F0D5FC16F029
:102C9000C3FDA18A05313246C9B2384614F066FA3E
:102CA000054620BB204614F0F9F950B9002005B0C4
:102CB000F0BD0A4603F03F03218D13F001FE0646E6
:102CC000A1E7224A224923484FF482731CF0FEFBFD
:102CD00085F31188BFF36F8F0323184602DFE5E702
:102CE0001D48214616F0F8F916F014FBDEE7174AE6
:102CF0001A491848FA231CF0E9FB194B0721A5FBD8
:102D0000030301FB05310EA3D3E90023FDF7E8F926
:102D10001449024614481CF0D9FB002585F311889C
:102D2000BFF36F8F0323184602DF1048214616F0C9
:102D3000D3F916F0EFFA6FF08B00B8E7AFF300802D
:102D400000CA9A3B000000000D87010050400200BD
:102D50000C300200242E0200F5720100002F020048
:102D60008D49FD1AA0400200D83E0200D572010034
:102D70002DE9F041002490B01F4615460E463C2236
:102D8000214601A800941FF0CBFA3F2FB84628BF78
:102D90004FF03F084246294668461FF099FA08F16D
:102DA00040030DEB0308214808F8404C1CF081FB60
:102DB000DFF87C80A7421CDC1E481CF07AFB1E4911
:102DC00030681CF002FFD0B9062F0FD11B4B1C48F6
:102DD00001221A701B4B2A681A60AA889A801A4B23
:102DE00019681CF066FB194B02221A7010B0BDE87E
:102DF000F081295D40461CF05CFB0134DAE71449A0
:102E000030681CF0E2FE10B9124B0122EDE71249C6
:102E100030681CF0DAFE0028E8D110481CF049FBAD
:102E20000F4B01221A70094B0322DEE748440200CF
:102E30005B440200C44702008A0500201C270020D2
:102E40006144020053270020980100201927002028
:102E5000790500201B27002068050020954402000A
:102E60001A2700201FB506240294044C0194BDF8D3
:102E7000184000941EF0C4F804B010BDBC44020019
:102E80007FB50BAB05930393054B02930023CDE96C
:102E900000330322184600F0A9FE07B05DF804FBDA
:102EA000C344020038B50748074C1CF002FB074832
:102EB00000211CF007F9257815B903F0F9FD2570FC
:102EC00038BD00BFD344020019270020282A020081
:102ED00008B551B9054B064819701CF0EAFABDE86F
:102EE0000840044801211CF0EDB808BD1927002056
:102EF000E7440200282A02002DE9F743414C2378D9
:102F000063B941481CF0D5FA40481CF0D2FA404B56
:102F1000404819681CF0CDFA012323703E483F4E0B
:102F20003F4F1CF0BAF880463E481CF0B6F8044605
:102F300000F01AFA0546B8F1000F37D064BB3378B9
:102F4000B8FA88F8B4FA84F44FEA58186409002BE8
:102F50004CD1DFF8BC903448D9F800100A3921EA86
:102F6000E171C9F800101CF0A4FA28680090AB8841
:102F7000ADF804306846D9F800308DF8043000F020
:102F80004DF940F26760002187F80080347003B08B
:102F9000BDE8F0431CF0C9B800233B70337075BB2B
:102FA000224803B0BDE8F0431CF083BA3B78C3B9B4
:102FB000DFF85C901E48D9F800100A316429A8BFD8
:102FC0006421C9F800101CF074FA28680090AB88DE
:102FD000ADF804306846D9F800308DF8043000F0C0
:102FE0001DF9002CABD04FF00108002440F26760BF
:102FF000002187F8008034701CF097F8CFE703B009
:10300000BDE8F08318270020FE4402001D450200A1
:103010009801002054450200182A020016270020BB
:1030200017270020102A020089450200A645020049
:103030006C4502002DE9F04157488AB04FF4B011B9
:103040001CF054F855484FF4B0111CF04FF8544898
:103050004FF480311CF04AF852484FF480311CF094
:1030600045F84F4801211CF02DF84E4801211CF075
:1030700029F841F2343000211CF057F8002003F009
:1030800079FAA0B94848494EDFF82481494F1CF02D
:1030900010FA41F2343000211CF047F8012333705C
:1030A0003378032BFDD8DFE803F01B08636942483F
:1030B0000AB0BDE8F0411CF0FCB9404D40481CF09E
:1030C000F8F90FCD05AC0FC42B68236000240094E1
:1030D00023462246214605A804F0E6FA3470DFE7CD
:1030E0003B7893B137481CF0E4F900F041F9364BD6
:1030F00003930024354B0293CDE900443449234621
:1031000003222046FFF7BCFE3C70324B1A68324B5C
:1031100019688A4226D0314C1A6001213970216821
:103120002F480131032391FBF3F303EB4303C91A47
:1031300021601CF0BEF923682A4A8DF81430FF2361
:1031400012688DF8153040F6CD4000230021ADF80F
:1031500016308DF818208DF819301BF0E6FF05A801
:1031600000F05CF84FF4A47000211BF0DEFF97E73D
:103170001D4800F053F80023337091E798F80030B1
:1031800003F0FF0413B1FFF7B7FE89E717481CF0FF
:1031900090F988F80040A1E7282A0200202A0200BE
:1031A000182A0200102A0200C54502001927002033
:1031B0001A2700201B270020D8450200BC28020047
:1031C000EF45020008460200FB440200C34402002F
:1031D000A4270200700E0020680E00206C0E002054
:1031E0002746020098010020532700204346020092
:1031F00010B508488468A36833B9236806490548B0
:10320000BDE810401022184798470F28F5D86FF0F6
:10321000210010BD5C2502001D27002070B5484B21
:1032200002681A6082889A808AB043790893037989
:103230000793C378069383780593437804930378C0
:103240000393054600243F4B0293CDE900442346F7
:103250003D493E4E032220461BF069FF2B79336027
:103260002B78012B33D0022B49D0002B5AD1384A6E
:1032700035490093CDE90132184603221BF057FF70
:1032800030686C78A978EA7864234443414394FB1E
:10329000F3F491FBF3F1E4B2C9B2424392FBF3F2CF
:1032A000D2B22C4B0020013010281C7059709A703B
:1032B00003F10303F7D1FFF79BFF00283DD0264B16
:1032C00002930023CDE900330390012231E0234B28
:1032D0001D490094CDE901430322234620461BF0FB
:1032E00026FF3268A021C2EB02246423514394FBE1
:1032F000F3F491FBF3F1E4B2C9B29201CEE7184BBB
:1033000011490094CDE901430322234620461BF0D6
:103310000EFF32686423C2EB0222214692FBF3F2D5
:10332000D2B2BEE703930F4B0094CDE901430222D2
:103330002346054918461BF0FAFE0AB070BD00BFCF
:103340004D27002092460200342802009C010020F4
:10335000D34602001D2700204D470200FA46020016
:103360001A47020038470200004870474D270020E6
:1033700070B5194C2669A568336823F4006333607F
:103380002B684FF480320B212046984733681B0589
:103390004FF4006154BFEB682B69204698470E48F4
:1033A0000B211BF0D3FEA0B9422000211EF055FED8
:1033B0000A4A094C1368013313600B2120461BF0A5
:1033C000C5FE08B1012070BD002121201EF045FE80
:1033D000F3E70020F7E700BF9C240200700E0020F6
:1033E0002DE9F04F91B08407009302F0040302939B
:1033F000C2F3C20303F10103DDF8688003920546BE
:103400000E46059340F0BA81041D30B1072909D852
:103410006FF01B0011B0BDE8F08F01F007063444D7
:10342000C6F10806009B4FF00009591E4FF0040A30
:103430004FF0FF330193CDF810904F46CB465346E3
:103440000DB1009A22600598002800F3E8809848A2
:10345000009A824203D397488242C0F0E080039AE8
:10346000A4EB050E92074FEA9E0000F103810F2F97
:1034700000F2B180002D00F0058107F140020DEB54
:10348000020C019A0CF8200C0CF8102C0498013056
:103490000490E7E07A285DD84B280ED8472859D801
:1034A00029282DD8252852D054D820287AD023383E
:1034B000D0F1000B4BEB000B74E04C382E2849D8B0
:1034C000DFE800F0704848484848484848484848BD
:1034D0004B484848484848484859484B4B5959591F
:1034E000704B6D487048184B184848827F4B4848CD
:1034F0004B487F0000204FF0000B4FF0040A38E0EB
:103500002A38C0B2012202FA00F010EA0E0F49D1A7
:1035100010F0625C2FD110EA020B43D06046013CF0
:103520005444B4FBFAF40AFB04F4002D61D0A3EB7D
:10353000050CA444B4453FF66BAF002868D1042BBA
:1035400047D158F8043B2360043404232AE0019A4D
:10355000013A01924FF0000B24E011F8010C6C28A5
:1035600034D111F8023C00206C2B8346C5D14FF0BA
:10357000080A5346D3E708F1070828F0070807347C
:10358000F8E802AB24F0070435B106982044B042B5
:103590003FF63EAFC4E900AB08344FF0000B4FF0EC
:1035A000080A534611F8010F002878D0BBF1000F2C
:1035B0007FF470AF2528F5D1019B013301934FF0C3
:1035C000010B4FF0040AECE7584694E700208346CD
:1035D000A5E7082B02D06FF015001BE708F10708DC
:1035E00028F00708F8E80223C4E900230834082378
:1035F000D8E768B9042B02D108F10408A4E7082B26
:10360000E9D108F1070828F0070808F10808EDE7F4
:10361000059A013A059258F8042B009210E7039A94
:10362000900720D5A4EB050E4FEA9E004FF0010C49
:10363000BEF5007FCFD20F2FCDD8F5B107F14002F4
:103640000DEB020EC0B2019A0EF8200C0EF8102CF1
:10365000BCF1000F3FF41AAF60F07F000EF8200CB1
:1036600009F101090137C5F10802043406924FF649
:10367000DA7E97E74FF0000CDAE7BCF1000F01D0DB
:103680000136EFE7029802360028EBD10098CDE929
:103690000631FCF747FDDDE906310644E2E7631B2E
:1036A000B3F5806F97D23DB9A6F10804E018B1E6F2
:1036B0003C24020060660200029A28609B082B707E
:1036C0009DF81030C2B1EB7085F80290B9F1000F8F
:1036D00005D008A80022C5F1010C97420ED1C5F112
:1036E00001030DF120084FF0000A01930DF1300B9A
:1036F000574512D1601B8DE66B70E5E710F8013B72
:10370000190608D50CEB040EB64503F07F033FF60F
:103710007FAE04F8013B0132DFE7B9F1000F03D0BF
:1037200098F90020002A17DB029BD3B11AF80B206E
:1037300004F8012B0022019B18191044B0423FF6F7
:1037400067AE98F8000004F8010B00990392204638
:103750001EF0BEFD039A14440AF1010A08F10108A3
:10376000C6E798F8002055F822300093029B45F8F0
:1037700022300098FCF7D6FC421CDCE76FF00D000D
:1037800048E600BF014B1860704700BFA001002051
:1037900080B505460E46174698461AF00FFF0346B9
:1037A0001EF042FEDFF81890044649F80030424609
:1037B00030463946A84754F8090000F0D9FF00BF49
:1037C000080000002DE9F047058B044628079046C5
:1037D00011D4022905F0070540F0CC8020461BF0EB
:1037E0009DFE78B10138218B042811D8DFE800F064
:1037F000C2106D85950001290CBF45F0100545F0FC
:103800002005258388F31188BFF36F8FBDE8F0870B
:1038100001F0070AAA4500F0A5800027B9463E46F8
:10382000A368002B00F0BC8041F00801218388F3DD
:103830001188BFF36F8FA168002900F0BA800D686E
:10384000002900F0B680D1F8048033465246204665
:10385000C047002D76D02B6829461D46F0E701F0C1
:1038600007035A1F012A1BD8002221F00701062B4B
:10387000276889B2C4E9002209D13B4603E0628B84
:10388000013262831B68002BF9D141F002012183D0
:1038900020461BF043FE00287AD041F0200176E05C
:1038A000042B0AD121F0070189B2218320461BF0A5
:1038B00035FE10B141F020012183218B01F0070A70
:1038C000AA454FD00027B946AAE7236921F007018E
:1038D00041F00601062DD3F8009021832DD1B9F1D6
:1038E000000F3FD041F00801218388F31188BFF316
:1038F0006F8F3A492046C84729E021F00701236924
:1039000041F0040189B2042DD3F804902183E6D05C
:1039100000273E464FF0040A82E721F007012369A1
:1039200041F0050189B2052DD3F808902183D6D046
:1039300000273E464FF0050A72E700273E464FF04B
:10394000060A6DE72B4687E7B9F1000FD1D1EFF3F7
:103950001188202383F31288BFF36F8F238B23F00A
:1039600008032383258BEA062ED525F01003238335
:1039700005F007056669218B002EBFF670AF0023A6
:103980002768C4E9003321F0070141F001012183D8
:10399000218B01F0070AAA454FF000097FF440AFE0
:1039A000002F9CD041F00801218388F31188BFF3D8
:1039B0006F8F002FC8D03D683946334652462046A7
:1039C0001BF0D8FD2F46F4E7AB067FF51BAF25F0C3
:1039D0002003238305F0070500E700BFA1F50100E0
:1039E0002DE9F84F814630480F461BF0C1FE0646D0
:1039F00070B92E4CDFF8B8B00546A0464FF0010A6A
:103A00005C4507D3B9F1000F02D04FF0010AFDB9B0
:103A1000BDE8F88F237B83B12368DB680BB12046B8
:103A20009847636883F806A023681B6943B96368F5
:103A30000422196820461BF0C0FE01361034DFE76F
:103A4000204698470028F2D00AFA06F31D43F4E70F
:103A5000A94695FAA5F4B4FA84F40AFA04F3260107
:103A600008EB04146FEA030B25EA0305237B63B11B
:103A700058F806301B6993B94644042273682046FF
:103A8000196809EA0B091BF098FE002DE1D127B156
:103A90004FF4A47000211EF0E0FA4D46B7E720462F
:103AA00098470028F1D1E7E77C0E00209C2802000F
:103AB000AC280200014B53F820007047302A020066
:103AC00008B5034608462BB1044A136000F080FA9B
:103AD000002008BD6FF01500FBE700BFA401002027
:103AE0000C4A0D48002310B513700C4A13600C4AA1
:103AF0004FF400411360FFF7E3FF0A4B0A491846F1
:103B00008B4200D310BD1A1A5C6812110132227167
:103B10001033F5E7592700206DF70100740E0020DF
:103B2000780E00209C280200AC28020070B50B4DD6
:103B3000297841B90120FFF753FF094C094EB442DF
:103B400002D301232B7070BD63685B791BB12368BE
:103B500020469B6898471034F1E700BF59270020A2
:103B60009C280200AC28020010B5044608481BF04F
:103B7000FFFD5CB1BFF35B8F064B53E8001F0139BB
:103B800043E80012002AF8D1BFF35B8F10BD00BFDD
:103B9000740E0020780E002070B50A4B0A4C1B688A
:103BA0000A4E05469847A860B44200D370BD6368CA
:103BB0005B7923B1236829461B6820469847103457
:103BC000F2E700BFA40100209C280200AC280200FC
:103BD000044A054B9B1AB1EBD30F34BF52F83100A6
:103BE00000207047A42702009C2802002DE9F04F16
:103BF00087B004AFD7E90EA93D6B04460E46934645
:103C00009846BAF1000F1ED0C7F80490CDF8009086
:103C100010217A6B53460020FFF7E2FBB0F5006FEE
:103C2000014611D340F2FF730393194B0293002313
:103C3000CDE900331749022218461BF0E0FD0C378E
:103C4000BD46BDE8F08F514604F007040BF0070BAA
:103C5000E40044EA8B1444EA412444EA055417354D
:103C60000D4425F00705ADEB050D04ADBAF1000FCD
:103C700007D0CDF800907A6B534605F11000FFF79E
:103C8000AFFB43462246314628461BF09FFDD6E750
:103C90008B4702003C280200406820B1034BC01A49
:103CA00040F3CF0070474FF0FF307047A427020069
:103CB0000EB403B503AB014653F8042B044801933B
:103CC00001F014F802B05DF804EB03B0704700BFD8
:103CD0003BF80100CA0605D48B064CBF02490349D4
:103CE000FFF7E6BF704700BFC4470200C3470200AA
:103CF0002DE9F04F87B004469DF844600D4690468C
:103D00009946002E00F0A280159B03F0020A03F0F2
:103D100001030493159B03F0080B03F480730593D0
:103D20001BF049FD024600283DD095492046FFF78B
:103D3000BFFF0746BAF1000F09D0159B13F0440FDF
:103D400033D190492A462046FFF7B2FF0744049B2F
:103D500053B18D4B8D4953F826208D4B2046002AB8
:103D600008BF1A46FFF7A4FF059B002B49D0BBF103
:103D7000000F64D1B8F1000F66D086494246204654
:103D8000FFF796FF0546129B3D44002B6DD1149B17
:103D9000002B73D1159BDB0700F1EB8015992046B2
:103DA000FFF798FFD8E00746C4E77B4B1868002868
:103DB000CCD07A4B4FF47A7A1B68B5FBF3F54FF40D
:103DC0006163B5FBF0F100FB11550AFB05F54FF0FF
:103DD0003C0CB1FBF3F203FB1211B5FBF0FEB1FB9F
:103DE000FCF300FB1E550CFB13110AFB05F50091BB
:103DF000B5FBF0F56A49CDE901E52046FFF758FF2C
:103E0000A4E7BBF1000F1DD0664B674953F826208D
:103E10002046FFF74DFF0546B8F1000F05D05D497C
:103E200042462046FFF744FF0544B9F1000FAAD0EF
:103E30005E494A462046FFF73BFF0544A3E74FF0A3
:103E40000009E1E75D46E7E745469CE7B9F1010F68
:103E5000129B06D1002B66D1149B002B7CD0002531
:103E60000CE0002BF8D052485EE05248129B5249B9
:103E700022461BF0E9FA149B002B6AD0DFF83C8144
:103E8000DFF83C91149F1599102F204628BF10276A
:103E9000FFF720FF4FF0000B5D4547DC139B4946C1
:103EA0001A782046FFF704FF4FF0010B1BF0070FB5
:103EB00003D141462046FFF7FBFE5F453DD9139BEA
:103EC000494613F80B202046FFF7F2FE0BF1010BD9
:103ED000BBF1100FEAD13B49DFF8ECB020464FF0C0
:103EE000000AFFF7E5FE5246139B9A5CA2F12001FF
:103EF0005F2928BF2E2259462046FFF7D9FE0AF136
:103F0000010ABAF1100F1DD01AF0070F03D1414674
:103F10002046FFF7CDFE57455246E5D8414620469C
:103F2000FFF7C6FEEBE7234835469FE741462046AC
:103F3000FFF7BEFE0BF1010BAEE724492046FFF769
:103F4000B7FEC3E7139B3B441393149BDB1B1493F3
:103F500098D1002E7FF41EAF6268A1682068D2E974
:103F600000231BF05CFC636800221A6007B0BDE808
:103F7000F08F074A05492046FFF79AFE0EE700BF7B
:103F8000CB470200CF470200402A020069510200DD
:103F9000C6470200F4470200840E0020800E002075
:103FA000D8470200542A0200F8470200FE470200E8
:103FB00057F801003BF80100ED4C00000B480200EF
:103FC000034802000D4802000F48020009480200A1
:103FD000074A00210123904206D8064A01B901236D
:103FE0001360054B1860704740085B000121F2E741
:103FF00040420F00800E0020840E0020F8B5074FCD
:104000000D4604464618B44201D12846F8BD14F8BE
:10401000011BBB6801485B689847F4E7DC24020099
:10402000014B0360002070479C2A020070B50646D1
:1040300086B00D46002938D08B6805934B680493F1
:104040000B6803930024244B244902930122234646
:104050002046CDE900441BF075FC6B6905932B6984
:104060000493EB6803931E4B1C490094CDE9014374
:104070000122234620461BF065FCEB690393194B94
:1040800016490094CDE901430122234620461BF046
:1040900059FCAB690393144B10490094CDE90143DB
:1040A0000122234620461BF04DFC012E0DD1EFF3DB
:1040B0000583103B03930D4B02930023CDE900339E
:1040C0000649324618461BF03DFC2946304606B0EC
:1040D000BDE8704019F0C6B94C4802006C280200D7
:1040E0007B480200AA480200B9480200E7480200E3
:1040F00030BFFFF7FDBF00BF2DE9F0410B4EDFF8E9
:10410000308006EB0807CC1B05463246094920469D
:104110001EF0DEF8A01942460021083C1EF000F90E
:104120006C6707F10800BDE8F08100BF00000000E7
:1041300004000000AC280200054B5A699B689A42B3
:104140001FBF044A536843F080535360704700BF59
:10415000C826002000ED00E0F0B585B00024434BF8
:104160000293CDE90044234607460E46012240490A
:1041700020461BF002FC3F4B9B6ADB0465D53E4B9F
:104180003B490094CDE901432046234601221BF020
:10419000F4FB1720374B9B6A1D050AD5374B02935A
:1041A00000231846CDE90033314901221BF0E5FB1D
:1041B0001820304DAB6A9C051FD50024304B02936C
:1041C000012223462046CDE9004429491BF0D5FBB6
:1041D000AB6BAA6A10040FD503932A4B24490094B1
:1041E000CDE901430122234620461BF0C6FB1FB147
:1041F000AB6A23F40043AB6219201E4B9B6A59053E
:104200000AD5214B029300231846CDE90033184903
:1042100001221BF0B2FB1A20164A936A13F4807332
:1042200015D01A4B029300231846CDE900331049EC
:1042300001221BF0A2FB1B200E4A936A43F47F432A
:1042400093620023337005B0F0BD1620A2E7926A96
:104250009204F1D50E4A06490093CDE90132184681
:1042600001221BF08AFB1C20E6E700BFFA4802008F
:104270006C28020000ED00E0104902002149020014
:10428000344902004D490200624902007D490200A2
:10429000954902001FB50024374B029301222346A3
:1042A000CDE90044354920461BF067FB344B9B6A3F
:1042B0009A015ED5334B31490094CDE90143204644
:1042C000234601221BF059FB1E202D4B9B6ADB016C
:1042D0000AD52D4B029300231846CDE90033274918
:1042E00001221BF04AFB1F20254B9B6A1C030AD5A9
:1042F000264B029300231846CDE900331F490122C3
:104300001BF03BFB21201E4B9B6A59030AD5204B17
:10431000029300231846CDE90033184901221BF00F
:104320002CFB2220164B9B6A9A030AD5194B029349
:1043300000231846CDE90033104901221BF01DFB74
:1043400023200F4B9B6ADB030AD5134B02930023F8
:104350001846CDE90033094901221BF00EFB242049
:10436000074A936A6FEA03436FEA1343936204B008
:1043700010BD1D20A9E700BFC44902006C2802003F
:1043800000ED00E0DC490200EF490200094A0200AA
:10439000274A02004C4A0200664A02002DE9F04317
:1043A00085B000244D4B0293CDE90044234680465E
:1043B000894616464A49012220461BF0DEFA494B3F
:1043C0009B6ADF0640D5484B0094CDE90143204667
:1043D0002346434901221BF0D0FA1124414B9B6A2A
:1043E0001D070AD5414B02930023CDE900333C4918
:1043F000012218461BF0C1FA12243A4DAB6A980705
:1044000024D500243A4B36490293CDE90044234693
:10441000012220461BF0B1FA6F6BAB6A190659D521
:10442000344B2F490397CDE90143009423460122E1
:1044300020461BF0A2FAB9F1000F03D0AB6A23F0BB
:104440008003AB62132403E01024C7E76FF0150765
:10445000244B9B6ADA070AD5274B02930023CDE948
:1044600000331F49012218461BF087FA14241D4B04
:104470009B6A9B060AD5214B02930023CDE90033AA
:104480001749012218461BF078FA1524154B9A6A31
:10449000D50602D49A6A90070AD55B68190507D534
:1044A0004146384600F04AFA10B180F309880224E8
:1044B0000C4B9A6A920642BF5A6A22F400525A6220
:1044C0009A6A42F0FF029A6220460023337005B0D8
:1044D000BDE8F0836FF01507B4E700BF914A020012
:1044E0006C28020000ED00E0A74A0200214902000A
:1044F000DA4A0200F24A0200084B02009549020023
:104500002DE9F041754B5F6890B00446C7F308068B
:10451000002383F31188BFF36F8F02F07F40B0F167
:104520007F4F0CD102F00C00082819D16C4A6D495C
:104530000093CDE90132184601221BF01EFA002536
:104540002C464FF00008F31E8DF81F80092B00F257
:10455000AC80DFE803F00BA0A49CAAAAAAAAAAA890
:10456000120746BF0C461D460125EAE75E4B5D4932
:104570005A4FCDF80080CDE901830023012218466F
:104580001BF0FBF98DF81F80FE6A16F0020605D0BD
:10459000564BCDF80080CDE9018306E0FB6A002B85
:1045A0000BDA534B0096CDE9016300234D490122FC
:1045B00018461BF0E2F900223BE0FB6A5B00FAD5EB
:1045C0004C4B48490096CDE9016301223346304601
:1045D0001BF0D3F97B69A26943F480737B61BFF35D
:1045E0004F8FBFF36F8F7B6932F8022C23F48073F7
:1045F0007B61BFF34F8FBFF36F8F4DF602739A420B
:104600000AD0BB6ADBB2002B33D00DF11F020121AF
:104610002046FFF7C3FE3CE023680393364B314945
:104620000096CDE901630122334630461BF0A5F91F
:1046300022689DF81F30CBB908AE04F1200720682E
:104640006168334603C30834BC421E46F7D10F9B52
:10465000002D3ED0C3F3080121B96FEA53236FEA5E
:1046600043230F9308A91046FFF7E0FC10B0BDE804
:10467000F081BB6A13F47F4F05D00DF11F010120BB
:10468000FFF76AFD05E0BB6AB3F5803F93D3FFF700
:1046900001FE0246CDE70DF11F020021B8E70DF142
:1046A0001F010020ECE7154B73E7154A154B0D4928
:1046B00017F4F87F18BF1346103ECDE90336124BAE
:1046C00002930023CDE90033012218461BF055F96F
:1046D00071E723F4FF7323F00103C2E700ED00E06C
:1046E000554B02006C280200804B0200974B0200E1
:1046F000B84B0200C64B0200E54B0200014C020021
:104700003C4B0200274B0200254C0200044B5A6927
:1047100042F010025A615A6922F008025A61704749
:1047200000ED00E0EFF30880EFF3098101B5724678
:10473000FFF7E6FE01BD00BF0B4880F3088817F0C5
:104740009FFB202080F3118808484FF40461401833
:1047500080F30988EFF314800221084380F3148862
:10476000BFF36F8F00F0B2F8404200208034002089
:10477000084B9B6883420BD1EFF3058343B1064B93
:104780005A6842F080525A605A6A22F400425A62D1
:1047900019F01ABFC826002000ED00E014498A680D
:1047A0004FF030001044EFF3098C80E8F01F202018
:1047B00080F31288BFF36F8F0E4F4FF000664A6987
:1047C0008A603E60506F0C4C2060906F00239367AE
:1047D00080F3118804B5104600F014F9BDE80440D8
:1047E00002F1300090E8F01F8CF309887047000058
:1047F000C826002004ED00E0B40E00201EF0040FD7
:104800000CBFEFF30880EFF30980816911F8021CF7
:104810000229FFD001B572461BF0A4F801BD00BF0C
:1048200040B2002807DB044A4109012300F01F00C1
:10483000834042F82130704700E100E040B2002898
:104840000CDB4309064900F01F002033012282409F
:1048500041F82320BFF34F8FBFF36F8F704700BF26
:1048600000E100E0054B420900F01F0053F8222050
:10487000012303FA00F01040704700BF00E100E0A0
:1048800040B20028A8BF00F1604001F10101B8BFAB
:10489000064B4FEA4111ACBF00F5614000F00F003C
:1048A000C9B2B4BF195480F80013704714ED00E08A
:1048B000044B054A23F07F039360BFF34F8FBFF390
:1048C0006F8F70470000000000ED00E008B5FFF7B3
:1048D000EFFF0B4AD2F8883023F47003C2F8883017
:1048E000EFF3148323F0040383F31488BFF36F8F73
:1048F00018F0A2FE19F09CFF00F05AF818F0E0FE44
:1049000000ED00E042F8203C009B42F81C3C0A49C4
:10491000019B42F8183C029B42F8143C21F0010133
:104920004FF0807342F8043C42F8081C0023203A00
:1049300002658367704700BF91370000094A03464C
:10494000906870B113F1160F406E05D0A0F14002CF
:104950009A4205D8834203D2814228BF0020704783
:1049600000207047C826002008B515460B4A0C4B9E
:104970009060426F1A600E4600F044F82C4686F3B1
:1049800009880020034B984720460021002200237D
:10499000014C2047A3F9010091370000C8260020F0
:1049A000B40E0020014B10221A61704700ED00E0A8
:1049B000044800232021C2180133272B82F800135A
:1049C000F9D1704700E100E008B5EFF30583064A2E
:1049D000103B02EBC30152F8330049688847BDE839
:1049E0000840FFF7A9BB00BF9C250200024B034A09
:1049F0000348012100F096B80000012000000020CB
:104A00009C2A0200426E054B403A1A60044A40213B
:104A1000C3E901121846012100F08EB8B80E00203B
:104A200000000B151FB5144AD2F89030C3F30723CA
:104A3000013B98420FD9114B029300230390CDE91B
:104A4000003318460E4901221AF0DEFF6FF0150000
:104A500005B05DF804FBC2F898000B6823F01F0353
:104A6000034343F01003C2F89C308B6843F001030A
:104A7000C2F8A030ECE700BF00ED00E03C4C0200C3
:104A800054280200F0B50E4689B01F4604460025A2
:104A9000B54212DA606838B3BFB1431E18420FD076
:104AA000134B02930023CDE90033124903950122F1
:104AB00018461AF0A9FF6FF01502104609B0F0BDB4
:104AC0001F28EDD921680B42EAD1236805931AF01B
:104AD0008BFFA36805A90343D0B20793FFF7A2FF9A
:104AE00010F1160FE7D0421C01350C34D0E700BF9F
:104AF000624C020054280200044B0522C3F89420A3
:104B0000BFF34F8FBFF36F8F704700BF00ED00E022
:104B1000BFF35F8F024B0022C3F89420704700BFA1
:104B200000ED00E010B5034C01232278FFF7AAFF47
:104B3000207010BD5B27002008B50B4A00231278B7
:104B4000FFF7A0FF10F1160F07D0084A0021D2F896
:104B50009030C3F30723984200DB08BDC2F89800E9
:104B6000C2F8A0100130F2E75B27002000ED00E062
:104B70002DE9F04357485849D0F890300D68C3F3F9
:104B800007239D4285B000F2A180FFF7C1FF49686D
:104B90000022954201F10C011AD1504C504F257062
:104BA0006846FFF73DFADFF83C81DFF83C910646A6
:104BB0000025AE421FD1237846490020D1F890202D
:104BC000C2F3072293427BDBFFF796FF00204CE005
:104BD000C0F8982051F80C3C23F01F03134343F016
:104BE0001003C0F89C3051F8043C43F00103C0F8B6
:104BF000A0300132CDE7009800EB05114FEA051C0B
:104C0000CB683B40B3F5000F44D00AD8B3F5001F82
:104C10002ED0B3F5800F34D0B3F5801F10D00135FE
:104C2000C7E7B3F1807F3ED0B3F1007FF7D150F8F2
:104C30000C3088684A681AF0D7FE40F4802009E0FA
:104C400050F80C3088684A681AF0CEFE40F0885060
:104C500040F43020039001A92078CDE90123FFF72B
:104C6000E1FE002828DA6FF0150005B0BDE8F083FA
:104C700050F80C3088684A681AF0B6FE40EA08001E
:104C8000E8E750F80C3088684A681AF0ADFE40EA50
:104C90000900DFE750F80C3088684A681AF0A4FE73
:104CA00040F08270D6E750F80C3088684A681AF0F5
:104CB0009BFE40F08870CDE7237801332370AEE788
:104CC000C1F89830C1F8A000013377E74FF0FF300A
:104CD000CBE700BF00ED00E0A82A02005B27002020
:104CE0000000F0FF0000081100000206F0B587B0D8
:104CF00007460E4614460021102268461D461DF048
:104D00000FFB02238DF802302A46054B0193214602
:104D10006846CDE9047619F063FF07B0F0BD00BF27
:104D200029FA010008B5024B1B689847002008BD0E
:104D3000C40E0020034B044A1860937843F002032A
:104D400093707047C40E0020B001002008B50649DA
:104D5000064821F00701C1F1005202F580321AF035
:104D600036FB002008BD00BF07510020C80E002000
:104D700070B54169867A0B4D044659B1437ADB0719
:104D800006D42C2303FB06535B6A1B689B68984779
:104D9000002363612C20214606FB0050BDE87040D3
:104DA0001CF0ABBF44060020024B2C2202FB00305B
:104DB000704700BF44060020827A064B2C2101FB7D
:104DC00002339A6A1B7F1B33801A23F00303B0FB64
:104DD000F3F070474406002038B5074B827A2C2444
:104DE00004FB02335B6AD3E901240C601568FFF70A
:104DF000E3FF04FB005038BD440600202DE9F043DA
:104E000085B005466846039190461C461DF0B1F9F1
:104E1000DDE90067EFF31189202383F31288BFF3E4
:104E20006F8F6B8B002B41D02A8B9A4225D90022A1
:104E30000023284618F0C8FD0446F0B189F3118814
:104E4000BFF36F8F039B002B41D032463B46684631
:104E50001DF0B4F9A27A264B2C2101FB0233204627
:104E60005B6A1B6803A91D68DDE90023A847606130
:104E700070BB2046FFF77CFF24E0698B4B1E6B83E1
:104E800089F31188BFF36F8F2B7F2A8BAC6A1B339A
:104E900023F00303521A02FB0344154B154AEB1A85
:104EA0009B105343A3722B7FE372CBE789F31188E6
:104EB000BFF36F8F23464246284618F085FD04460F
:104EC0000028BFD10024204605B0BDE8F08363610F
:104ED000012300252381039B6382E27A65602946D2
:104EE00004F118001DF01CFA63692582E360EAE70B
:104EF00044060020A38B2EBA70B50C4C2C2500B9AB
:104F000070BD037A4668013BDBB20372002BF7D118
:104F1000C3604360837A05FB03431B6A13B1984760
:104F20003046ECE7FFF724FFFAE700BF4406002015
:104F3000044A0123C2F840354FF080420020C2F8F5
:104F40007835704700E0014020B1034B800143F009
:104F500001031847704700BF402902000E4B40294B
:104F600070B528BF40210D4C46181D46B04203F1D4
:104F7000020304D1002305F81130074870BD027800
:104F80001209A25C03F8022C10F8012B02F00F02A8
:104F9000A25C03F8012CE9E77A2700200E4D0200FD
:104FA00030B503788BB0044607AD032B21D8DFE87A
:104FB00003F0021A1C1E12492846FBF7ABF80595B0
:104FC00063780493A3780393E3780293237901939E
:104FD00063790093A3790B4A0B481E2119F0D6FD83
:104FE00009480BB030BD0949E6E70949E4E709493A
:104FF000E2E7094A0A21284619F0C8FDDFE700BFA9
:10500000C94C0200EB4C02005C270020D04C02008F
:10501000D74C0200E14C0200455F02000378012BEF
:1050200030B513D0022B27D07BB9194B0A4603F1B8
:10503000100453F8045B42F8045BA342F9D11B78D7
:10504000137043884B731B0A8B7330BD104B0A4699
:1050500003F1100453F8045B42F8045BA342F9D156
:105060001B78137043684B73C3F307221B0CCB737D
:105070001B0A8A730B74E8E700F1100350F8042B45
:1050800041F8042B9842F9D103780B70DDE700BF9B
:105090001F4D020008B51AF003FE19F07DF9044B0C
:1050A0001B680BB10A209847BDE8084019F088B981
:1050B000D40E002038B5044608481AF0C6FC054650
:1050C00048B1631EDBB21F2B96BF054A0021D15C9D
:1050D0000C301AF035FD284638BD00BF20070020EF
:1050E000304D02000F2810B50CD80D280CD90A48F5
:1050F0001AF0ABFC044618B104210C301AF020FD64
:10510000204610BD1328F2D009B10448F0E7BDE8ED
:1051100010400220FFF7CEBF4C0700209C06002065
:1051200070B5C6683378B6F8014083B90F212046C0
:1051300003F036FAF378054650B90A4A118831B9B6
:105140006FEA04506FEA10501080074A137070BD68
:105150004372012103F01CF92846BDE8704003F0BA
:10516000EDB800BFFC260020FB27002010B5084C3E
:105170000146062294F86F0003F0E0FC38B994F879
:105180006F000449BDE81040052203F0D7BC10BDF4
:1051900000000020AF4C020030B502EBC303044610
:1051A00087B008469A4202D16FF05E0016E01146C1
:1051B00011F8085BA54217D1038A517899420FD99B
:1051C000CDE90334094B029300231846CDE900339F
:1051D000074901221AF0E8FD6FF0150007B030BD55
:1051E000536898470020F9E70A46DBE75F4D020065
:1051F000FC27020070B5012186B004460C301AF07D
:10520000C0FC05780D4A002321462846FFF7C4FF5D
:105210005F3011D1268AE0683146FFF79FFE084BC8
:1052200002930023CDE90460CDE9003305490395DD
:10523000022218461AF0B8FD06B070BDBC2B020061
:10524000814D0200FC2702001FB5C36807491B7887
:105250000393074B02930023CDE900330222184643
:105260001AF0A2FD05B05DF804FB00BFFC270200A8
:10527000B34D02001FB501460B481AF0EAFB0B497B
:105280000B481CF0F6FD00280ADA0A4B02930023B3
:105290000390CDE900330849012218461AF084FD35
:1052A00005B05DF804FB00BF4C010020D0010020D8
:1052B00078070020DB4D0200FC27020070B586B0A5
:1052C00005460C46FFF768FF5F3011D1268AE0687B
:1052D0003146FFF743FE074B02930023CDE90460FC
:1052E000CDE9003304490395022218461AF05CFD0B
:1052F00006B070BDF84D0200FC27020070B54B48A7
:1053000086B01AF0BBFB0446002867D000F10C05FC
:1053100028461AF03EFC022804D0042860D0444BF2
:10532000039004E0238A032B09D80393414B029393
:105330000023CDE900334049012218462BE0042127
:1053400028461AF01EFCFF23428806882376238A0B
:10535000C6F30B009A4260830FD0CDE90332374B7E
:1053600002930023CDE900333349012218461AF095
:105370001BFD2046FFF7C0FD1BE00F2103F010F9D5
:10538000054658B9638B03932D4B2B490090CDE90B
:105390000103012203461AF007FDEAE703F04EF984
:1053A000320B20762146284602F082FE284602F083
:1053B000C5FF244BD3F84C3183B1234923481CF05B
:1053C00058FD00280ADA224B029300230390CDE90E
:1053D00000331949012218461AF0E6FC06B070BDE8
:1053E000238A012B02D803931A4BA0E728460221F7
:1053F0001AF0C7FB054600781AF0AEFC10F0020662
:105400000DD1154A1549164840F60C431AF05EF8BE
:1054100086F31188BFF36F8F0323184602DF114A0A
:10542000287804232146FFF749FFA2E74C0100201A
:105430001C4F02001A4E0200FC2702003B4E0200E5
:105440005F4E020000000020D001002078070020FD
:10545000DB4D0200814E02009D4E0200D14E020043
:10546000FF4E0200642B020010B5012104460C30EF
:105470001AF087FB2146034A0078BDE81040072355
:10548000FFF71CBF842B02001FB501210C301AF05E
:1054900078FB03780393064B02930023CDE9003396
:1054A0000449012218461AF07FFC05B05DF804FBA0
:1054B000304F0200FC2702001FB5C368B3F801405B
:1054C0000121204603F06CF8034650B9074A084909
:1054D0000394CDE90102009001221AF065FC04B0AA
:1054E00010BD04B0BDE8104002F028BF524F0200CA
:1054F000FC2702007FB5C3681D788DB9B3F8016041
:105500000F21304603F04CF8044658B9194B1A499C
:105510000396CDE901030090034601221AF044FCF2
:1055200004B070BD294602F033FFA378012B05D0EB
:10553000204604B0BDE8704002F000BFBFF35B8FAF
:105540006368BFF35B8FDB07F2D52046032102F0CF
:105550001FFF03201AF06AFE0028E9D0074B0390D2
:10556000CDE90153044900952B46022228461AF042
:105570001BFCDDE7764F0200FC2702009C4F020077
:105580007FB5C568B5F801600121304603F008F821
:10559000044658B9104B11490396CDE90103009018
:1055A000034601221AF000FC04B070BD2B783BB911
:1055B000D5F80330C0F89530D5F80730C0F89930E9
:1055C0004FF48031201D1AF0D9FB204604B0BDE80D
:1055D000704002F0B3BE00BF524F0200FC27020031
:1055E0002DE9F04F894687B090460646D0B1BFF30B
:1055F0005B8FDFF82CA14FF0000B5AE8004F4AE810
:1056000000B3002BF9D1BFF35B8F27466CB9454B34
:1056100045490396CDE901430094234601222046E3
:105620001AF0C2FB07B0BDE8F08F2046FFF7C4FBBD
:105630003E4D0C2303FB00504288B24226D0204648
:10564000FFF7BAFB0C2303FB005037494388CDF822
:1056500000B0CDE90363364B0122CDE901B35846D2
:105660005B461AF0A1FBBFF35B8F5AE8003F4AE8A4
:105670000072002AF9D1BFF35B8F002BD2D01F46F6
:10568000384607B0BDE8F04FFFF736BCA0450AD05A
:1056900020461AF0D5F9B8F81020D8F80C1004F10B
:1056A0000C001AF044FA2046FFF786FB0C2606FB96
:1056B00000504368ABB1B9F1000F12D12046FFF79B
:1056C0007BFB06FB005001214268D2E90003127AFD
:1056D00003F01F06B1405B09DAB100EB83001AF05A
:1056E0004DFB2046FFF768FB0C2606FB0050836845
:1056F000002BC5D02046FFF75FFB704305F80090F4
:105700002046FFF759FB06FB0055A86818F08EF9F4
:10571000B6E7C94300EB83001AF055FBE1E700BF91
:1057200048010020C24F0200FC270200D80E0020D2
:10573000EA4F02002DE9F04FD0F80C80008A98F86B
:105740000030012202EB8301814287B062D90393CA
:10575000334B02930023CDE90410CDE900333149E6
:1057600018461AF021FB07B0BDE8F08F2E4B2D49EB
:105770000395CDE901030090034601221AF014FBC2
:10578000013698F800309E42EDDA08EB86030F21CF
:10579000B3F80150B3F80370284602F001FF044645
:1057A0000028E3D000F1C00957B1656965B9CDE9BA
:1057B000015B1C4900952B46012228461AF0F4FA99
:1057C000204602F0BBFDDBE7A2692B6863619542CE
:1057D00008BFA361204602F009FC18F027F9C5F8BC
:1057E00000A0236A9BB9C4E90755BFF35B8F59E852
:1057F000003F013B49E80032002AF8D1BFF35B8F3C
:1058000000212046013F02F0FDFBBFB2CCE71D6046
:105810002562EAE70026DFF814B0B246B1E700BF20
:105820001D500200FC270200485002006450020094
:1058300070B5C568B5F8016086B00121304602F048
:10584000AFFE044658B9484B48490396CDE90103D9
:105850000090034601221AF0A7FA06B070BD2B781B
:105860001A2B00F1040619D1C378012B60D14FF433
:10587000804130461AF082FA42040FD4D4F88830BE
:10588000049304A9D4F890300593204603F0E2FC79
:10589000204606B0BDE8704002F050BD2B78002BCA
:1058A00046D1B5F80320A4F8862091B2B5F80520BA
:1058B000A4F88C20B5F80720A4F88E208A1F92B295
:1058C00040F67A40824209D9294A0391CDE9013252
:1058D00026490093022218461AF066FAB4F88C3072
:1058E000B3F5FA7F0AD30393224B02930023CDE949
:1058F00000331E49022218461AF056FAB4F88E20D8
:10590000A2F10A039BB240F676418B420AD91A4BA8
:10591000029300230392CDE9003314490222184672
:105920001AF042FA6FF4805130461AF04CFA17E040
:10593000BFF35B8F6368BFF35B8FDB04F2D52B781B
:10594000202BEFD194F89430002BEBD0013B84F85E
:1059500094304FF42032002304F1400018F0CAFACA
:10596000204602F0F5FF93E7524F0200FC270200A9
:105970007B500200A3500200CA50020008B502F09A
:10598000DDF8BFF35B8F084B1A68BFF35B8F02F043
:105990000B02BFF35B8F53E8001F43E80020002891
:1059A000F9D1BFF35B8F08BDD400002010B5C1E969
:1059B00000239DF808300B720C46FFF7FDF9034BEE
:1059C0000C2202FB00335C6010BD00BFD80E00202B
:1059D000F8B502460B4610481AF037F80446C0B135
:1059E00004210C301AF092F82046FFF7E5F90B4D30
:1059F0000C2707FB0050002646802046FFF7DCF905
:105A000007FB005086602046FFF7D6F907FB0055DC
:105A10006E602046F8BD00BFF4060020D80E0020BE
:105A200070B50C4D06460FCD90B06C460FC40FCD2F
:105A30000FC40FCD0FC495E80F000F2E84E80F00A0
:105A40009BBF10AB03EB8606034856F8400C10B022
:105A500070BD00BFD0280200F6500200034B014683
:105A6000D3F86C0182689268104700BF00000020E4
:105A70002DE9F04300F10C06044685B030461AF0DB
:105A800098F8012105463046B4F810801AF071F8F4
:105A9000238A012B10D803931D4B02930023CDE9D9
:105AA00000331C49012218461AF07EF9204605B041
:105AB000BDE8F043FFF720BA304602211AF061F842
:105AC000074600781AF048F910F0010906460DD192
:105AD000114A1249124841F2360319F0F7FC89F3D2
