:10000000004200208947000035FA010075470000D2
:1000100075470000754700007547000000000000AC
:100020000000000000000000000000004D4800003B
:100030007547000000000000ED4700007547000014
:10004000194A0000A56A0100194A0000194A000077
:10005000194A0000194A0000194A0000194A000014
:10006000194A0000194A0000194A0000194A000004
:10007000194A0000194A0000194A0000194A0000F4
:10008000194A0000194A0000194A0000194A0000E4
:10009000194A0000194A0000194A0000194A0000D4
:1000A000194A0000194A0000194A0000194A0000C4
:1000B000194A0000194A0000194A0000194A0000B4
:1000C000194A0000194A0000194A0000194A0000A4
:0C00D000194A0000194A0000194A0000FB
:1000E00053B94AB9002908BF00281CBF4FF0FF319F
:1000F0004FF0FF3000F00CB8ADF1080C6DE904CE04
:1001000000F018F8DDF804E0DDE9022304B07047E0
:10011000704700BF034611F8012B03F8012B002A9A
:10012000F9D17047034613F8012B002AFBD1181AA6
:10013000013870472DE9F04786468C460846089EF0
:10014000154674461946002B40F0C2808542B2FA2B
:1001500082F245D94AB1C2F1200300FA02FC2EFA1C
:1001600003F3954043EA0C0C94404FEA154EA8B2B5
:10017000BCFBFEF8230C0EFB18CC08FB00F943EA8D
:100180000C43994528D9EB1808F1FF3704D299455B
:1001900002D9A8F102072B44A3EB0903A4B2B3FBD5
:1001A000FEFC0EFB1C330CFB00F044EA0344A042AF
:1001B00014D92C190CF1FF3304D2A04202D9ACF1AE
:1001C00002032C44241A43EA07401EB1D440002302
:1001D00034607360BDE8F0874746DDE76346F1E7CA
:1001E00092BB431B01214FEA154EAFB2B3FBFEFC9D
:1001F000200C0EFB1C330CFB07F840EA0343984528
:1002000062D9EB180CF1FF3004D2984502D9ACF159
:1002100002002B44A3EB0803A4B2B3FBFEFC0EFBCD
:100220001C330CFB07F744EA0344A7424ED92C19B0
:100230000CF1FF3304D2A74202D9ACF102032C44E3
:10024000E41B43EA0040C0E7C2F1200320FA03F1B7
:10025000954090402EFA03F303434FEA154EAFB298
:10026000B1FBFEFC0EFB1C10190C0CFB07F841EA5D
:100270000041884504FA02F422D969180CF1FF30D4
:1002800004D2884502D9ACF102002944A1EB08014F
:100290009BB2B1FBFEFC0EFB1C110CFB07F743EA03
:1002A00001439F420ED9EB180CF1FF3104D29F425B
:1002B00002D9ACF102012B44DB1B41EA004192E779
:1002C0006046E3E76146F7E76046A3E76346B7E7C2
:1002D000834206D916B9002108467BE7C6E900E04B
:1002E000F9E7B3FA83F78FB9834201D3724508D88F
:1002F000BEEB020460EB030301209C461EB9002103
:1003000068E73846FAE7C6E9004CF8E7C7F1200C81
:10031000BB4022FA0CF41C432EFA0CF120FA0CF329
:10032000B84001434FEA14490EFA07F5B3FBF9F858
:100330001FFA84FE09FB18300B0C08FB0EFA43EA87
:1003400000439A4502FA07F240D9E31808F1FF305A
:1003500004D29A4502D9A8F102002344A3EB0A0370
:1003600089B2B3FBF9F809FB183308FB0EFE41EA2A
:1003700003418E452CD9611808F1FF3304D28E4514
:1003800002D9A8F10203214443EA0040A0FB0298ED
:10039000A1EB0E014145CE46434602D306D14D4561
:1003A00004D2B9EB020E68EB04030138002EA6D08C
:1003B000B5EB0E0261EB030101FA0CFC22FA07F324
:1003C0004CEA0303F940C6E9003198E74046C5E727
:1003D0004346D9E7000000002DE9F843D0E907388B
:1003E000856903EB08042F34A5420F46164619D839
:1003F000DFF86C80A3FB080117A3D3E90023FFF704
:100400006FFE0346601BA0FB080123F07F4412A38C
:10041000D3E90023FFF764FE20F07F403C603060AA
:10042000BDE8F883DFF838900BA3D3E90023A5FBE0
:100430000901FFF755FE20F07F440A480A2106A370
:10044000D3E90023E8FB0901FFF74AFE20F07F40D3
:100450003C603060BDE8F8838D49FD1A070000005C
:1004600000CA9A3B00166BF1002800F030812DE99C
:10047000F04FC34C94F85E30DA078DB000F1618123
:10048000627F94F8293004EB820204EB8303166A3E
:10049000DF6A0EB3354615F8020BC0F380100CF07E
:1004A00005FD0368C6F802308388AB8033785B06AD
:1004B00006D5062128460AF025FF002800F04381D2
:1004C0003D4615F8020BC0F380100CF0EFFC0368FA
:1004D000C7F802308388AB80337813F00E0F40F0FA
:1004E0008E8063691BB10C200DB0BDE8F08F0DF05C
:1004F0009BFB8146002800F033810DF0A1FB824672
:10050000002800F02A8110F051FB0546002800F079
:100510002981C06E4FF6FF73AB8405F1100B0028E4
:1005200000F0178105F1600205F15C010AF0F6FEAA
:10053000B5F8583023F4EF6323F0070343F48C73CA
:1005400043F00103A5F8583095F8373003F03F0326
:1005500063F07F0385F8373095F8723023F0070396
:1005600085F8723095F83C3023F00F034FF0000807
:1005700085F83C304FF4C023C5F870312846C5E9F2
:100580001288C5F86C80A5F8708085F83980A5F8C8
:100590002A80C5F82E80C5F85080A5F87681A5F888
:1005A0006C8112F097FD85F83881C5F83C9110F008
:1005B00087FD95F87C3160F3020385F87C3110F0FB
:1005C00085FD95F87C3160F3C50385F87C3195F89D
:1005D000683168F3410385F8683105F1B80012F01D
:1005E0003BFBC4E9159AC4F814B0C5E9028885F844
:1005F00000802D6117F074F8002840F0A680237E5B
:100600000121C3F342030DF12B008DF82B300BF0C9
:1006100021F8024600285CD0797830460FF0E6FCDD
:100620005849594BB4F85C70A0FB0101C0184FF059
:10063000000551A3D3E9002341F10701C4E90255A4
:100640002570FFF74DFD60600CF0EEFB00F109082E
:100650003FB9357805F00F05A5F10105B5FA85F527
:100660006D09207E636865F3000010F001052076B7
:1006700036D0464A0992002010600225444A454F70
:1006800004930BAE019305920321CDE90200069479
:1006900043460090089607972A460B950CF062FA9D
:1006A00031460DF055FBA0B93B4905914AF2D833CC
:1006B0000093CDE90300CDE9010007970896069461
:1006C0004346012203210B950CF018FA2EE00FF09F
:1006D000E1BB6369002B3FF406AF0FF097FB02E725
:1006E0002A4A2E48049303F2471306940295912157
:1006F0001360A7FB000301FB0731264B0793244B34
:1007000005934FF6FF730992022703930BAE1AA3CA
:10071000D3E900230B970896FFF7E2FC4346CDE9A7
:1007200000503A46284603210CF01CFA31460DF0E1
:100730000FFB0028CDD194F85E3043F0010384F81C
:100740005E300020D0E61220CEE60FF05FFB0320E3
:10075000CAE605F16400E866E4E648460DF06AFA88
:100760000720C1E650460DF071FA48460DF062FAD6
:10077000F6E700BFAFF300808D49FD1A07000000C7
:10078000401B002000CA9A3B8C49FD1A341B0020F4
:1007900069000100C5CF000071FB0000002AE7845A
:1007A00070B5037E8AB0C3F342030D4604460121AF
:1007B0000DF1230016468DF823300AF04BFF7178B7
:1007C000024628460FF012FC1F49204AA0FB0131C7
:1007D000981841F107011AA3D3E90023FFF780FC21
:1007E00063689842054621D21B1A00220192184ADA
:1007F0000293184BA21AA3FB023202219209002392
:100800000A4409AE099114490591CDE90333032146
:10081000D2B20696009318460CF004FA31460DF059
:1008200097FA38B9656000200AB070BDFBD9C21ACA
:100830000023DBE70C200AB070BD00BFAFF30080DF
:100840008D49FD1A0700000000CA9A3B8C49FD1A29
:10085000401B0020ABAAAAAAC5CF000000000000E0
:1008600038B5194C9DF810E094F838C01CF001051B
:1008700023D163F3420C400194F82630E1854FEA1E
:10088000CE0E0EF0180E00F0200040EA0E0023F00D
:10089000380303430D4884F826309121A2FB00035E
:1008A00084F838C001FB023105A3D3E90023FFF728
:1008B00017FCC4E90C00284638BD0C25284638BD75
:1008C0008D49FD1A07000000280A0020002AE7844D
:1008D00010B504469DF80800E2834FEA411CC000B1
:1008E000A17D00F018000CF0200C4CEA000C0C4824
:1008F00021F038014CEA010CA3FB0002912184F89D
:1009000016C001FB032104A3D3E90023FFF7E8FB92
:10091000206210BDAFF300808D49FD1A0700000072
:10092000002AE784000000002DE9F047044600F1AA
:10093000280190F8380094F82630514DDFF84491A2
:10094000C0F3400060F386138CB084F826300CF0BE
:10095000BDFA94F82620E38D4B48246102F0790219
:10096000002784F826209121A3FB0002C4E9027726
:10097000277001FB032140A3D3E90023FFF7B0FB5D
:10098000424A636B2363651BA2FB05250933C5F34C
:100990004715984205EB45028FBF636003466060D0
:1009A000276349F8223006460CF03EFA636900F1ED
:1009B00009074FEA450A002B44D00DF12C08AA4440
:1009C00009EB8A030993CDF820800694E38D2E4825
:1009D0004FF00009A3FB0002CDF80C90912101FB20
:1009E0000321636804932A4B07932A4B0593022340
:1009F0000B9321A3D3E90023FFF772FB104619469E
:100A00004FF47A720023FFF76BFB0435EDB2CDE9AA
:100A1000016003213B462A46CDF8009048460CF081
:100A2000A1F841460DF094F940B994F8383043F0FC
:100A3000010384F838300CB0BDE8F0870C200CB00E
:100A4000BDE8F0870DF12C08CDE90A336168434613
:100A50000AAA032001F068F90028B0D10B990E48CA
:100A600005A3D3E90023A1FB0001FFF739FB0A9B93
:100A700020F07F471F44A2E78D49FD1A07000000C0
:100A8000280A0020B81B0020002AE784898888886B
:100A9000C5CF0000D905010000CA9A3B0000000044
:100AA0002DE9F04F05468BB08B4601200221994677
:100AB000144619F017F800220221824601200AF09C
:100AC0007DFC3F494FF4C07228460AF007FC461DE2
:100AD0003C4B0093F6B201954B4632460121002073
:100AE0000CF0FAF810F0FD0F0ED0374A37493848AD
:100AF00040F6B4031EF04EFD002383F31188BFF3CC
:100B00006F8F0323184602DF324BA4FB03482046B5
:100B100029A3D3E900234146FFF7E2FA2E4B20F048
:100B20007F47A7FB03310722E01A02FB071168EB9E
:100B300001014FF47A720023FFF7D2FACDE9017078
:100B4000CDF800B008950695696895F937402348B7
:100B50000491234931EA240128BF01460591214C23
:100B600007944FF6FE7103914B4632460121002057
:100B70000BF0C4FF10F0FD0F0ED0134A13491448B8
:100B800040F6C9031EF006FD002383F31188BFF36E
:100B90006F8F0323184602DFBAF1000F02D10BB0AA
:100BA000BDE8F08F0122022110460BB0BDE8F04FE6
:100BB0000AF004BCAFF300808D49FD1A0700000065
:100BC000680A0020DD0A0100CC35020090360200E0
:100BD000602E020000CA9A3B8D49FD1A256401006F
:100BE000D96501007D0A01002DE9F0418468A28CDD
:100BF0004FF6FF739A428CB044D00546204612F05F
:100C000059FD2B7D012B00F03981022B00F02C8146
:100C1000002B00F00B8194F83861002E40F0278102
:100C20002B8AE78D94F93720CDE90A666BB3002A49
:100C3000C0F271810023A4F87231AB7CA28D03F065
:100C40000303551C012BADB23AD0B4F87631002B1A
:100C500000F01D81AB4240F271815B1B9BB2002210
:100C6000062BA4F87631E28540F20E8194F93730F4
:100C70009342C0F26881002325E09DF827102046AA
:100C800010F002FB0CB0BDE8F081002AB8BF84F878
:100C90005D61AB7CA28D03F00303551C012BADB24B
:100CA0000ED0B4F87231002BCFD0AB4240F2558158
:100CB0005B1BA4F87231B4F87631002BCAD102E084
:100CC0000023A4F8763194F83C2063F3820284F880
:100CD0003C2029460DF12702204612F037FA7430E5
:100CE000CBD0B4F870312BB1AB4240F205815B1B25
:100CF000A4F87031B4F86C312BB1AB4240F2F38000
:100D00005B1BA4F86C31E58D16B9AF4200F0E280B0
:100D10000135ADB294F8B53013F0010731D1DDE9FA
:100D20000A130A46002B40F0E580002900F0D48029
:100D30001F461846A28C24690694CDE90356053255
:100D4000A54D0290CDE90017D2B2012100200595F2
:100D50000BF068FF10F0FD0F94D00DF023F88442E3
:100D600090D09E4A9E499F4840F282531EF012FC4A
:100D7000002383F31188BFF36F8F0323184602DF2C
:100D800080E794F937206FF30003002A84F8B53028
:100D9000C0F2988094F85800C0F3C00100F007003A
:100DA00016F0BAFA94F8582094F8593002F003017A
:100DB0002831C2F34002C900D14003F003022832B7
:100DC000C3F34003D200DA40E38B03F23F13B1F5E3
:100DD000A07F2CBF5B1803F5A073B2F5A07F2CBFDA
:100DE0009B1803F5A07303447F4A80480721E3FB67
:100DF0000021104676A3D3E90023FFF771F9DDE95E
:100E00000A1320F07F4260686260904235BF171A73
:100E1000801A002000270A46002B8BD157EA010CCC
:100E200088D1002858D019461F4683E794F87230BD
:100E300003F01803182B7FF4EEAE218DB4F86E2169
:100E40008B1D9A42C4BF931F5B1AB4F86A11CCBFC2
:100E50009BB21346994200F09C80A4F86A31A4F832
:100E60006C31A4F87021D6E63D2684F8386131460D
:100E700020460CB0BDE8F04110F006BA0023A4F8FB
:100E80007031A4F86C31C6E6012633461BE7E28CCC
:100E9000052A97BF013240F2E2434FF4FA7392B24F
:100EA00003FB02F2B4F8743142F2107101FB032328
:100EB000013BB3FBF2F39BB2A4F87631002B7FF435
:100EC000C9AE00E794F85900012100F0070016F0C0
:100ED00025FA67E735461DE7002D43D00027114668
:100EE00038463B4626E70023A4F86C31204612F032
:100EF000CFF908E738461DE70CF0E8FE0146A0B33D
:100F00000023A4F87031A38CC3801B2303710068F5
:100F10000CF0AEFEEEE694F85D316BB3013B84F865
:100F20005D3104F1B808404611F0D8FEB8B3404630
:100F300011F0D4FEB8B30023E3857BE608212046F8
:100F400010F0A2F99EE6A7B9D4F860315A0813F060
:100F5000010336D1C4F860218DE63E21204610F011
:100F600093F98FE6002EB9D18CE60123A4F87031F5
:100F7000C0E613460126A6E60AAA0BA92846FFF7F3
:100F80002BFADDE90A231343CBD0237884F85D31B3
:100F9000C7E7B4F8701100297FF43DAE5FE7FF208A
:100FA00010F034F9C3E70246D4E917010AF0CEF98C
:100FB0000028C0D194F83C301B0744BF238DE38543
:100FC00038E642F000421E46C4F860213B467AE60D
:100FD0008D49FD1A07000000390A0100CC350200D6
:100FE000DC360200602E02008C49FD1A00CA9A3BD2
:100FF0002DE9F04F87B0CDE90432BDF844200378E5
:101000000192BDF84820BDF840B0BDF84C80078E75
:10101000009104460292002B00F01381013FBFB201
:1010200094F85800D4F8F490A7EB08039DB2C0F3ED
:10103000C00100F00700039516F06EF9E68C052E4E
:1010400040F2068116FB05F6BBF1050FB6B240F281
:10105000E24A40F2088194F8592094F8581002F0BE
:1010600003032833C2F34002DB00D34001F0030244
:101070002832B3F5A47FC1F340014FEAC20222FA3D
:1010800001F238BF4FF4A473B2F5A47F2CBF9B18B4
:1010900003F5A47303F2D5131844834A834B072145
:1010A000E0FB023118464FF09613E3619623238448
:1010B0007BA3D3E90023FFF713F85D4620F07F40C0
:1010C00040F2E2430AFB06F103FB05F54B1E2B44FD
:1010D000B3FBF5F31FFA83FA05FB0AF3994260604C
:1010E000564680F0A0807048591AA1FB00016CA3FD
:1010F000D3E90023FEF7F4FF20F07F408144638DA5
:10110000B4F8FC201344984494F83730A8EB07084F
:101110004644DB09668500F0B280236C0399624F78
:1011200003FB01F102FB03320B46A16C0A44616C24
:101130008A4294BFC3EB0203C3EB0103A36416F01E
:1011400021FB064694F85C01C0F3420016F01CFB3C
:10115000064405FB06F6564B06F5742606F23F26B6
:10116000A3FB0636B60CA36C26640AFB06F06A08DD
:101170000344963A934228BF1346C4E91123059BC2
:1011800040F2E24808FB03F323650023A0FB0701BC
:10119000C4F8643142A3D3E90023FEF7A1FF049B06
:1011A000A9EB00094348A0FB0330800A08FB00F0CC
:1011B000A0FB07013AA3D3E90023FEF791FFAE1B82
:1011C00020F07F47019B2385029BA4F874312946B8
:1011D0002046A4F826B011F0F5FF374B218D2B44A3
:1011E000881DB3FBF5F39AB29042A4F86E2104D2A5
:1011F000C1F57F41FA310A4492B2009BA4F86A21FA
:1012000013B10023A4F876314B46324639462046C6
:10121000FFF746FC94F8683143F0010384F8683125
:1012200007B0BDE8F08F2048C91AA1FB00011CA33C
:10123000D3E90023FEF754FF20F07F40A9EB00091B
:101240005DE7438D1F44B0F8FC301F44BFB2E7E6B2
:10125000039B013616FB03F6BBF1050FB6B24FF444
:10126000FA7A3FF6F8AE4FF096130BF10105E36101
:1012700096232384ADB20A204FF4FA7322E7049B2D
:101280000948A3FB000106A3D3E90023FEF728FFCA
:1012900020F07F472E46013794E700BFAFF3008070
:1012A0008D49FD1A0700000000CA9A3B8C49FD1ABF
:1012B00083DE1B435917B7D17FC3C901000000006B
:1012C0002DE9F04F134615460A6853F8087BD2F80B
:1012D00000A0B0F82EC00246044652F82EBBD0F84B
:1012E0001E0094F81C900E469178628CA5F808C0F8
:1012F0009970D4F82A306B6091B0D4F83A30C5F8C0
:101300002230ADF83C2094F83E2085F826200E903F
:1013100010AA12E9030005F122030C90ADF8341075
:10132000184605210AF096F995F8273000F03F009D
:1013300060F3050385F8273094F83F30C3F30402C7
:1013400085F82820A28EEA820128C9F380190DD9D8
:1013500003F01F031B3303F01F030B2B06D892B2BD
:10136000063A92B240F67A439A4217D90022CAF856
:10137000082095F82C3062F3000385F82C30012604
:10138000E5682671584621460CF066FC28682E71E7
:10139000294611B0BDE8F04F0CF06ABC336800215B
:1013A0005960E38EB5F816802B8340F2E24303FBCD
:1013B00008F83846638E0B9311F018FF94F83F201D
:1013C00097F85C11520962F3430187F85C1116F03B
:1013D000D9F90A9097F85C01C0F3420016F0D4F9ED
:1013E0000A9A104408FB00F0B74A00F5742000F296
:1013F0003F20A2FB00204FEA5802800C963A286357
:101400006A6394F8312040F2E24302FB03F36B6419
:10141000238FA7F874314146384611F0D3FEAB4B09
:10142000AB4AC7F878214344B3FBF8F39AB2A7F864
:101430006E21298B881D824204DDC1F57F41FA317E
:101440000A4492B2A7F86A216B68C7F86031234654
:1014500013F81C2FC2F340120A92DA0700F10C8134
:10146000BDF83430A4F823300C9884F81E904FF463
:101470008073C4F81F00A383EB8AE3842B8B23853E
:10148000B7F87431638597F85C31C3F3420384F88D
:101490002C3038460FF096FBA882E0802146584653
:1014A00074680CF0D9FBAB8AE3801C2323710A9B80
:1014B000D4F80090002B40F0D3800A9B237721467C
:1014C00048460CF0D5FB95F8499095F848B009F0DE
:1014D00007090BF0070B0121484615F01FFF0BF021
:1014E00003032833CBF3400B09F00302DB0023FA9C
:1014F0000BF32832B3F5A47FC9F340094FEAC202C7
:1015000038BF4FF4A47322FA09F2B2F5A47F2CBFBE
:101510009B1803F5A47303F2D5130344DFF8B491C9
:1015200004466D480721E3FB09014FF09613C5E916
:10153000033363A3D3E90023FEF7D2FD20F07F40FD
:101540007860F3680B982A6B40F2E24101FB0031AE
:1015500001F2B341891A0C1B01200221A8EB0208F9
:10156000002209F02BFF50460EF038FF0246A4FB84
:101570000901144652A3D3E90023FEF7B1FDCDF8CB
:1015800004A0B3685549009120F07F4BA21C3A3B60
:10159000D2B25B44012100200BF09EFB01287AD0DF
:1015A0009AF81830DB0753D438460FF00BFB494B41
:1015B000A8FB0389044642A3D3E9002340464946D9
:1015C000FEF78EFD464BB668464A079220F07F45EF
:1015D000A5FB0331B8EB0300434B05934FF4F873BD
:1015E000069708937B684FF0000ACDE903A34FF0FC
:1015F000070303FB051169EB01014FF47A72002325
:10160000FEF76EFD05343A3EE4B2CDE90150CDF867
:1016100000B033462246012150460BF06FFA10F01D
:10162000FD0F0DD0314A3249324840F2F1131DF01E
:10163000B1FF8AF31188BFF36F8F0323184602DFCF
:1016400001220221104611B0BDE8F04F09F0B6BEEC
:10165000002301220093184611460BF0FBFAA3E782
:1016600095F8273043F0400385F82730281D15F002
:10167000A3F90123288521E71C4A1F491D48FD23A2
:101680001DF088FF002383F31188BFF36F8F0323BE
:10169000184602DFE4E60CF085FB824580D0134A51
:1016A000164914484FF426731DF074FF002383F38A
:1016B0001188BFF36F8F0323184602DF70E700BF66
:1016C0008D49FD1A0700000083DE1B437FC3C9015B
:1016D000404B4C0000CA9A3B8C49FD1AE56301005F
:1016E0008D49FD1AB163010025640100A43B02008D
:1016F00090360200602E0200B4320200003C02006C
:101700002DE9F04F8BB09A46BDF858300593CDE9DE
:101710000301BDF85C309DF85470BDF860800693FD
:10172000002093460FF044F8002800F01E8107F0D7
:101730000105044628460BF0B9FB002D4CD1D4F826
:10174000149004F110030793B9F1000F4BD06669B0
:10175000356896F84800C0F3C00100F0070015F0A6
:10176000DBFDF389B64A00F2CF300344B5480721C8
:10177000E3FB00211046B0A3D3E90023FEF7B0FC41
:1017800020F07F40686094F8381067F3420184F8D5
:10179000381094F827106AF30001DDE9032384F878
:1017A000271014990968A16114998988A183A4F864
:1017B000248004F11000CDF800B00021FFF788F874
:1017C000606315F08DFF002840F0D3802046FFF7BE
:1017D000ABF80BB0BDE8F08F062109F093FD0028AF
:1017E000ADD11220F5E70CF01FFA0790002800F0A9
:1017F000FD800FF0DBF90546002800F0F48014307E
:1018000009F03CFF05F11006002840F0DE800321BE
:1018100005F1180015F03EFC069B2B85E86E059B34
:10182000EB844FF6FF73AB84002800F0E18005F1F4
:10183000600205F15C0109F071FDB5F8583023F440
:10184000EF6323F0070343F48C7343F00103A5F81F
:10185000583095F872304FF0000923F0070385F8EF
:101860007230C5F86C90A5F87090A5F82A90C5F86C
:101870002E9005F1320015F049F895F8373060F3F5
:101880000503012185F837300DF1270015F002FC22
:101890009DF827206C4B85F83990A3FB0213DB08D9
:1018A00003EB4303A2EB830295F83730298DA5F8AB
:1018B000769103F03F0385F8373095F83C30A5F872
:1018C0006C91053223F0070385F83820059A85F8D6
:1018D0003C3040F2E2495D4BA5F8748109FB02F906
:1018E0004FF4C0224B44C5F87021881DB3FBF9F3B7
:1018F0009AB28242A5F86E2102DD063A521A92B2DD
:10190000A5F86A21284611F0E5FB4946284611F062
:1019100059FC4FF00009079BC5F83C3185F8389118
:101920000FF0CEFB95F87C3160F3020385F87C3133
:101930000FF0CCFB95F87C3160F3C50385F87C3162
:1019400095F8683169F3410385F8683105F1B8000D
:1019500011F082F94FF09613C5E907336661C5E9C6
:10196000029985F800902D61F3E60C200BB0BDE8DC
:10197000F08F6569EB6D73B1354A3649364840F2F0
:1019800021431DF007FE002383F31188BFF36F8FFF
:101990000323184602DF05F1500105F14C0009F060
:1019A000C1FC0646002836D02F68EE65D7F83C51BA
:1019B00015B328460CF03EF938460FF0FDF8002329
:1019C000032063610BB0BDE8F08F214A2349224810
:1019D000C1231DF0DFFD89F31188BFF36F8F03234F
:1019E000184602DF13E707980CF024F90720F0E609
:1019F00005F16400E8661AE7154A1949164840F2ED
:101A00002A431DF0C7FD85F31188BFF36F8F0323B1
:101A1000184602DFCDE70E4A11490F4840F2234332
:101A20001DF0B8FD86F31188BFF36F8F03231846AE
:101A300002DFB9E7AFF300808D49FD1A070000000F
:101A40008C49FD1A00CA9A3BABAAAAAA7FC3C90156
:101A5000303C0200A8340200602E0200182F020061
:101A60001C360200000000002DE9F04F04468DB046
:101A7000067F238D406AADF82C30E307C6F3C0170C
:101A800088461546C6F340160A9000F1DF80A77716
:101A9000BDF82C300A98A4F823300027A783C4F897
:101AA0001F00D8F80030D3F800A0EB8AE3842B8B1A
:101AB0002385BAF82430638515F062FE84F82C0083
:101AC000D5F8009048460FF07DF83946A882E080AE
:101AD000484611F08BFBD8F80470206821460CF0C2
:101AE000BBF8AB8AFB801C233C683B71002E40F0A6
:101AF000BD803E77394620460CF0BAF895F848008C
:101B0000B5F816B0D8F80C70614C40F2E243C0F35F
:101B1000C00100F0070003FB0BFB15F0FDFB0022EA
:101B200002213F1A012009F049FC50460EF018FE30
:101B3000A7FB044754A3D3E90023054639462046B2
:101B4000FEF7CEFACDF804A0D8F80830514900913C
:101B500020F07F462A1D3A3BD2B2334401210020B7
:101B60000BF0BAF810F0FD0F0ED04B4A4B494C4821
:101B700040F241331DF00EFD002383F31188BFF3C3
:101B80006F8F0323184602DF4FF0000A53460322EB
:101B90000121CDF800A050460BF05CF848460FF04C
:101BA00011F805463A4838A3D3E90023ABFB0001FE
:101BB000FEF796FA19463B4BD8F8088008933A4B43
:101BC000069340F27133CDF81C900993D9F8043094
:101BD0008346CDE904A3104600234FF47A72FEF742
:101BE0007FFA324B0722A6FB0331CDE902B002FB9C
:101BF0000611E01A67EB01014FF47A720023FEF739
:101C00006FFA0535A8F13A08EDB2CDE90060434618
:101C10002A46012150460AF08DFF10F0FD0F0DD02D
:101C20001D4A1E491E4840F272331DF0B3FC8AF370
:101C30001188BFF36F8F0323184602DF01220221B0
:101C400010460DB0BDE8F04F09F0B8BB124A184974
:101C5000134840F2BD231DF09DFC002383F311883F
:101C6000BFF36F8F0323184602DF10E795F8273084
:101C700043F0400385F82730281D14F09DFE01260F
:101C8000288536E7AFF300808D49FD1A0700000074
:101C900000CA9A3BA1650100303C02009036020068
:101CA000602E0200A5650100D96501008D49FD1A6D
:101CB000B432020000000000052801D00020704767
:101CC00070B500200D460EF085FF044638B190F93E
:101CD0003730002B05DA40682860204670BD0020B0
:101CE00070BD90F858000E4EC0F3C00100F0070020
:101CF00015F012FB0B4A00F265400721E0FB0621BC
:101D0000104605A3D3E90023FEF7EAF920F07F404F
:101D1000E2E700BFAFF300808D49FD1A0700000025
:101D200000CA9A3B8C49FD1A2DE9F04F93B0FF276A
:101D30000B930B1D0A930023CDE90E33054616467F
:101D40008DF83770994608933C4698469A460DF1AF
:101D5000400B614B0593614B03930FAB01930EABAB
:101D60000020009302231093CDF818B00490029045
:101D700033460DF1370229460AF0F2FF022812D04D
:101D8000109BB3B9FF2C25D03368434522D0002FD8
:101D900050D0013FFF24FFB28DF83740D9E72946E4
:101DA00000200BF029F8109B022BF8D0109B002B81
:101DB000E8D04B4A4B494C4840F2D9131DF0EAFB9E
:101DC000002383F31188BFF36F8F0323184602DFCC
:101DD000FF2CD9D19DF83700FF283AD011A9FFF781
:101DE0006BFF0028B5D09DF83730052B18D0FF2C9D
:101DF000DDF83880119B0AD04946404609930BF024
:101E000015F80A9B03EB0A029042099B23D89A46D5
:101E10000F9B9DF837400893C146D6F8008098E79D
:101E200000200EF0D7FE0028E1D090F93730002BCB
:101E3000DDDA8EE72D492A4A2B4840F2E1131DF0E6
:101E4000A9FB87F31188BFF36F8F0323184602DFC6
:101E50009FE7FF2C37D026480721AAFB000301FB90
:101E60000A311BA3D3E90023FEF73AF9044600B177
:101E70003E3408991F4AA1F57423A3F510739342C9
:101E800017D81B480721A9FB000301FB093110A348
:101E9000D3E90023FEF724F9089A174BA3FB02238A
:101EA00004EB93440B9B044400201C6013B0BDE87A
:101EB000F08F01F1E87303F5D43303F5A57309F14D
:101EC000FF390893DDE76FF0090013B0BDE8F08F2C
:101ED00000CA9A3B00000000B1680100B56801002B
:101EE0007C3C0200C03C0200602E0200C83C0200A4
:101EF0008D49FD1ABFBDF07F83DE1B43000000004B
:101F00002DE9F043C668476873683D491A68D0F800
:101F10000090A7F57423A3F510738B4283B080461D
:101F200007D907F1E87707F5D43709F1FF3907F545
:101F3000A57773685168DD8ACDF8049006F1100327
:101F400001AA0220FFF7F0FE00284ED10199A1EB73
:101F500009031B0237D4084649460AF067FF0346C7
:101F600028480721A3FB000201FB032122A3D3E998
:101F70000023FEF7B5F834690444002C346109DB12
:101F800040F2E24305FB03F3A3422FD2E41AA3423B
:101F9000FCD33461D8F800301A48A3EB0903A3FB43
:101FA0000002072101FB032113A3D3E90023FEF75D
:101FB00097F8154BA3FB0737A0EB974020443061FF
:101FC00003B0BDE8F08348460AF030FF03460D48F1
:101FD0000721A3FB000201FB032107A3D3E9002390
:101FE000FEF77EF83469241AC7E73469002CD1D192
:101FF00003B0BDE8F08300BF00CA9A3B00000000B8
:10200000BFBDF07F8D49FD1A83DE1B430000000039
:10201000F0B5C468636883B00546002B4FD117F054
:102020001DF9002017F070F90021084617F05EF93D
:1020300000222521082017F09BF93D4B019301A8B0
:1020400017F082F93B4940F25B6017F037FA237AC8
:10205000C3F3420262F306132372204615F09AFD81
:1020600027682E68384615F0FFF806446A6806F1BE
:102070000901012017F060FB17F04EFC20460EF01E
:10208000B9F9811C3246C9B2384615F0EFF8054659
:1020900000BB204615F082F810B9002003B0F0BD57
:1020A000254A2649264840F229431DF073FA85F354
:1020B0001188BFF36F8F0323184602DFEDE793F813
:1020C0002C309B07ABD01F48214617F085F817F03E
:1020D000A1F9E2E7184A1C49194840F211431DF0E2
:1020E00059FA1A4B0721A5FB030301FB05310EA387
:1020F000D3E90023FDF7F4FF1549024615481DF00A
:1021000049FA002585F31188BFF36F8F0323184622
:1021100002DF1148214617F05FF817F07BF96FF0E6
:102120008B00BBE7AFF3008000CA9A3B00000000C1
:10213000D6BE898E55555500903E020048300200AB
:10214000602E0200F57301003C2F02008D49FD1A3C
:10215000403F0200143F020095770100000000009C
:102160002DE9F041C46894F91630002B8CB0C0F210
:10217000DA80636805460E46002B40F0C980A37DD7
:102180006FF30003A37517F069F8002017F0BCF88F
:102190000021084617F0AAF800222521082017F090
:1021A000E7F801200BF0B2FE0746002800F0A180FE
:1021B00007F11C0017F006F9754B0B930BA817F0ED
:1021C000C3F8744940F25B6017F078F9A07DC0F362
:1021D0004100253015F05CF86F48214616F0FCFFF1
:1021E000A37D9B0602D46368002B7FD0962017F056
:1021F00097FA00231A461946184617F0C9F9D4F879
:1022000000802F68404615F02FF807446A6807F1F0
:102210000901002017F090FA17F07EFB17F028FA5A
:1022200020460EF0A9FA011DC9B240463A4615F003
:102230001DF8804600287DD116B9236A002B31D1C4
:1022400063683BB1554B0122022100209D6009F0DB
:10225000E9F8B8B9204614F0A1FF18B900200CB075
:10226000BDE8F0814E4A4F494F4840F20B231DF024
:1022700091F9002383F31188BFF36F8F032318466E
:1022800002DFEBE7464A4949474840F206231DF082
:1022900081F9002383F31188BFF36F8F032318465E
:1022A00002DFD7E7424A0792424A059240F2F31210
:1022B00000930892CDE90366CDE9016606943B469A
:1022C000032231460AF01AFC10F0FD0FB8D0344A50
:1022D000394935484FF4FA731DF05CF986F31188DB
:1022E000BFF36F8F0323184602DFA9E717F0B0F999
:1022F00085E72B4A31492C484FF4C5731DF04AF944
:1023000087F31188BFF36F8F0323184602DF4FE76F
:10231000636893F82C30D90705D4636893F82C30A0
:102320009A077FF52CAF2648214616F055FF17F087
:1023300071F893E71A4A23491B4840F2E5131DF050
:1023400029F9214B0721A8FB030301FB08310EA348
:10235000D3E90023FDF7C4FE1C4902461C481DF0CA
:1023600019F9002585F31188BFF36F8F03231846F1
:1023700002DF1848214616F02FFF17F04BF86FF0D8
:102380008B006CE7AFF3008000CA9A3B00000000AE
:10239000D6BE898E5555550079240000880300204B
:1023A0004C3F020048300200602E0200502F020015
:1023B0009D81010045820100F4330200DC3E0200F1
:1023C000F57301003C2F02008D49FD1A983F020071
:1023D000143F02009D80010038B5044615F01EFE32
:1023E000A37DA27DC3F34103013303F00303032B59
:1023F00008BF002363F3420214BF03F12500252028
:10240000A27514F045FF63680BB123694BB90AF05C
:102410000BFDC11C002017F003FABDE8384017F08F
:102420007BBA17F02BFA05460AF0FEFCC11C00200F
:1024300017F0F6F917F070FA17F020FA29460AF0AB
:10244000F5FC0B4A03460721A0FB020201FB032116
:1024500005A3D3E90023FDF743FE23691B1A23617B
:1024600038BD00BFAFF3008000CA9A3B00000000F7
:102470008D49FD1A000000002DE9F0478AB004469E
:1024800017F006F8C0B250B914F05CFFB848214606
:1024900016F0A2FE0AB0BDE8F04716F0BBBF17F079
:1024A00019F8054617F01CF9064617F023F917F03E
:1024B000F9F8EDB2074617F0D9F814F043FF002DF4
:1024C000E4D001200BF022FD0546002800F0338106
:1024D00094F8168018F0080FC8F3C10AC8F3C001B9
:1024E00040F0C0802E7F6268FFB206F00F03002A22
:1024F00000F0BD80626892F82C20920700F1B7804E
:10250000072BC3D099B9E27DC6F3801102F0010216
:10251000914240F0AC80062205F11E0104F1080052
:1025200007931FF05EFF079B002840F0A080002B60
:1025300040F02A816B7F063B1F2BA7D804200BF0AD
:10254000E5FC0028A2D017F0EFF9236A064643B94C
:10255000E38B40F2712202FB03F3B0FBF3F203FBC7
:1025600012062268834B52680721A2FB030301FB7A
:1025700002317DA3D3E90023FDF7B2FD6FF442736E
:10258000C3181F3B4FF0000747F1FF32B34272F10F
:102590000002FFF47BAF17F05BF8A67D636816F0CE
:1025A000A7FF05F11E03019309AB0493C6F3801640
:1025B00004F11803029603932B7FC3F380130146A3
:1025C000064600933A460123204615F0F9FE3046B0
:1025D00016F0FEFE16F048FF002840F081816648A4
:1025E000214616F0F9FD626892F82C3043F00103A1
:1025F00082F82C30A37D43F08003A3750BF0A0FC80
:10260000172303714FF6FF73C38095F81CE007464C
:102610003346CEF3401E00F11C0206F1200C1D686B
:1026200058689968DE68D66010336345156050605D
:10263000916002F11002F2D11B6813603B7FBC6015
:102640006EF345133B7717F019F9099BC7E90403AB
:102650000BF076FCF860386839460AB0BDE8F04700
:102660000BF098BCF6B2002E3FF410AF3AE7002B07
:1026700070D16A7F052A7FF609AF252A3FF606AF9B
:1026800008F02101202940F0C1806268002A00F092
:10269000D080062B3FF6FAAE4FF0450929FA03F930
:1026A00019F0010940F0B180012B00F0B380042B38
:1026B0007FF4ECAE6B7F063B1F2B3FF6E7AE18F0C6
:1026C000010F3FF4E3AE16F013FF2E7F0278C6F33E
:1026D0008013B3EBD21F7FF4D9AE0830062205F188
:1026E0001E011FF07EFE00287FF4D0AE6B7F002B12
:1026F0003FF4CCAE636823B106F00F06072E7FF4DB
:10270000C5AE03200BF002FC054600283FF4BEAE28
:102710000BF016FC4FF6FF73EB8005232B71E7B926
:102720007F206B7E287669F3000328686B76294644
:102730000BF030FCAAE6114A1149124840F2C723B7
:102740001CF028FF85F31188BFF36F8F0323184611
:1027500002DFBDE6062B8CD09BE716F093FFC0B2DC
:10276000DFE700BFAFF3008000CA9A3B0000000023
:10277000B58001008D49FD1A8D8201004C3F020099
:10278000DC3E0200602E0200012BE3D16A7F0C2A9E
:102790007FF47CAEC8F38013B3EBD61F4FEAD61993
:1027A00000F0AD80BAF1010F1ED9B9F1000F06D0CB
:1027B00095F8293003F0C003402B3FF4BFAEC8F3B7
:1027C0008018B8EBD61F4FEAD61913D0B9F1000F15
:1027D0003FF45CAE95F8293003F0C003402B7FF442
:1027E00055AE4FF0010985E7C8F38019B9EBD61F44
:1027F0007FF44CAE062205F1240104F118001FF00D
:10280000F0FD90B94FF0000974E76A7F063A1F2A7D
:10281000F8D93BE66A7F0C2A7FF438AEC8F38018FB
:10282000B8EBD61F4FEAD619E4D0BAF1010FCDD8D4
:102830002CE69620079216F073FF079A104616F0C2
:102840005FFE03200BF062FB064600283FF41EAE3D
:102850000BF076FB4FF6FF73F38005233371002FE7
:1028600058D17F23727E33766FF300027276314641
:1028700030680BF08FFB16F03BFE0378032666F3FF
:10288000030303702B7F0278C3F3801363F3C71233
:102890000C2302704370A37DD2B2C3F3801363F3A1
:1028A0008612034603F8022BA269C0F80220A28B0D
:1028B0009A80D5F81E3083606B8C838116F088FD7A
:1028C00016F0D2FD50BB17F027F8A37D1B4843F04C
:1028D00001032146A3750AB0BDE8F04716F07CBCA1
:1028E000174A1849184840F2AF431CF053FE87F3CB
:1028F0001188BFF36F8F0323184602DF6FE60622AD
:1029000005F1240104F118001FF06BFD00283FF4CD
:1029100015AE47E716F0B6FEC3B2A3E7084A094969
:10292000094840F233531CF035FE002383F311882D
:10293000BFF36F8F304602DFC5E700BFC9800100DB
:102940004C3F0200E43E0200602E02000000000046
:102950002DE9F041C468A28A4FF6FF739A4282B013
:1029600000F0DF80054615F03FFE2B89628B208C3E
:10297000A3831A4492B2104494F82730E28380B2C1
:10298000411C21845E064FF00001618304F12201A5
:1029900000F1A18003F03F000B4694F8281000904E
:1029A00004F1290013F0C0FF0646D4E90C31A28BD4
:1029B00002FB0333A26B1344E26B8B4294BFD21829
:1029C00052188A4228BF0A46E263616C226C94F86E
:1029D00049301144616494F8622094F82C10C3F3D8
:1029E000020363F3061112F004024FF0000384F8AF
:1029F0002C10A363236478D016F030FC002016F06E
:102A000083FC201D16F0A0FC2389A17A40F25B60B4
:102A100043EA014116F052FD304614F039FC2146DC
:102A2000594816F0D9FBA08916F07AFE94F8482090
:102A300094F84900C2F3C003002102F0070200F03D
:102A4000070016F0A5FD204615F096FE27682E68B3
:102A5000384614F009FC06446A6806F109010020B2
:102A600016F06AFE804616F02BFF002016F042FF9B
:102A7000E36B94F8490003F12F02636C00F0070048
:102A8000012103EB420516F0B1FC4544054494F8DE
:102A9000490000F00700022825D004280CBF4FF49D
:102AA000BC73282301211D4416F0A2FC284416F013
:102AB000F9FEA18A05313246C9B2384614F0D6FB78
:102AC0000546002834D1204614F068FBD0B9002018
:102AD00002B0BDE8F0810A4603F03F03218D13F0F8
:102AE0006FFF064661E71823DCE7D4E9130108F01D
:102AF0002DFC002880D194F8623043F0040384F860
:102B0000623079E7214A224922484FF4B0731CF021
:102B100041FD85F31188BFF36F8F0323184602DF51
:102B2000D5E71D48214616F057FB16F073FCCEE79B
:102B3000164A1A4917484FF4AB731CF02BFD184B7B
:102B40000721A5FB030301FB05310DA3D3E90023F6
:102B5000FDF7C6FA1349024613481CF01BFD002579
:102B600085F31188BFF36F8F0323184602DF0F48E8
:102B7000214616F031FB16F04DFC6FF08B00A7E7F5
:102B800000CA9A3B00000000E98901002C400200C5
:102B900048300200602E0200F57301003C2F020055
:102BA0008D49FD1A80400200143F0200D5730100D8
:102BB000F0B5C468A28A4FF6FF739A4285B000F060
:102BC0008F80054615F010FD2B89628B208CA38326
:102BD0001A4492B2104494F82730E28380B2411C28
:102BE00021845E064FF00001618304F1220160D46C
:102BF00003F03F000B4694F82810009004F12900E0
:102C000013F092FE0646204603A915F08FFE039BA3
:102C100094F862101A7861F3C3021A70039A94F858
:102C200062301178C3F3400363F38201117016F030
:102C300015FB002016F068FB201D16F085FB23898C
:102C4000A17A40F25B6043EA014116F037FC30465E
:102C500014F01EFB0399204615F03EFE21463A482B
:102C600016F0BAFAE08916F05BFD94F8490000F01E
:102C7000070016F045FC27682E68384614F0F4FA71
:102C800006446A6806F10901012016F055FD16F0A8
:102C900043FEA18A05313246C9B2384614F0E6FA3D
:102CA000054620BB204614F079FA50B9002005B043
:102CB000F0BD0A4603F03F03218D13F081FE064666
:102CC000A1E7224A224923484FF482731CF062FC98
:102CD00085F31188BFF36F8F0323184602DFE5E702
:102CE0001D48214616F078FA16F094FBDEE7174AE5
:102CF0001A491848FA231CF04DFC194B0721A5FB73
:102D0000030301FB05310EA3D3E90023FDF7E8F926
:102D10001449024614481CF03DFC002585F3118837
:102D2000BFF36F8F0323184602DF1048214616F0C9
:102D300053FA16F06FFB6FF08B00B8E7AFF300802B
:102D400000CA9A3B000000000D8801008C40020080
:102D500048300200602E0200F57301003C2F020093
:102D60008D49FD1ADC400200143F0200D5730100BA
:102D70002DE9F043002491B01D46164681463C22C1
:102D80000F4601A8214600941FF023FB3F2DA846C3
:102D900028BF4FF03F084246314668461FF0F1FA1F
:102DA00008F140030DEB0308264808F8404C1CF0DE
:102DB000E4FBDFF89480A54212DC24481CF0DDFB24
:102DC000234938681CF065FF98BB062D0ED1214BB6
:102DD00032681A60B2889A801F4B04221A7014E07D
:102DE000315D40461CF0C9FB0134E4E7032D0CD9EA
:102DF0001A49042230461FF0F4FA30B9164B032268
:102E0000132148461A701DF022FB694614481CF035
:102E1000B4FB294613481CF0B0FB134806211CF0F4
:102E2000ACFB317811481CF0A8FB284611B0BDE876
:102E3000F0830F4938681CF02CFF0028E5D1064BC1
:102E40000522CBE77444020087440200F1470200E8
:102E5000690500202B270020FA2600208D4402005F
:102E600092440200A0440200AA440200C2440200AC
:102E7000580500201FB506240294044C0194BDF8A7
:102E8000184000941EF029F904B010BDD644020089
:102E90007FB50BAB05930393054B02930023CDE95C
:102EA00000330322184600F0C9FE07B05DF804FBAA
:102EB000DD440200F0B504469BB00F461C22002101
:102EC00013A81E4612911FF084FA237807AD032B36
:102ED0004DD8DFE803F00246484A29492846FDF765
:102EE00019F9059563780493A3780393E378029323
:102EF0002379019363790093A379224A1E210AA8BA
:102F00001BF0C4FE20483A460AA91CF036FBB488E0
:102F10000020671E874219DD31680A5C451CAAB192
:102F20005319013BA34211DC4B5D083B012B00F11F
:102F3000020022D8013A1F2A014428BF1F2212A8EA
:102F40001FF01FFA114812A91CF017FB01211048AD
:102F50001CF023F90F4B07221A7004F0CDFF1BB0B1
:102F6000F0BD0D49BAE70D49B8E70D49B6E70D4A7E
:102F70000A2128461BF08AFEB3E7023A1044C9E74B
:102F8000ED4402000F4502003245020051450200A7
:102F90005C2A0200FA260020F4440200FB440200EE
:102FA000054502002D5F020010B50848084C1CF0D2
:102FB000E4FA084800211CF0F0F82378032B03D131
:102FC00003F09EFD0623237010BD00BF6245020082
:102FD000FA260020642A020008B559B9064B0748B2
:102FE00002221A701CF0C9FABDE808400448012109
:102FF0001CF0D3B808BD00BFFA26002076450200B9
:10300000642A02007FB5124A002310685168CDF887
:103010000130CDF80530029303AB03C3906818600C
:1030200003AB0C498DF8003068461023ADF8023030
:10303000ADF8043004F010FF014628B106481CF03A
:103040009CFA07B05DF804FB04481CF096FAF8E718
:1030500060290200B52E00008A450200A04502004A
:103060002DE9F04353488BB01CF0ABF852481CF0EC
:10307000A8F8002003F0A6FA0446002854D14F48CF
:103080004F4EDFF84081DFF84091504F1CF075FA49
:103090000123337000F094F94D4B03934D4B4E498F
:1030A0000094CDE90143032223462046FFF7F0FEBA
:1030B00000F086F9D9F800303A68012808BFC8F84E
:1030C0000000934217D045493B600B68032201334F
:1030D00093FBF2F202EB42029B1A0B608DF8143064
:1030E00000238DF81530ADF8163005A88023ADF813
:1030F000183000F0C7F84FF4A47000211FF006F854
:103100003378013B052BD3D801A252F823F000BF3E
:1031100035310000B1300000B13000006D310000E9
:10312000A33100005B3100002D480BB0BDE8F04337
:103130001CF023BA2B4D2C481CF01FFA0FCD05AC08
:103140000FC42B682360002300931A46194605A874
:1031500004F0D2FA00233370AAE724481CF00DFAD9
:10316000002003F02FFAFFF74DFFF3E720481CF093
:1031700004FA00F05BF840F6CD4000211EF0C6FFD7
:103180001C4800F07FF8D8F8003023B11A481CF032
:10319000F4F90523DFE7002140F6CD401EF0B6FF2D
:1031A000F1E716481CF0E9F9002140F6CD401EF089
:1031B000ADFFCFE7642A02005C2A0200B845020096
:1031C000FA260020500E0020540E0020480E002049
:1031D000B5450200DD440200542802004C0E0020D8
:1031E000CB4502006C290200E2450200FB450200CB
:1031F000194602002B2700203746020054460200E1
:1032000010B508488468A36833B92368064905489F
:10321000BDE810401022184798470F28F5D86FF0E6
:10322000210010BD0C260200FB2600201FB5114C0A
:1032300020461EF01BFC034668B9226803920E4A22
:103240000090CDE901020D4901221BF0D4FF6FF07F
:10325000120004B010BD236803930024084B0293AE
:103260002046CDE900440549234603221BF0C3FF55
:103270002046EEE70C26020084460200E428020005
:10328000A546020030B58BB04379089303790793C4
:10329000C378069383780593437804930378039364
:1032A00000243F4B029305462346CDE900443D49A7
:1032B000032220461BF09FFF2B78012B36D0022BD8
:1032C0004DD0002B5ED1384A36490093CDE901320A
:1032D000184603221BF08FFF28796978AC78EA78CA
:1032E000642311FB00F114FB00F4B1FBF3F1B4FB18
:1032F000F3F4C9B2E4B212FB00F2B2FBF3F2D2B2C1
:103300002A4B00200130102819705C709A7003F16C
:103310000303F7D1FFF774FF00283ED0244B02933C
:103320000023CDE900330390012232E0214B1D49F7
:103330000094CDE901430322234620461BF05BFFA6
:103340002A7902EB8204C2EB022164236401B1FBFF
:10335000F3F1B4FBF3F4C9B2E4B29201CDE7164B3A
:1033600010490094CDE901430322234620461BF077
:1033700042FF2A796423C2EB02222146B2FBF3F218
:10338000D2B2BDE703930D4B0094CDE90143022275
:103390002346044918461BF02EFF0BB030BD00BF7A
:1033A000BF460200E428020000470200FB2600207E
:1033B0007A4702002747020047470200654702009C
:1033C00070B5194C2669A568336823F4006333602F
:1033D0002B684FF480320B212046984733681B0539
:1033E0004FF4006154BFEB682B69204698470E48A4
:1033F0000B211BF00FFFA0B9422000211EF086FE1A
:103400000A4A094C1368013313600B2120461BF054
:1034100001FF08B1012070BD002121201EF076FEC1
:10342000F3E70020F7E700BF4C250200540E002010
:103430002DE9F04F91B08407009302F0040302934A
:10344000C2F3C20303F10103DDF86880039205466D
:103450000E46059340F0BA81041D30B1072909D802
:103460006FF01B0011B0BDE8F08F01F00706344487
:10347000C6F10806009B4FF00009591E4FF0040AE0
:103480004FF0FF330193CDF810904F46CB46534693
:103490000DB1009A22600598002800F3E880984852
:1034A000009A824203D397488242C0F0E080039A98
:1034B000A4EB050E92074FEA9E0000F103810F2F47
:1034C00000F2B180002D00F0058107F140020DEB04
:1034D000020C019A0CF8200C0CF8102C0498013006
:1034E0000490E7E07A285DD84B280ED8472859D8B1
:1034F00029282DD8252852D054D820287AD02338EE
:10350000D0F1000B4BEB000B74E04C382E2849D85F
:10351000DFE800F07048484848484848484848486C
:103520004B484848484848484859484B4B595959CE
:10353000704B6D487048184B184848827F4B48487C
:103540004B487F0000204FF0000B4FF0040A38E09A
:103550002A38C0B2012202FA00F010EA0E0F49D157
:1035600010F0625C2FD110EA020B43D06046013CA0
:103570005444B4FBFAF40AFB04F4002D61D0A3EB2D
:10358000050CA444B4453FF66BAF002868D1042B6A
:1035900047D158F8043B2360043404232AE0019AFD
:1035A000013A01924FF0000B24E011F8010C6C2855
:1035B00034D111F8023C00206C2B8346C5D14FF06A
:1035C000080A5346D3E708F1070828F0070807342C
:1035D000F8E802AB24F0070435B106982044B04265
:1035E0003FF63EAFC4E900AB08344FF0000B4FF09C
:1035F000080A534611F8010F002878D0BBF1000FDC
:103600007FF470AF2528F5D1019B013301934FF072
:10361000010B4FF0040AECE7584694E7002083467C
:10362000A5E7082B02D06FF015001BE708F107088B
:1036300028F00708F8E80223C4E900230834082327
:10364000D8E768B9042B02D108F10408A4E7082BD5
:10365000E9D108F1070828F0070808F10808EDE7A4
:10366000059A013A059258F8042B009210E7039A44
:10367000900720D5A4EB050E4FEA9E004FF0010CF9
:10368000BEF5007FCFD20F2FCDD8F5B107F14002A4
:103690000DEB020EC0B2019A0EF8200C0EF8102CA1
:1036A000BCF1000F3FF41AAF60F07F000EF8200C61
:1036B00009F101090137C5F10802043406924FF6F9
:1036C000DA7E97E74FF0000CDAE7BCF1000F01D08B
:1036D0000136EFE7029802360028EBD10098CDE9D9
:1036E0000631FCF71FFDDDE906310644E2E7631B06
:1036F000B3F5806F97D23DB9A6F10804E018B1E6A2
:10370000EC24020048660200029A28609B082B7095
:103710009DF81030C2B1EB7085F80290B9F1000F3E
:1037200005D008A80022C5F1010C97420ED1C5F1C1
:1037300001030DF120084FF0000A01930DF1300B49
:10374000574512D1601B8DE66B70E5E710F8013B21
:10375000190608D50CEB040EB64503F07F033FF6BF
:103760007FAE04F8013B0132DFE7B9F1000F03D06F
:1037700098F90020002A17DB029BD3B11AF80B201E
:1037800004F8012B0022019B18191044B0423FF6A7
:1037900067AE98F8000004F8010B009903922046E8
:1037A0001EF0EFFD039A14440AF1010A08F1010822
:1037B000C6E798F8002055F822300093029B45F8A0
:1037C00022300098FCF7AEFC421CDCE76FF00D00E5
:1037D00048E600BF014B1860704700BF9001002011
:1037E00080B505460E46174698461AF067FF034611
:1037F0001EF072FEDFF81890044649F80030424689
:1038000030463946A84754F8090000F0D9FF00BFF8
:10381000080000002DE9F047058B04462807904674
:1038200011D4022905F0070540F0CC8020461BF09A
:10383000D9FE78B10138218B042811D8DFE800F0D7
:10384000C2106D85950001290CBF45F0100545F0AB
:103850002005258388F31188BFF36F8FBDE8F087BB
:1038600001F0070AAA4500F0A5800027B9463E46A8
:10387000A368002B00F0BC8041F00801218388F38D
:103880001188BFF36F8FA168002900F0BA800D681E
:10389000002900F0B680D1F8048033465246204615
:1038A000C047002D76D02B6829461D46F0E701F071
:1038B00007035A1F012A1BD8002221F00701062BFB
:1038C000276889B2C4E9002209D13B4603E0628B34
:1038D000013262831B68002BF9D141F00201218380
:1038E00020461BF07FFE00287AD041F0200176E0D0
:1038F000042B0AD121F0070189B2218320461BF055
:1039000071FE10B141F020012183218B01F0070AE3
:10391000AA454FD00027B946AAE7236921F007013D
:1039200041F00601062DD3F8009021832DD1B9F185
:10393000000F3FD041F00801218388F31188BFF3C5
:103940006F8F3A492046C84729E021F007012369D3
:1039500041F0040189B2042DD3F804902183E6D00C
:1039600000273E464FF0040A82E721F00701236951
:1039700041F0050189B2052DD3F808902183D6D0F6
:1039800000273E464FF0050A72E700273E464FF0FB
:10399000060A6DE72B4687E7B9F1000FD1D1EFF3A7
:1039A0001188202383F31288BFF36F8F238B23F0BA
:1039B00008032383258BEA062ED525F010032383E5
:1039C00005F007056669218B002EBFF670AF002356
:1039D0002768C4E9003321F0070141F00101218388
:1039E000218B01F0070AAA454FF000097FF440AF90
:1039F000002F9CD041F00801218388F31188BFF388
:103A00006F8F002FC8D03D68394633465246204656
:103A10001BF014FE2F46F4E7AB067FF51BAF25F035
:103A20002003238305F0070500E700BF69F60100C6
:103A30002DE9F84F814630480F461BF0FDFE064643
:103A400070B92E4CDFF8B8B00546A0464FF0010A19
:103A50005C4507D3B9F1000F02D04FF0010AFDB960
:103A6000BDE8F88F237B83B12368DB680BB1204668
:103A70009847636883F806A023681B6943B96368A5
:103A80000422196820461BF0FCFE01361034DFE7E3
:103A9000204698470028F2D00AFA06F31D43F4E7BF
:103AA000A94695FAA5F4B4FA84F40AFA04F32601B7
:103AB00008EB04146FEA030B25EA0305237B63B1CB
:103AC00058F806301B6993B94644042273682046AF
:103AD000196809EA0B091BF0D4FE002DE1D127B1CA
:103AE0004FF4A47000211EF011FB4D46B7E72046AD
:103AF00098470028F1D1E7E7600E00204C2902002A
:103B00005C290200014B53F8200070476C2A020028
:103B100008B5034608462BB1044A136000F080FA4A
:103B2000002008BD6FF01500FBE700BF94010020E6
:103B30000C4A0D48002310B513700C4A13600C4A50
:103B40004FF400411360FFF7E3FF0A4B0A491846A0
:103B50008B4200D310BD1A1A5C6812110132227117
:103B60001033F5E73127002035F80100580E00200A
:103B70005C0E00204C2902005C29020070B50B4D40
:103B8000297841B90120FFF753FF094C094EB4428F
:103B900002D301232B7070BD63685B791BB123686E
:103BA00020469B6898471034F1E700BF312700207A
:103BB0004C2902005C29020010B5044608481BF09D
:103BC0003BFE5CB1BFF35B8F064B53E8001F01392E
:103BD00043E80012002AF8D1BFF35B8F10BD00BF8D
:103BE000580E00205C0E002070B50A4B0A4C1B6872
:103BF0000A4E05469847A860B44200D370BD63687A
:103C00005B7923B1236829461B6820469847103406
:103C1000F2E700BF940100204C2902005C29020059
:103C2000044A054B9B1AB1EBD30F34BF52F8310055
:103C300000207047542802004C2902002DE9F04F63
:103C400087B004AFD7E90EA93D6B04460E469346F4
:103C50009846BAF1000F1ED0C7F80490CDF8009036
:103C600010217A6B53460020FFF7E2FBB0F5006F9E
:103C7000014611D340F2FF730393194B02930023C3
:103C8000CDE900331749022218461BF01CFE0C3701
:103C9000BD46BDE8F08F514604F007040BF0070B5A
:103CA000E40044EA8B1444EA412444EA05541735FD
:103CB0000D4425F00705ADEB050D04ADBAF1000F7D
:103CC00007D0CDF800907A6B534605F11000FFF74E
:103CD000AFFB43462246314628461BF0DBFDD6E7C4
:103CE000B8470200EC280200406820B1034BC01A1C
:103CF00040F3CF0070474FF0FF3070475428020068
:103D00000EB403B503AB014653F8042B04480193EA
:103D100001F014F802B05DF804EB03B0704700BF87
:103D200003F90100CA0605D48B064CBF02490349BA
:103D3000FFF7E6BF704700BFF1470200F0470200FF
:103D40002DE9F04F87B004469DF844600D4690463B
:103D50009946002E00F0A280159B03F0020A03F0A2
:103D600001030493159B03F0080B03F48073059380
:103D70001BF085FD024600283DD095492046FFF7FF
:103D8000BFFF0746BAF1000F09D0159B13F0440F8F
:103D900033D190492A462046FFF7B2FF0744049BDF
:103DA00053B18D4B8D4953F826208D4B2046002A68
:103DB00008BF1A46FFF7A4FF059B002B49D0BBF1B3
:103DC000000F64D1B8F1000F66D086494246204604
:103DD000FFF796FF0546129B3D44002B6DD1149BC7
:103DE000002B73D1159BDB0700F1EB801599204662
:103DF000FFF798FFD8E00746C4E77B4B1868002818
:103E0000CCD07A4B4FF47A7A1B68B5FBF3F54FF4BC
:103E10006163B5FBF0F100FB11550AFB05F54FF0AE
:103E20003C0CB1FBF3F203FB1211B5FBF0FEB1FB4E
:103E3000FCF300FB1E550CFB13110AFB05F500916A
:103E4000B5FBF0F56A49CDE901E52046FFF758FFDB
:103E5000A4E7BBF1000F1DD0664B674953F826203D
:103E60002046FFF74DFF0546B8F1000F05D05D492C
:103E700042462046FFF744FF0544B9F1000FAAD09F
:103E80005E494A462046FFF73BFF0544A3E74FF053
:103E90000009E1E75D46E7E745469CE7B9F1010F18
:103EA000129B06D1002B66D1149B002B7CD00025E1
:103EB0000CE0002BF8D052485EE05248129B524969
:103EC00022461BF025FB149B002B6AD0DFF83C81B7
:103ED000DFF83C91149F1599102F204628BF10271A
:103EE000FFF720FF4FF0000B5D4547DC139B494671
:103EF0001A782046FFF704FF4FF0010B1BF0070F65
:103F000003D141462046FFF7FBFE5F453DD9139B99
:103F1000494613F80B202046FFF7F2FE0BF1010B88
:103F2000BBF1100FEAD13B49DFF8ECB020464FF06F
:103F3000000AFFF7E5FE5246139B9A5CA2F12001AE
:103F40005F2928BF2E2259462046FFF7D9FE0AF1E5
:103F5000010ABAF1100F1DD01AF0070F03D1414624
:103F60002046FFF7CDFE57455246E5D8414620464C
:103F7000FFF7C6FEEBE7234835469FE7414620465C
:103F8000FFF7BEFE0BF1010BAEE724492046FFF719
:103F9000B7FEC3E7139B3B441393149BDB1B1493A3
:103FA00098D1002E7FF41EAF6268A1682068D2E924
:103FB00000231BF098FC636800221A6007B0BDE87C
:103FC000F08F074A05492046FFF79AFE0EE700BF2B
:103FD000F8470200FC4702007C2A0200515102000F
:103FE000F347020021480200680E0020640E002002
:103FF00005480200902A0200254802002B480200D2
:104000001FF9010003F901003D4D0000384802008E
:10401000304802003A4802003C480200364802009C
:10402000074A00210123904206D8064A01B901231C
:104030001360054B1860704740085B000121F2E7F0
:1040400040420F00640E0020680E0020F8B5074FB4
:104050000D4604464618B44201D12846F8BD14F86E
:10406000011BBB6801485B689847F4E78C25020098
:10407000014B036000207047D82A020070B5064645
:1040800086B00D46002938D08B6805934B680493A1
:104090000B6803930024244B2449029301222346F6
:1040A0002046CDE900441BF0B1FC6B6905932B69F8
:1040B0000493EB6803931E4B1C490094CDE9014324
:1040C0000122234620461BF0A1FCEB690393194B08
:1040D00016490094CDE901430122234620461BF0F6
:1040E00095FCAB690393144B10490094CDE901434F
:1040F0000122234620461BF089FC012E0DD1EFF34F
:104100000583103B03930D4B02930023CDE900334D
:104110000649324618461BF079FC2946304606B05F
:10412000BDE8704019F01EBA794802001C2902004F
:10413000A8480200D7480200E648020014490200DD
:1041400030BFFFF7FDBF00BF2DE9F0410B4EDFF898
:10415000308006EB0807CC1B05463246094920464D
:104160001EF00FF9A01942460021083C1EF031F95B
:104170006C6707F10800BDE8F08100BF0000000097
:10418000040000005C290200054B5A699B689A42B2
:104190001FBF044A536843F080535360704700BF09
:1041A000AC26002000ED00E0F0B585B00024434BC4
:1041B0000293CDE90044234607460E4601224049BA
:1041C00020461BF03EFC3F4B9B6ADB0465D53E4B13
:1041D0003B490094CDE901432046234601221BF0D0
:1041E00030FC1720374B9B6A1D050AD5374B0293CD
:1041F00000231846CDE90033314901221BF021FC90
:104200001820304DAB6A9C051FD50024304B02931B
:10421000012223462046CDE9004429491BF011FC28
:10422000AB6BAA6A10040FD503932A4B2449009460
:10423000CDE901430122234620461BF002FC1FB1B9
:10424000AB6A23F40043AB6219201E4B9B6A5905ED
:104250000AD5214B029300231846CDE900331849B3
:1042600001221BF0EEFB1A20164A936A13F48073A6
:1042700015D01A4B029300231846CDE9003310499C
:1042800001221BF0DEFB1B200E4A936A43F47F439E
:1042900093620023337005B0F0BD1620A2E7926A46
:1042A0009204F1D50E4A06490093CDE90132184631
:1042B00001221BF0C6FB1C20E6E700BF27490200D5
:1042C0001C29020000ED00E03D4902004E490200B9
:1042D000614902007A4902008F490200AA4902009E
:1042E000C24902001FB50024374B02930122234626
:1042F000CDE90044354920461BF0A3FB344B9B6AB3
:104300009A015ED5334B31490094CDE901432046F3
:10431000234601221BF095FB1E202D4B9B6ADB01DF
:104320000AD52D4B029300231846CDE900332749C7
:1043300001221BF086FB1F20254B9B6A1C030AD51C
:10434000264B029300231846CDE900331F49012272
:104350001BF077FB21201E4B9B6A59030AD5204B8B
:10436000029300231846CDE90033184901221BF0BF
:1043700068FB2220164B9B6A9A030AD5194B0293BD
:1043800000231846CDE90033104901221BF059FBE8
:1043900023200F4B9B6ADB030AD5134B02930023A8
:1043A0001846CDE90033094901221BF04AFB2420BD
:1043B000074A936A6FEA03436FEA1343936204B0B8
:1043C00010BD1D20A9E700BFF14902001C29020011
:1043D00000ED00E0094A02001C4A0200364A0200D1
:1043E000544A0200794A0200934A02002DE9F04340
:1043F00085B000244D4B0293CDE90044234680460E
:10440000894616464A49012220461BF01AFB494BB1
:104410009B6ADF0640D5484B0094CDE90143204616
:104420002346434901221BF00CFB1124414B9B6A9C
:104430001D070AD5414B02930023CDE900333C49C7
:10444000012218461BF0FDFA12243A4DAB6A980778
:1044500024D500243A4B36490293CDE90044234643
:10446000012220461BF0EDFA6F6BAB6A190659D595
:10447000344B2F490397CDE9014300942346012291
:1044800020461BF0DEFAB9F1000F03D0AB6A23F02F
:104490008003AB62132403E01024C7E76FF0150715
:1044A000244B9B6ADA070AD5274B02930023CDE9F8
:1044B00000331F49012218461BF0C3FA14241D4B78
:1044C0009B6A9B060AD5214B02930023CDE900335A
:1044D0001749012218461BF0B4FA1524154B9A6AA5
:1044E000D50602D49A6A90070AD55B68190507D5E4
:1044F0004146384600F04AFA10B180F30988022498
:104500000C4B9A6A920642BF5A6A22F400525A62CF
:104510009A6A42F0FF029A6220460023337005B087
:10452000BDE8F0836FF01507B4E700BFBE4A020094
:104530001C29020000ED00E0D44A02004E490200AE
:10454000074B02001F4B0200354B0200C24902001C
:104550002DE9F041754B5F6890B00446C7F308063B
:10456000002383F31188BFF36F8F02F07F40B0F117
:104570007F4F0CD102F00C00082819D16C4A6D490C
:104580000093CDE90132184601221BF05AFA0025AA
:104590002C464FF00008F31E8DF81F80092B00F207
:1045A000AC80DFE803F00BA0A49CAAAAAAAAAAA840
:1045B000120746BF0C461D460125EAE75E4B5D49E2
:1045C0005A4FCDF80080CDE901830023012218461F
:1045D0001BF037FA8DF81F80FE6A16F0020605D030
:1045E000564BCDF80080CDE9018306E0FB6A002B35
:1045F0000BDA534B0096CDE9016300234D490122AC
:1046000018461BF01EFA00223BE0FB6A5B00FAD55D
:104610004C4B48490096CDE90163012233463046B0
:104620001BF00FFA7B69A26943F480737B61BFF3CF
:104630004F8FBFF36F8F7B6932F8022C23F48073A6
:104640007B61BFF34F8FBFF36F8F4DF602739A42BA
:104650000AD0BB6ADBB2002B33D00DF11F0201215F
:104660002046FFF7C3FE3CE023680393364B3149F5
:104670000096CDE901630122334630461BF0E1F993
:1046800022689DF81F30CBB908AE04F120072068DE
:104690006168334603C30834BC421E46F7D10F9B02
:1046A000002D3ED0C3F3080121B96FEA53236FEA0E
:1046B00043230F9308A91046FFF7E0FC10B0BDE8B4
:1046C000F081BB6A13F47F4F05D00DF11F0101206B
:1046D000FFF76AFD05E0BB6AB3F5803F93D3FFF7B0
:1046E00001FE0246CDE70DF11F020021B8E70DF1F2
:1046F0001F010020ECE7154B73E7154A154B0D49D8
:1047000017F4F87F18BF1346103ECDE90336124B5D
:1047100002930023CDE90033012218461BF091F9E2
:1047200071E723F4FF7323F00103C2E700ED00E01B
:10473000824B02001C290200AD4B0200C44B020058
:10474000E54B0200F34B0200124C02002E4C02001B
:10475000694B0200544B0200524C0200044B5A6950
:1047600042F010025A615A6922F008025A617047F9
:1047700000ED00E0EFF30880EFF3098101B5724628
:10478000FFF7E6FE01BD00BF0B4880F3088817F075
:10479000F7FB202080F3118808484FF4046140188B
:1047A00080F30988EFF314800221084380F3148812
:1047B000BFF36F8F00F0B2F80042002040340020B9
:1047C000084B9B6883420BD1EFF3058343B1064B43
:1047D0005A6842F080525A605A6A22F400425A6281
:1047E00019F072BFAC26002000ED00E014498A6881
:1047F0004FF030001044EFF3098C80E8F01F2020C8
:1048000080F31288BFF36F8F0E4F4FF000664A6936
:104810008A603E60506F0C4C2060906F002393675D
:1048200080F3118804B5104600F014F9BDE8044087
:1048300002F1300090E8F01F8CF309887047000007
:10484000AC26002004ED00E0980E00201EF0040FBE
:104850000CBFEFF30880EFF30980816911F8021CA7
:104860000229FFD001B572461BF0E0F801BD00BF80
:1048700040B2002807DB044A4109012300F01F0071
:10488000834042F82130704700E100E040B2002848
:104890000CDB4309064900F01F002033012282404F
:1048A00041F82320BFF34F8FBFF36F8F704700BFD6
:1048B00000E100E0054B420900F01F0053F8222000
:1048C000012303FA00F01040704700BF00E100E050
:1048D00040B20028A8BF00F1604001F10101B8BF5B
:1048E000064B4FEA4111ACBF00F5614000F00F00EC
:1048F000C9B2B4BF195480F80013704714ED00E03A
:10490000044B054A23F07F039360BFF34F8FBFF33F
:104910006F8F70470000000000ED00E008B5FFF762
:10492000EFFF0B4AD2F8883023F47003C2F88830C6
:10493000EFF3148323F0040383F31488BFF36F8F22
:1049400018F0FAFE19F0F4FF00F05AF818F038FFEA
:1049500000ED00E042F8203C009B42F81C3C0A4974
:10496000019B42F8183C029B42F8143C21F00101E3
:104970004FF0807342F8043C42F8081C0023203AB0
:1049800002658367704700BFE1370000094A0346AC
:10499000906870B113F1160F406E05D0A0F140027F
:1049A0009A4205D8834203D2814228BF0020704733
:1049B00000207047AC26002008B515460B4A0C4B6A
:1049C0009060426F1A600E4600F044F82C4686F361
:1049D00009880020034B984720460021002200232D
:1049E000014C20476BFA0100E1370000AC260020A3
:1049F000980E0020014B10221A61704700ED00E074
:104A0000044800232021C2180133272B82F8001309
:104A1000F9D1704700E100E008B5EFF30583064ADD
:104A2000103B02EBC30152F8330049688847BDE8E8
:104A30000840FFF7A9BB00BF4C260200024B034A07
:104A40000348012100F096B800000120000000207A
:104A5000D82A0200426E054B403A1A60044A4021AF
:104A6000C3E901121846012100F08EB89C0E002007
:104A700000000B151FB5144AD2F89030C3F307237A
:104A8000013B98420FD9114B029300230390CDE9CB
:104A9000003318460E4901221BF01AF86FF015007A
:104AA00005B05DF804FBC2F898000B6823F01F0303
:104AB000034343F01003C2F89C308B6843F00103BA
:104AC000C2F8A030ECE700BF00ED00E0694C020046
:104AD00004290200F0B50E4689B01F4604460025A1
:104AE000B54212DA606838B3BFB1431E18420FD026
:104AF000134B02930023CDE90033124903950122A1
:104B000018461AF0E5FF6FF01502104609B0F0BD27
:104B10001F28EDD921680B42EAD1236805931AF0CA
:104B2000C7FFA36805A90343D0B20793FFF7A2FF0D
:104B300010F1160FE7D0421C01350C34D0E700BF4E
:104B40008F4C020004290200044B0522C3F8942074
:104B5000BFF34F8FBFF36F8F704700BF00ED00E0D2
:104B6000BFF35F8F024B0022C3F89420704700BF51
:104B700000ED00E010B5034C01232278FFF7AAFFF7
:104B8000207010BD3327002008B50B4A002312788F
:104B9000FFF7A0FF10F1160F07D0084A0021D2F846
:104BA0009030C3F30723984200DB08BDC2F8980099
:104BB000C2F8A0100130F2E73327002000ED00E03A
:104BC0002DE9F04357485849D0F890300D68C3F3A9
:104BD00007239D4285B000F2A180FFF7C1FF49681D
:104BE0000022954201F10C011AD1504C504F257012
:104BF0006846FFF73DFADFF83C81DFF83C91064656
:104C00000025AE421FD1237846490020D1F89020DC
:104C1000C2F3072293427BDBFFF796FF00204CE0B4
:104C2000C0F8982051F80C3C23F01F03134343F0C5
:104C30001003C0F89C3051F8043C43F00103C0F865
:104C4000A0300132CDE7009800EB05114FEA051CBA
:104C5000CB683B40B3F5000F44D00AD8B3F5001F32
:104C60002ED0B3F5800F34D0B3F5801F10D00135AE
:104C7000C7E7B3F1807F3ED0B3F1007FF7D150F8A2
:104C80000C3088684A681AF013FF40F4802009E06D
:104C900050F80C3088684A681AF00AFF40F08850D3
:104CA00040F43020039001A92078CDE90123FFF7DB
:104CB000E1FE002828DA6FF0150005B0BDE8F083AA
:104CC00050F80C3088684A681AF0F2FE40EA080092
:104CD000E8E750F80C3088684A681AF0E9FE40EAC4
:104CE0000900DFE750F80C3088684A681AF0E0FEE7
:104CF00040F08270D6E750F80C3088684A681AF0A5
:104D0000D7FE40F08870CDE7237801332370AEE7FB
:104D1000C1F89830C1F8A000013377E74FF0FF30B9
:104D2000CBE700BF00ED00E0E42A020033270020BB
:104D30000000F0FF0000081100000206F0B587B087
:104D400007460E4614460021102268461D461DF0F7
:104D500040FB02238DF802302A46054B0193214681
:104D60006846CDE9047619F0BBFF07B0F0BD00BF7F
:104D7000F1FA010008B5024B1B689847002008BDF6
:104D8000A80E0020034B044A1860937843F00203F6
:104D900093707047A80E0020A001002008B50649B6
:104DA000064821F00701C1F1005202F580321AF0E5
:104DB00072FB002008BD00BFC7500020AC0E0020D1
:104DC00070B54169867A0B4D044659B1437ADB07C9
:104DD00006D42C2303FB06535B6A1B689B68984729
:104DE000002363612C20214606FB0050BDE8704083
:104DF0001CF0DCBF24060020024B2C2202FB0030FA
:104E0000704700BF24060020827A064B2C2101FB4C
:104E100002339A6A1B7F1B33801A23F00303B0FB13
:104E2000F3F070472406002038B5074B827A2C2413
:104E300004FB02335B6AD3E901240C601568FFF7B9
:104E4000E3FF04FB005038BD240600202DE9F043A9
:104E500085B005466846039190461C461DF0E2F970
:104E6000DDE90067EFF31189202383F31288BFF394
:104E70006F8F6B8B002B41D02A8B9A4225D9002251
:104E80000023284618F020FE0446F0B189F311886B
:104E9000BFF36F8F039B002B41D032463B466846E1
:104EA0001DF0E5F9A27A264B2C2101FB02332046A6
:104EB0005B6A1B6803A91D68DDE90023A8476061E0
:104EC00070BB2046FFF77CFF24E0698B4B1E6B8391
:104ED00089F31188BFF36F8F2B7F2A8BAC6A1B334A
:104EE00023F00303521A02FB0344154B154AEB1A35
:104EF0009B105343A3722B7FE372CBE789F3118896
:104F0000BFF36F8F23464246284618F0DDFD044666
:104F10000028BFD10024204605B0BDE8F0836361BE
:104F2000012300252381039B6382E27A6560294681
:104F300004F118001DF04DFA63692582E360EAE789
:104F400024060020A38B2EBA70B50C4C2C2500B97A
:104F500070BD037A4668013BDBB20372002BF7D1C8
:104F6000C3604360837A05FB03431B6A13B1984710
:104F70003046ECE7FFF724FFFAE700BF24060020E5
:104F8000044A0123C2F840354FF080420020C2F8A5
:104F90007835704700E0014020B1034B800143F0B9
:104FA00001031847704700BFF02902000E4B40294B
:104FB00070B528BF40210D4C46181D46B04203F184
:104FC000020304D1002305F81130074870BD0278B0
:104FD0001209A25C03F8022C10F8012B02F00F0258
:104FE000A25C03F8012CE9E752270020F64C0200EE
:104FF00030B503788BB0044607AD032B21D8DFE82A
:1050000003F0021A1C1E12492846FBF783F8059587
:1050100063780493A3780393E3780293237901934D
:1050200063790093A3790B4A0B481E2119F02EFED9
:1050300009480BB030BD0949E6E70949E4E70949E9
:10504000E2E7094A0A21284619F020FEDFE700BFFF
:10505000ED4402000F45020034270020F444020012
:10506000FB440200054502002D5F02000378012B7E
:1050700030B513D0022B27D07BB9194B0A4603F168
:10508000100453F8045B42F8045BA342F9D11B7887
:10509000137043884B731B0A8B7330BD104B0A4649
:1050A00003F1100453F8045B42F8045BA342F9D106
:1050B0001B78137043684B73C3F307221B0CCB732D
:1050C0001B0A8A730B74E8E700F1100350F8042BF5
:1050D00041F8042B9842F9D103780B70DDE700BF4B
:1050E000074D020008B51AF03FFE19F0D5F9044B40
:1050F0001B680BB10A209847BDE8084019F0E0B9D9
:10510000B80E002038B5044608481AF002FD0546DE
:1051100048B1631EDBB21F2B96BF054A0021D15C4C
:105120000C301AF071FD284638BD00BF0007002082
:10513000184D02000F2810B50CD80D280CD90A48BC
:105140001AF0E7FC044618B104210C301AF05CFD9B
:10515000204610BD1328F2D009B10448F0E7BDE89D
:1051600010400220FFF7CEBF2C0700207C06002055
:1051700070B5C6683378B6F8014083B90F21204670
:1051800003F08EFAF378054650B90A4A118831B90E
:105190006FEA04506FEA10501080074A137070BD18
:1051A0004372012103F074F92846BDE8704003F012
:1051B00045B900BFE0260020D327002010B5084CD9
:1051C0000146062294F86F0003F038FD38B994F8D0
:1051D0006F000449BDE81040052203F02FBD10BD4B
:1051E00000000020DC4C020030B502EBC303044693
:1051F00087B008469A4202D16FF05E0016E0114671
:1052000011F8085BA54217D1038A517899420FD94A
:10521000CDE90334094B029300231846CDE900334E
:10522000074901221AF024FE6FF0150007B030BDC7
:10523000536898470020F9E70A46DBE7474D02002C
:10524000AC28020070B5012186B004460C301AF07B
:10525000FCFC05780D4A002321462846FFF7C4FFD1
:105260005F3011D1268AE0683146FFF79FFE084B78
:1052700002930023CDE90460CDE90033054903958D
:10528000022218461AF0F4FD06B070BDF82B020099
:10529000694D0200AC2802001FB5C36807491B789E
:1052A0000393074B02930023CDE9003302221846F3
:1052B0001AF0DEFD05B05DF804FB00BFAC2802006B
:1052C0009B4D02001FB501460B481AF026FC0B4906
:1052D0000B481CF027FE00280ADA0A4B0293002331
:1052E0000390CDE900330849012218461AF0C0FDA9
:1052F00005B05DF804FB00BF4C010020C001002098
:1053000058070020C34D0200AC28020070B586B0DB
:1053100005460C46FFF768FF5F3011D1268AE0682A
:105320003146FFF743FE074B02930023CDE90460AB
:10533000CDE9003304490395022218461AF098FD7E
:1053400006B070BDE04D0200AC28020070B54B48BD
:1053500086B01AF0F7FB0446002867D000F10C0570
:1053600028461AF07AFC022804D0042860D0444B66
:10537000039004E0238A032B09D80393414B029343
:105380000023CDE900334049012218462BE00421D7
:1053900028461AF05AFCFF23428806882376238A7F
:1053A000C6F30B009A4260830FD0CDE90332374B2E
:1053B00002930023CDE900333349012218461AF045
:1053C00057FD2046FFF7C0FD1BE00F2103F068F9F1
:1053D000054658B9638B03932D4B2B490090CDE9BB
:1053E0000103012203461AF043FDEAE703F0A6F9A0
:1053F000320B20762146284602F0DAFE284603F0DA
:105400001DF8244BD3F84C3183B1234923481CF0B9
:1054100089FD00280ADA224B029300230390CDE98C
:1054200000331949012218461AF022FD06B070BD5A
:10543000238A012B02D803931A4BA0E728460221A6
:105440001AF003FC054600781AF0EAFC10F0020698
:105450000DD1154A1549164840F60C431AF09AF832
:1054600086F31188BFF36F8F0323184602DF114ABA
:10547000287804232146FFF749FFA2E74C010020CA
:10548000044F0200024E0200AC280200234E02002C
:10549000474E020000000020C001002058070020F5
:1054A000C34D0200694E0200854E0200B94E020053
:1054B000E74E0200A02B020010B5012104460C307B
:1054C0001AF0C3FB2146034A0078BDE810400723C9
:1054D000FFF71CBFC02B02001FB501210C301AF0D2
:1054E000B4FB03780393064B02930023CDE900330A
:1054F0000449012218461AF0BBFC05B05DF804FB14
:10550000184F0200AC2802001FB5C368B3F8014071
:105510000121204603F0C4F8034650B9074A084960
:105520000394CDE90102009001221AF0A1FC04B01D
:1055300010BD04B0BDE8104002F080BF3A4F020039
:10554000AC2802007FB5C3681D788DB9B3F801603F
:105550000F21304603F0A4F8044658B9194B1A49F4
:105560000396CDE901030090034601221AF080FC66
:1055700004B070BD294602F08BFFA378012B05D043
:10558000204604B0BDE8704002F058BFBFF35B8F07
:105590006368BFF35B8FDB07F2D52046032102F07F
:1055A00077FF03201AF0AFFE0028E9D0074B0390E5
:1055B000CDE90153044900952B46022228461AF0F2
:1055C00057FCDDE75E4F0200AC280200844F02006A
:1055D0007FB5C568B5F801600121304603F060F879
:1055E000044658B9104B11490396CDE901030090C8
:1055F000034601221AF03CFC04B070BD2B783BB985
:10560000D5F80330C0F89530D5F80730C0F8993098
:105610004FF48031201D1AF015FC204604B0BDE87F
:10562000704002F00BBF00BF3A4F0200AC280200EE
:105630002DE9F04F894687B090460646D0B1BFF3BA
:105640005B8FDFF82CA14FF0000B5AE8004F4AE8BF
:1056500000B3002BF9D1BFF35B8F27466CB9454BE4
:1056600045490396CDE90143009423460122204693
:105670001AF0FEFB07B0BDE8F08F2046FFF7C4FB31
:105680003E4D0C2303FB00504288B24226D02046F8
:10569000FFF7BAFB0C2303FB005037494388CDF8D2
:1056A00000B0CDE90363364B0122CDE901B3584682
:1056B0005B461AF0DDFBBFF35B8F5AE8003F4AE818
:1056C0000072002AF9D1BFF35B8F002BD2D01F46A6
:1056D000384607B0BDE8F04FFFF736BCA0450AD00A
:1056E00020461AF011FAB8F81020D8F80C1004F17E
:1056F0000C001AF080FA2046FFF786FB0C2606FB0A
:1057000000504368ABB1B9F1000F12D12046FFF74A
:105710007BFB06FB005001214268D2E90003127AAC
:1057200003F01F06B1405B09DAB100EB83001AF009
:1057300089FB2046FFF768FB0C2606FB00508368B8
:10574000002BC5D02046FFF75FFB704305F80090A3
:105750002046FFF759FB06FB0055A86818F0E6F94C
:10576000B6E7C94300EB83001AF091FBE1E700BF05
:1057700048010020AA4F0200AC280200BC0E002005
:10578000D24F02002DE9F04FD0F80C80008A98F833
:105790000030012202EB8301814287B062D903937A
:1057A000334B02930023CDE90410CDE90033314996
:1057B00018461AF05DFB07B0BDE8F08F2E4B2D495F
:1057C0000395CDE901030090034601221AF050FB36
:1057D000013698F800309E42EDDA08EB86030F217F
:1057E000B3F80150B3F80370284602F059FF04469D
:1057F0000028E3D000F1C00957B1656965B9CDE96A
:10580000015B1C4900952B46012228461AF030FB0B
:10581000204602F013FEDBE7A2692B686361954224
:1058200008BFA361204602F061FC18F07FF9C5F8BB
:1058300000A0236A9BB9C4E90755BFF35B8F59E801
:10584000003F013B49E80032002AF8D1BFF35B8FEB
:1058500000212046013F02F055FCBFB2CCE71D609D
:105860002562EAE70026DFF814B0B246B1E700BFD0
:1058700005500200AC280200305002004C500200DB
:1058800070B5C568B5F8016086B00121304602F0F8
:1058900007FF044658B9484B48490396CDE9010330
:1058A0000090034601221AF0E3FA06B070BD2B788F
:1058B0001A2B00F1040619D1C378012B60D14FF4E3
:1058C000804130461AF0BEFA42040FD4D4F8883032
:1058D000049304A9D4F890300593204603F03AFDD0
:1058E000204606B0BDE8704002F0A8BD2B78002B22
:1058F00046D1B5F80320A4F8862091B2B5F805206A
:10590000A4F88C20B5F80720A4F88E208A1F92B244
:1059100040F67A40824209D9294A0391CDE9013201
:1059200026490093022218461AF0A2FAB4F88C30E5
:10593000B3F5FA7F0AD30393224B02930023CDE9F8
:1059400000331E49022218461AF092FAB4F88E204B
:10595000A2F10A039BB240F676418B420AD91A4B58
:10596000029300230392CDE9003314490222184622
:105970001AF07EFA6FF4805130461AF088FA17E078
:10598000BFF35B8F6368BFF35B8FDB04F2D52B78CB
:10599000202BEFD194F89430002BEBD0013B84F80E
:1059A00094304FF42032002304F1400018F022FB21
:1059B000204603F04DF893E73A4F0200AC2802006E
:1059C000635002008B500200B250020008B502F092
:1059D000DDF8BFF35B8F084B1A68BFF35B8F02F0F3
:1059E0000B02BFF35B8F53E8001F43E80020002841
:1059F000F9D1BFF35B8F08BDD400002010B5C1E919
:105A000000239DF808300B720C46FFF7FDF9034B9D
:105A10000C2202FB00335C6010BD00BFBC0E0020F6
:105A2000F8B502460B4610481AF073F80446C0B1A8
:105A300004210C301AF0CEF82046FFF7E5F90B4DA3
:105A40000C2707FB0050002646802046FFF7DCF9B4
:105A500007FB005086602046FFF7D6F907FB00558C
:105A60006E602046F8BD00BFD4060020BC0E0020AA
:105A700070B50C4D06460FCD90B06C460FC40FCDDF
:105A80000FC40FCD0FC495E80F000F2E84E80F0050
:105A90009BBF10AB03EB8606034856F8400C10B0D2
:105AA00070BD00BF80290200DE500200034B01469A
:105AB000D3F86C0182689268104700BF0000002094
:105AC0002DE9F04300F10C06044685B030461AF08B
:105AD000D4F8012105463046B4F810801AF0ADF82C
