:10000000004200200546000089F80100F14500008B
:10001000F1450000F1450000F1450000000000003E
:10002000000000000000000000000000C9460000C1
:10003000F14500000000000069460000F1450000A5
:10004000954800002169010095480000954800008E
:10005000954800009548000095480000954800002C
:10006000954800009548000095480000954800001C
:10007000954800009548000095480000954800000C
:1000800095480000954800009548000095480000FC
:1000900095480000954800009548000095480000EC
:1000A00095480000954800009548000095480000DC
:1000B00095480000954800009548000095480000CC
:1000C00095480000954800009548000095480000BC
:0C00D0009548000095480000954800008D
:1000E00053B94AB9002908BF00281CBF4FF0FF319F
:1000F0004FF0FF3000F00CB8ADF1080C6DE904CE04
:1001000000F018F8DDF804E0DDE9022304B07047E0
:10011000704700BF034611F8012B03F8012B002A9A
:10012000F9D17047034613F8012B002AFBD1181AA6
:10013000013870472DE9F04786468C460846089EF0
:10014000154674461946002B40F0C2808542B2FA2B
:1001500082F245D94AB1C2F1200300FA02FC2EFA1C
:1001600003F3954043EA0C0C94404FEA154EA8B2B5
:10017000BCFBFEF8230C0EFB18CC08FB00F943EA8D
:100180000C43994528D9EB1808F1FF3704D299455B
:1001900002D9A8F102072B44A3EB0903A4B2B3FBD5
:1001A000FEFC0EFB1C330CFB00F044EA0344A042AF
:1001B00014D92C190CF1FF3304D2A04202D9ACF1AE
:1001C00002032C44241A43EA07401EB1D440002302
:1001D00034607360BDE8F0874746DDE76346F1E7CA
:1001E00092BB431B01214FEA154EAFB2B3FBFEFC9D
:1001F000200C0EFB1C330CFB07F840EA0343984528
:1002000062D9EB180CF1FF3004D2984502D9ACF159
:1002100002002B44A3EB0803A4B2B3FBFEFC0EFBCD
:100220001C330CFB07F744EA0344A7424ED92C19B0
:100230000CF1FF3304D2A74202D9ACF102032C44E3
:10024000E41B43EA0040C0E7C2F1200320FA03F1B7
:10025000954090402EFA03F303434FEA154EAFB298
:10026000B1FBFEFC0EFB1C10190C0CFB07F841EA5D
:100270000041884504FA02F422D969180CF1FF30D4
:1002800004D2884502D9ACF102002944A1EB08014F
:100290009BB2B1FBFEFC0EFB1C110CFB07F743EA03
:1002A00001439F420ED9EB180CF1FF3104D29F425B
:1002B00002D9ACF102012B44DB1B41EA004192E779
:1002C0006046E3E76146F7E76046A3E76346B7E7C2
:1002D000834206D916B9002108467BE7C6E900E04B
:1002E000F9E7B3FA83F78FB9834201D3724508D88F
:1002F000BEEB020460EB030301209C461EB9002103
:1003000068E73846FAE7C6E9004CF8E7C7F1200C81
:10031000BB4022FA0CF41C432EFA0CF120FA0CF329
:10032000B84001434FEA14490EFA07F5B3FBF9F858
:100330001FFA84FE09FB18300B0C08FB0EFA43EA87
:1003400000439A4502FA07F240D9E31808F1FF305A
:1003500004D29A4502D9A8F102002344A3EB0A0370
:1003600089B2B3FBF9F809FB183308FB0EFE41EA2A
:1003700003418E452CD9611808F1FF3304D28E4514
:1003800002D9A8F10203214443EA0040A0FB0298ED
:10039000A1EB0E014145CE46434602D306D14D4561
:1003A00004D2B9EB020E68EB04030138002EA6D08C
:1003B000B5EB0E0261EB030101FA0CFC22FA07F324
:1003C0004CEA0303F940C6E9003198E74046C5E727
:1003D0004346D9E7000000002DE9F843D0E907388B
:1003E000856903EB08042F34A5420F46164619D839
:1003F000DFF86C80A3FB080117A3D3E90023FFF704
:100400006FFE0346601BA0FB080123F07F4412A38C
:10041000D3E90023FFF764FE20F07F403C603060AA
:10042000BDE8F883DFF838900BA3D3E90023A5FBE0
:100430000901FFF755FE20F07F440A480A2106A370
:10044000D3E90023E8FB0901FFF74AFE20F07F40D3
:100450003C603060BDE8F8838D49FD1A070000005C
:1004600000CA9A3B00166BF1002800F030812DE99C
:10047000F04FC34C94F85E30DA078DB000F1618123
:10048000627F94F8293004EB820204EB8303166A3E
:10049000DF6A0EB3354615F8020BC0F380100CF07E
:1004A00043FC0368C6F802308388AB8033785B0670
:1004B00006D5062128460AF063FE002800F0438195
:1004C0003D4615F8020BC0F380100CF02DFC0368BC
:1004D000C7F802308388AB80337813F00E0F40F0FA
:1004E0008E8063691BB10C200DB0BDE8F08F0DF05C
:1004F000D9FA8146002800F033810DF0DFFA8246F8
:10050000002800F02A8110F08FFA0546002800F03C
:100510002981C06E4FF6FF73AB8405F1100B0028E4
:1005200000F0178105F1600205F15C010AF034FE6C
:10053000B5F8583023F4EF6323F0070343F48C73CA
:1005400043F00103A5F8583095F8373003F03F0326
:1005500063F07F0385F8373095F8723023F0070396
:1005600085F8723095F83C3023F00F034FF0000807
:1005700085F83C304FF4C023C5F870312846C5E9F2
:100580001288C5F86C80A5F8708085F83980A5F8C8
:100590002A80C5F82E80C5F85080A5F87681A5F888
:1005A0006C8112F0D5FC85F83881C5F83C9110F0CB
:1005B000C5FC95F87C3160F3020385F87C3110F0BE
:1005C000C3FC95F87C3160F3C50385F87C3195F860
:1005D000683168F3410385F8683105F1B80012F01D
:1005E00079FAC4E9159AC4F814B0C5E9028885F807
:1005F00000802D6116F0B2FF002840F0A680237E17
:100600000121C3F342030DF12B008DF82B300AF0CA
:100610005FFF024600285CD0797830460FF024FC5A
:100620005849594BB4F85C70A0FB0101C0184FF059
:10063000000551A3D3E9002341F10701C4E90255A4
:100640002570FFF74DFD60600CF02CFB00F10908F0
:100650003FB9357805F00F05A5F10105B5FA85F527
:100660006D09207E636865F3000010F001052076B7
:1006700036D0464A0992002010600225444A454F70
:1006800004930BAE019305920321CDE90200069479
:1006900043460090089607972A460B950CF0A0F960
:1006A00031460DF093FAA0B93B4905914AF2D8338F
:1006B0000093CDE90300CDE9010007970896069461
:1006C0004346012203210B950CF056F92EE00FF062
:1006D0001FBB6369002B3FF406AF0FF0D5FA02E7AA
:1006E0002A4A2E48049303F2471306940295912157
:1006F0001360A7FB000301FB0731264B0793244B34
:1007000005934FF6FF730992022703930BAE1AA3CA
:10071000D3E900230B970896FFF7E2FC4346CDE9A7
:1007200000503A46284603210CF05AF931460DF0A4
:100730004DFA0028CDD194F85E3043F0010384F8DF
:100740005E300020D0E61220CEE60FF09DFA0320A6
:10075000CAE605F16400E866E4E648460DF0A8F94B
:100760000720C1E650460DF0AFF948460DF0A0F95C
:10077000F6E700BFAFF300808D49FD1A07000000C7
:100780001C1B002000CA9A3B8C49FD1A101B00203C
:10079000E5FE000041CE0000EDF90000002AE784EC
:1007A00070B5037E8AB0C3F342030D4604460121AF
:1007B0000DF1230016468DF823300AF089FE71787A
:1007C000024628460FF050FB1F49204AA0FB01318A
:1007D000981841F107011AA3D3E90023FFF780FC21
:1007E00063689842054621D21B1A00220192184ADA
:1007F0000293184BA21AA3FB023202219209002392
:100800000A4409AE099114490591CDE90333032146
:10081000D2B20696009318460CF042F931460DF01C
:10082000D5F938B9656000200AB070BDFBD9C21A8D
:100830000023DBE70C200AB070BD00BFAFF30080DF
:100840008D49FD1A0700000000CA9A3B8C49FD1A29
:100850001C1B0020ABAAAAAA41CE00000000000089
:1008600038B5194C9DF810E094F838C01CF001051B
:1008700023D163F3420C400194F82630E1854FEA1E
:10088000CE0E0EF0180E00F0200040EA0E0023F00D
:10089000380303430D4884F826309121A2FB00035E
:1008A00084F838C001FB023105A3D3E90023FFF728
:1008B00017FCC4E90C00284638BD0C25284638BD75
:1008C0008D49FD1A07000000100A0020002AE78465
:1008D00010B504469DF80800E2834FEA411CC000B1
:1008E000A17D00F018000CF0200C4CEA000C0C4824
:1008F00021F038014CEA010CA3FB0002912184F89D
:1009000016C001FB032104A3D3E90023FFF7E8FB92
:10091000206210BDAFF300808D49FD1A0700000072
:10092000002AE784000000002DE9F047044600F1AA
:10093000280190F8380094F82630514DDFF84491A2
:10094000C0F3400060F386138CB084F826300CF0BE
:10095000FBF994F82620E38D4B48246102F07902DC
:10096000002784F826209121A3FB0002C4E9027726
:10097000277001FB032140A3D3E90023FFF7B0FB5D
:10098000424A636B2363651BA2FB05250933C5F34C
:100990004715984205EB45028FBF636003466060D0
:1009A000276349F8223006460CF07CF9636900F1B0
:1009B00009074FEA450A002B44D00DF12C08AA4440
:1009C00009EB8A030993CDF820800694E38D2E4825
:1009D0004FF00009A3FB0002CDF80C90912101FB20
:1009E0000321636804932A4B07932A4B0593022340
:1009F0000B9321A3D3E90023FFF772FB104619469E
:100A00004FF47A720023FFF76BFB0435EDB2CDE9AA
:100A1000016003213B462A46CDF8009048460BF082
:100A2000DFFF41460DF0D2F840B994F8383043F07A
:100A3000010384F838300CB0BDE8F0870C200CB00E
:100A4000BDE8F0870DF12C08CDE90A336168434613
:100A50000AAA032001F068F90028B0D10B990E48CA
:100A600005A3D3E90023A1FB0001FFF739FB0A9B93
:100A700020F07F471F44A2E78D49FD1A07000000C0
:100A8000100A0020941B0020002AE78489888888A7
:100A900041CE00005504010000CA9A3B000000004E
:100AA0002DE9F04F05468BB08B4601200221994677
:100AB000144618F055FF00220221824601200AF058
:100AC000BBFB3F494FF4C07228460AF045FB461D68
:100AD0003C4B0093F6B201954B4632460121002073
:100AE0000CF038F810F0FD0F0ED0374A374938486F
:100AF00040F6B4031EF078FC002383F31188BFF3A3
:100B00006F8F0323184602DF324BA4FB03482046B5
:100B100029A3D3E900234146FFF7E2FA2E4B20F048
:100B20007F47A7FB03310722E01A02FB071168EB9E
:100B300001014FF47A720023FFF7D2FACDE9017078
:100B4000CDF800B008950695696895F937402348B7
:100B50000491234931EA240128BF01460591214C23
:100B600007944FF6FE7103914B4632460121002057
:100B70000BF002FF10F0FD0F0ED0134A134914487A
:100B800040F6C9031EF030FC002383F31188BFF345
:100B90006F8F0323184602DFBAF1000F02D10BB0AA
:100BA000BDE8F08F0122022110460BB0BDE8F04FE6
:100BB0000AF042BBAFF300808D49FD1A0700000028
:100BC000500A002059090100F4330200B834020031
:100BD000882C020000CA9A3B8D49FD1AA1620100CF
:100BE00055640100F90801002DE9F0418468A28CE8
:100BF0004FF6FF739A428CB044D00546204612F05F
:100C000097FC2B7D012B00F03981022B00F02C8109
:100C1000002B00F00B8194F83861002E40F0278102
:100C20002B8AE78D94F93720CDE90A666BB3002A49
:100C3000C0F271810023A4F87231AB7CA28D03F065
:100C40000303551C012BADB23AD0B4F87631002B1A
:100C500000F01D81AB4240F271815B1B9BB2002210
:100C6000062BA4F87631E28540F20E8194F93730F4
:100C70009342C0F26881002325E09DF827102046AA
:100C800010F040FA0CB0BDE8F081002AB8BF84F83B
:100C90005D61AB7CA28D03F00303551C012BADB24B
:100CA0000ED0B4F87231002BCFD0AB4240F2558158
:100CB0005B1BA4F87231B4F87631002BCAD102E084
:100CC0000023A4F8763194F83C2063F3820284F880
:100CD0003C2029460DF12702204612F075F97430A8
:100CE000CBD0B4F870312BB1AB4240F205815B1B25
:100CF000A4F87031B4F86C312BB1AB4240F2F38000
:100D00005B1BA4F86C31E58D16B9AF4200F0E280B0
:100D10000135ADB294F8B53013F0010731D1DDE9FA
:100D20000A130A46002B40F0E580002900F0D48029
:100D30001F461846A28C24690694CDE90356053255
:100D4000A54D0290CDE90017D2B2012100200595F2
:100D50000BF0A6FE10F0FD0F94D00CF061FF844262
:100D600090D09E4A9E499F4840F282531EF03CFB21
:100D7000002383F31188BFF36F8F0323184602DF2C
:100D800080E794F937206FF30003002A84F8B53028
:100D9000C0F2988094F85800C0F3C00100F007003A
:100DA00016F0F8F994F8582094F8593002F003013D
:100DB0002831C2F34002C900D14003F003022832B7
:100DC000C3F34003D200DA40E38B03F23F13B1F5E3
:100DD000A07F2CBF5B1803F5A073B2F5A07F2CBFDA
:100DE0009B1803F5A07303447F4A80480721E3FB67
:100DF0000021104676A3D3E90023FFF771F9DDE95E
:100E00000A1320F07F4260686260904235BF171A73
:100E1000801A002000270A46002B8BD157EA010CCC
:100E200088D1002858D019461F4683E794F87230BD
:100E300003F01803182B7FF4EEAE218DB4F86E2169
:100E40008B1D9A42C4BF931F5B1AB4F86A11CCBFC2
:100E50009BB21346994200F09C80A4F86A31A4F832
:100E60006C31A4F87021D6E63D2684F8386131460D
:100E700020460CB0BDE8F04110F044B90023A4F8BE
:100E80007031A4F86C31C6E6012633461BE7E28CCC
:100E9000052A97BF013240F2E2434FF4FA7392B24F
:100EA00003FB02F2B4F8743142F2107101FB032328
:100EB000013BB3FBF2F39BB2A4F87631002B7FF435
:100EC000C9AE00E794F85900012100F0070016F0C0
:100ED00063F967E735461DE7002D43D0002711462B
:100EE00038463B4626E70023A4F86C31204612F032
:100EF0000DF908E738461DE70CF026FE0146A0B3C1
:100F00000023A4F87031A38CC3801B2303710068F5
:100F10000CF0ECFDEEE694F85D316BB3013B84F828
:100F20005D3104F1B808404611F016FEB8B34046F2
:100F300011F012FEB8B30023E3857BE608212046BA
:100F400010F0E0F89EE6A7B9D4F860315A0813F023
:100F5000010336D1C4F860218DE63E21204610F011
:100F6000D1F88FE6002EB9D18CE60123A4F87031B8
:100F7000C0E613460126A6E60AAA0BA92846FFF7F3
:100F80002BFADDE90A231343CBD0237884F85D31B3
:100F9000C7E7B4F8701100297FF43DAE5FE7FF208A
:100FA00010F072F8C3E70246D4E917010AF00CF911
:100FB0000028C0D194F83C301B0744BF238DE38543
:100FC00038E642F000421E46C4F860213B467AE60D
:100FD0008D49FD1A07000000B5080100F433020036
:100FE00004350200882C02008C49FD1A00CA9A3B85
:100FF0002DE9F04F87B0CDE90432BDF844200378E5
:101000000192BDF84820BDF840B0BDF84C80078E75
:10101000009104460292002B00F01381013FBFB201
:1010200094F85800D4F8F490A7EB08039DB2C0F3ED
:10103000C00100F00700039516F0ACF8E68C052E11
:1010400040F2068116FB05F6BBF1050FB6B240F281
:10105000E24A40F2088194F8592094F8581002F0BE
:1010600003032833C2F34002DB00D34001F0030244
:101070002832B3F5A47FC1F340014FEAC20222FA3D
:1010800001F238BF4FF4A473B2F5A47F2CBF9B18B4
:1010900003F5A47303F2D5131844834A834B072145
:1010A000E0FB023118464FF09613E3619623238448
:1010B0007BA3D3E90023FFF713F85D4620F07F40C0
:1010C00040F2E2430AFB06F103FB05F54B1E2B44FD
:1010D000B3FBF5F31FFA83FA05FB0AF3994260604C
:1010E000564680F0A0807048591AA1FB00016CA3FD
:1010F000D3E90023FEF7F4FF20F07F408144638DA5
:10110000B4F8FC201344984494F83730A8EB07084F
:101110004644DB09668500F0B280236C0399624F78
:1011200003FB01F102FB03320B46A16C0A44616C24
:101130008A4294BFC3EB0203C3EB0103A36416F01E
:101140005FFA064694F85C01C0F3420016F05AFAC2
:10115000064405FB06F6564B06F5742606F23F26B6
:10116000A3FB0636B60CA36C26640AFB06F06A08DD
:101170000344963A934228BF1346C4E91123059BC2
:1011800040F2E24808FB03F323650023A0FB0701BC
:10119000C4F8643142A3D3E90023FEF7A1FF049B06
:1011A000A9EB00094348A0FB0330800A08FB00F0CC
:1011B000A0FB07013AA3D3E90023FEF791FFAE1B82
:1011C00020F07F47019B2385029BA4F874312946B8
:1011D0002046A4F826B011F033FF374B218D2B4465
:1011E000881DB3FBF5F39AB29042A4F86E2104D2A5
:1011F000C1F57F41FA310A4492B2009BA4F86A21FA
:1012000013B10023A4F876314B46324639462046C6
:10121000FFF746FC94F8683143F0010384F8683125
:1012200007B0BDE8F08F2048C91AA1FB00011CA33C
:10123000D3E90023FEF754FF20F07F40A9EB00091B
:101240005DE7438D1F44B0F8FC301F44BFB2E7E6B2
:10125000039B013616FB03F6BBF1050FB6B24FF444
:10126000FA7A3FF6F8AE4FF096130BF10105E36101
:1012700096232384ADB20A204FF4FA7322E7049B2D
:101280000948A3FB000106A3D3E90023FEF728FFCA
:1012900020F07F472E46013794E700BFAFF3008070
:1012A0008D49FD1A0700000000CA9A3B8C49FD1ABF
:1012B00083DE1B435917B7D17FC3C901000000006B
:1012C0002DE9F04F134615460A6853F8087BD2F80B
:1012D00000A0B0F82EC00246044652F82EBBD0F84B
:1012E0001E0094F81C900E469178628CA5F808C0F8
:1012F0009970D4F82A306B6091B0D4F83A30C5F8C0
:101300002230ADF83C2094F83E2085F826200E903F
:1013100010AA12E9030005F122030C90ADF8341075
:10132000184605210AF0D4F895F8273000F03F0060
:1013300060F3050385F8273094F83F30C3F30402C7
:1013400085F82820A28EEA820128C9F380190DD9D8
:1013500003F01F031B3303F01F030B2B06D892B2BD
:10136000063A92B240F67A439A4217D90022CAF856
:10137000082095F82C3062F3000385F82C30012604
:10138000E5682671584621460CF0A4FB28682E71AA
:10139000294611B0BDE8F04F0CF0A8BB336800211E
:1013A0005960E38EB5F816802B8340F2E24303FBCD
:1013B00008F83846638E0B9311F056FE94F83F20E0
:1013C00097F85C11520962F3430187F85C1116F03B
:1013D00017F90A9097F85C01C0F3420016F012F971
:1013E0000A9A104408FB00F0B74A00F5742000F296
:1013F0003F20A2FB00204FEA5802800C963A286357
:101400006A6394F8312040F2E24302FB03F36B6419
:10141000238FA7F874314146384611F011FEAB4BCB
:10142000AB4AC7F878214344B3FBF8F39AB2A7F864
:101430006E21298B881D824204DDC1F57F41FA317E
:101440000A4492B2A7F86A216B68C7F86031234654
:1014500013F81C2FC2F340120A92DA0700F10C8134
:10146000BDF83430A4F823300C9884F81E904FF463
:101470008073C4F81F00A383EB8AE3842B8B23853E
:10148000B7F87431638597F85C31C3F3420384F88D
:101490002C3038460FF0D4FAA882E0802146584616
:1014A00074680CF017FBAB8AE3801C2323710A9B42
:1014B000D4F80090002B40F0D3800A9B237721467C
:1014C00048460CF013FB95F8499095F848B009F0A0
:1014D00007090BF0070B0121484615F05DFE0BF0E4
:1014E00003032833CBF3400B09F00302DB0023FA9C
:1014F0000BF32832B3F5A47FC9F340094FEAC202C7
:1015000038BF4FF4A47322FA09F2B2F5A47F2CBFBE
:101510009B1803F5A47303F2D5130344DFF8B491C9
:1015200004466D480721E3FB09014FF09613C5E916
:10153000033363A3D3E90023FEF7D2FD20F07F40FD
:101540007860F3680B982A6B40F2E24101FB0031AE
:1015500001F2B341891A0C1B01200221A8EB0208F9
:10156000002209F069FE50460EF076FE0246A4FB0A
:101570000901144652A3D3E90023FEF7B1FDCDF8CB
:1015800004A0B3685549009120F07F4BA21C3A3B60
:10159000D2B25B44012100200BF0DCFA01287AD0A2
:1015A0009AF81830DB0753D438460FF049FA494B04
:1015B000A8FB0389044642A3D3E9002340464946D9
:1015C000FEF78EFD464BB668464A079220F07F45EF
:1015D000A5FB0331B8EB0300434B05934FF4F873BD
:1015E000069708937B684FF0000ACDE903A34FF0FC
:1015F000070303FB051169EB01014FF47A72002325
:10160000FEF76EFD05343A3EE4B2CDE90150CDF867
:1016100000B033462246012150460BF0ADF910F0E0
:10162000FD0F0DD0314A3249324840F2F1131DF01E
:10163000DBFE8AF31188BFF36F8F0323184602DFA6
:1016400001220221104611B0BDE8F04F09F0F4BDAF
:10165000002301220093184611460BF039FAA3E744
:1016600095F8273043F0400385F82730281D15F002
:10167000E1F80123288521E71C4A1F491D48FD2365
:101680001DF0B2FE002383F31188BFF36F8F032395
:10169000184602DFE4E60CF0C3FA824580D0134A14
:1016A000164914484FF426731DF09EFE002383F361
:1016B0001188BFF36F8F0323184602DF70E700BF66
:1016C0008D49FD1A0700000083DE1B437FC3C9015B
:1016D000404B4C0000CA9A3B8C49FD1A61620100E4
:1016E0008D49FD1A2D620100A1620100CC39020072
:1016F000B8340200882C0200DC300200283A0200D4
:101700002DE9F04F8BB09A46BDF858300593CDE9DE
:101710000301BDF85C309DF85470BDF860800693FD
:10172000002093460EF082FF002800F01E8107F093
:101730000105044628460BF0F7FA002D4CD1D4F8E9
:10174000149004F110030793B9F1000F4BD06669B0
:10175000356896F84800C0F3C00100F0070015F0A6
:1017600019FDF389B64A00F2CF300344B54807218A
:10177000E3FB00211046B0A3D3E90023FEF7B0FC41
:1017800020F07F40686094F8381067F3420184F8D5
:10179000381094F827106AF30001DDE9032384F878
:1017A000271014990968A16114998988A183A4F864
:1017B000248004F11000CDF800B00021FFF788F874
:1017C000606315F0CBFE002840F0D3802046FFF781
:1017D000ABF80BB0BDE8F08F062109F0D1FC002872
:1017E000ADD11220F5E70CF05DF90790002800F06C
:1017F000FD800FF019F90546002800F0F480143040
:1018000009F07AFE05F11006002840F0DE80032181
:1018100005F1180015F07CFB069B2B85E86E059BF7
:10182000EB844FF6FF73AB84002800F0E18005F1F4
:10183000600205F15C0109F0AFFCB5F8583023F403
:10184000EF6323F0070343F48C7343F00103A5F81F
:10185000583095F872304FF0000923F0070385F8EF
:101860007230C5F86C90A5F87090A5F82A90C5F86C
:101870002E9005F1320014F087FF95F8373060F3B1
:101880000503012185F837300DF1270015F040FBE5
:101890009DF827206C4B85F83990A3FB0213DB08D9
:1018A00003EB4303A2EB830295F83730298DA5F8AB
:1018B000769103F03F0385F8373095F83C30A5F872
:1018C0006C91053223F0070385F83820059A85F8D6
:1018D0003C3040F2E2495D4BA5F8748109FB02F906
:1018E0004FF4C0224B44C5F87021881DB3FBF9F3B7
:1018F0009AB28242A5F86E2102DD063A521A92B2DD
:10190000A5F86A21284611F023FB4946284611F024
:1019100097FB4FF00009079BC5F83C3185F83891DB
:101920000FF00CFB95F87C3160F3020385F87C31F5
:101930000FF00AFB95F87C3160F3C50385F87C3124
:1019400095F8683169F3410385F8683105F1B8000D
:1019500011F0C0F84FF09613C5E907336661C5E989
:10196000029985F800902D61F3E60C200BB0BDE8DC
:10197000F08F6569EB6D73B1354A3649364840F2F0
:1019800021431DF031FD002383F31188BFF36F8FD6
:101990000323184602DF05F1500105F14C0009F060
:1019A000FFFB0646002836D02F68EE65D7F83C517D
:1019B00015B328460CF07CF838460FF03BF80023AE
:1019C000032063610BB0BDE8F08F214A2349224810
:1019D000C1231DF009FD89F31188BFF36F8F032325
:1019E000184602DF13E707980CF062F80720F0E6CC
:1019F00005F16400E8661AE7154A1949164840F2ED
:101A00002A431DF0F1FC85F31188BFF36F8F032388
:101A1000184602DFCDE70E4A11490F4840F2234332
:101A20001DF0E2FC86F31188BFF36F8F0323184685
:101A300002DFB9E7AFF300808D49FD1A070000000F
:101A40008C49FD1A00CA9A3BABAAAAAA7FC3C90156
:101A5000583A0200D0320200882C0200402D0200C9
:101A600044340200000000002DE9F04F04468DB020
:101A7000067F238D406AADF82C30E307C6F3C0170C
:101A800088461546C6F340160A9000F1DF80A77716
:101A9000BDF82C300A98A4F823300027A783C4F897
:101AA0001F00D8F80030D3F800A0EB8AE3842B8B1A
:101AB0002385BAF82430638515F0A0FD84F82C0046
:101AC000D5F8009048460EF0BBFF3946A882E0806A
:101AD000484611F0C9FAD8F80470206821460BF086
:101AE000F9FFAB8AFB801C233C683B71002E40F061
:101AF000BD803E77394620460BF0F8FF95F8480048
:101B0000B5F816B0D8F80C70614C40F2E243C0F35F
:101B1000C00100F0070003FB0BFB15F03BFB0022AC
:101B200002213F1A012009F087FB50460EF056FDB6
:101B3000A7FB044754A3D3E90023054639462046B2
:101B4000FEF7CEFACDF804A0D8F80830514900913C
:101B500020F07F462A1D3A3BD2B2334401210020B7
:101B60000AF0F8FF10F0FD0F0ED04B4A4B494C48DD
:101B700040F241331DF038FC002383F31188BFF39A
:101B80006F8F0323184602DF4FF0000A53460322EB
:101B90000121CDF800A050460AF09AFF48460EF009
:101BA0004FFF05463A4838A3D3E90023ABFB0001B9
:101BB000FEF796FA19463B4BD8F8088008933A4B43
:101BC000069340F27133CDF81C900993D9F8043094
:101BD0008346CDE904A3104600234FF47A72FEF742
:101BE0007FFA324B0722A6FB0331CDE902B002FB9C
:101BF0000611E01A67EB01014FF47A720023FEF739
:101C00006FFA0535A8F13A08EDB2CDE90060434618
:101C10002A46012150460AF0CBFE10F0FD0F0DD0F0
:101C20001D4A1E491E4840F272331DF0DDFB8AF347
:101C30001188BFF36F8F0323184602DF01220221B0
:101C400010460DB0BDE8F04F09F0F6BA124A184937
:101C5000134840F2BD231DF0C7FB002383F3118816
:101C6000BFF36F8F0323184602DF10E795F8273084
:101C700043F0400385F82730281D14F0DBFD0126D2
:101C8000288536E7AFF300808D49FD1A0700000074
:101C900000CA9A3B1D640100583A0200B8340200A1
:101CA000882C020021640100556401008D49FD1A51
:101CB000DC30020000000000052801D00020704741
:101CC00070B500200D460EF0C3FE044638B190F901
:101CD0003730002B05DA40682860204670BD0020B0
:101CE00070BD90F858000E4EC0F3C00100F0070020
:101CF00015F050FA0B4A00F265400721E0FB06217F
:101D0000104605A3D3E90023FEF7EAF920F07F404F
:101D1000E2E700BFAFF300808D49FD1A0700000025
:101D200000CA9A3B8C49FD1A2DE9F04F93B0FF276A
:101D30000B930B1D0A930023CDE90E33054616467F
:101D40008DF83770994608933C4698469A460DF1AF
:101D5000400B614B0593614B03930FAB01930EABAB
:101D60000020009302231093CDF818B00490029045
:101D700033460DF1370229460AF030FF022812D00F
:101D8000109BB3B9FF2C25D03368434522D0002FD8
:101D900050D0013FFF24FFB28DF83740D9E72946E4
:101DA00000200AF067FF109B022BF8D0109B002B3D
:101DB000E8D04B4A4B494C4840F2D9131DF014FB74
:101DC000002383F31188BFF36F8F0323184602DFCC
:101DD000FF2CD9D19DF83700FF283AD011A9FFF781
:101DE0006BFF0028B5D09DF83730052B18D0FF2C9D
:101DF000DDF83880119B0AD04946404609930AF025
:101E000053FF0A9B03EB0A029042099B23D89A4690
:101E10000F9B9DF837400893C146D6F8008098E79D
:101E200000200EF015FE0028E1D090F93730002B8D
:101E3000DDDA8EE72D492A4A2B4840F2E1131DF0E6
:101E4000D3FA87F31188BFF36F8F0323184602DF9D
:101E50009FE7FF2C37D026480721AAFB000301FB90
:101E60000A311BA3D3E90023FEF73AF9044600B177
:101E70003E3408991F4AA1F57423A3F510739342C9
:101E800017D81B480721A9FB000301FB093110A348
:101E9000D3E90023FEF724F9089A174BA3FB02238A
:101EA00004EB93440B9B044400201C6013B0BDE87A
:101EB000F08F01F1E87303F5D43303F5A57309F14D
:101EC000FF390893DDE76FF0090013B0BDE8F08F2C
:101ED00000CA9A3B000000002D6701003167010035
:101EE000A43A0200E83A0200882C0200F03A02000C
:101EF0008D49FD1ABFBDF07F83DE1B43000000004B
:101F00002DE9F043C668476873683D491A68D0F800
:101F10000090A7F57423A3F510738B4283B080461D
:101F200007D907F1E87707F5D43709F1FF3907F545
:101F3000A57773685168DD8ACDF8049006F1100327
:101F400001AA0220FFF7F0FE00284ED10199A1EB73
:101F500009031B0237D4084649460AF0A5FE03468A
:101F600028480721A3FB000201FB032122A3D3E998
:101F70000023FEF7B5F834690444002C346109DB12
:101F800040F2E24305FB03F3A3422FD2E41AA3423B
:101F9000FCD33461D8F800301A48A3EB0903A3FB43
:101FA0000002072101FB032113A3D3E90023FEF75D
:101FB00097F8154BA3FB0737A0EB974020443061FF
:101FC00003B0BDE8F08348460AF06EFE03460D48B4
:101FD0000721A3FB000201FB032107A3D3E9002390
:101FE000FEF77EF83469241AC7E73469002CD1D192
:101FF00003B0BDE8F08300BF00CA9A3B00000000B8
:10200000BFBDF07F8D49FD1A83DE1B430000000039
:10201000F0B5C468636883B00546002B4FD117F054
:102020005BF8002017F0AEF80021084617F09CF886
:1020300000222521082017F0D9F83D4B019301A873
:1020400017F0C0F83B4940F25B6017F075F9237A4E
:10205000C3F3420262F306132372204615F0D8FC44
:1020600027682E68384615F03DF806446A6806F180
:102070000901012017F09EFA17F08CFB20460EF0A4
:10208000F7F8811C3246C9B2384615F02DF80546DE
:1020900000BB204614F0C0FF10B9002003B0F0BD13
:1020A000254A2649264840F229431DF09DF985F32B
:1020B0001188BFF36F8F0323184602DFEDE793F813
:1020C0002C309B07ABD01F48214616F0C3FF17F0FA
:1020D000DFF8E2E7184A1C49194840F211431DF0A5
:1020E00083F91A4B0721A5FB030301FB05310EA35E
:1020F000D3E90023FDF7F4FF1549024615481DF00A
:1021000073F9002585F31188BFF36F8F03231846F9
:1021100002DF1148214616F09DFF17F0B9F86FF065
:102120008B00BBE7AFF3008000CA9A3B00000000C1
:10213000D6BE898E55555500B83C0200702E02005F
:10214000882C020071720100642D02008D49FD1A75
:10215000683D02003C3D02001176010000000000D5
:102160002DE9F041C46894F91630002B8CB0C0F210
:10217000DA80636805460E46002B40F0C980A37DD7
:102180006FF30003A37516F0A7FF002016F0FAFF07
:102190000021084616F0E8FF00222521082017F04C
:1021A00025F801200BF0F0FD0746002800F0A18083
:1021B00007F11C0017F044F8754B0B930BA817F0B0
:1021C00001F8744940F25B6017F0B6F8A07DC0F3E7
:1021D0004100253014F09AFF6F48214616F03AFF6F
:1021E000A37D9B0602D46368002B7FD0962017F056
:1021F000D5F900231A461946184617F007F9D4F8FE
:1022000000802F68404614F06DFF07446A6807F1AC
:102210000901002017F0CEF917F0BCFA17F066F9A3
:1022200020460EF0E7F9011DC9B240463A4614F0C7
:102230005BFF804600287DD116B9236A002B31D17F
:1022400063683BB1554B0122022100209D6009F0DB
:1022500027F8B8B9204614F0DFFE18B900200CB0FA
:10226000BDE8F0814E4A4F494F4840F20B231DF024
:10227000BBF8002383F31188BFF36F8F0323184645
:1022800002DFEBE7464A4949474840F206231DF082
:10229000ABF8002383F31188BFF36F8F0323184635
:1022A00002DFD7E7424A0792424A059240F2F31210
:1022B00000930892CDE90366CDE9016606943B469A
:1022C000032231460AF058FB10F0FD0FB8D0344A13
:1022D000394935484FF4FA731DF086F886F31188B2
:1022E000BFF36F8F0323184602DFA9E717F0EEF85C
:1022F00085E72B4A31492C484FF4C5731DF074F81B
:1023000087F31188BFF36F8F0323184602DF4FE76F
:10231000636893F82C30D90705D4636893F82C30A0
:102320009A077FF52CAF2648214616F093FE16F04B
:10233000AFFF93E71A4A23491B4840F2E5131DF00B
:1023400053F8214B0721A8FB030301FB08310EA31F
:10235000D3E90023FDF7C4FE1C4902461C481DF0CA
:1023600043F8002585F31188BFF36F8F03231846C8
:1023700002DF1848214616F06DFE16F089FF6FF057
:102380008B006CE7AFF3008000CA9A3B00000000AE
:10239000D6BE898E55555500792400008003002053
:1023A000743D0200702E0200882C0200782D02007D
:1023B00019800100C18001001C320200043D0200AE
:1023C00071720100642D02008D49FD1AC03D0200AA
:1023D0003C3D0200197F010038B5044615F05CFD54
:1023E000A37DA27DC3F34103013303F00303032B59
:1023F00008BF002363F3420214BF03F12500252028
:10240000A27514F083FE63680BB123694BB90AF01F
:1024100049FCC11C002017F041F9BDE8384017F015
:10242000B9B917F069F905460AF03CFCC11C002057
:1024300017F034F917F0AEF917F05EF929460AF0F3
:1024400033FC0B4A03460721A0FB020201FB0321D8
:1024500005A3D3E90023FDF743FE23691B1A23617B
:1024600038BD00BFAFF3008000CA9A3B00000000F7
:102470008D49FD1A000000002DE9F0478AB004469E
:1024800016F044FFC0B250B914F09AFEB848214685
:1024900016F0E0FD0AB0BDE8F04716F0F9BE16F000
:1024A00057FF054617F05AF8064617F061F817F07F
:1024B00037F8EDB2074617F017F814F081FE002D3B
:1024C000E4D001200BF060FC0546002800F03381C9
:1024D00094F8168018F0080FC8F3C10AC8F3C001B9
:1024E00040F0C0802E7F6268FFB206F00F03002A22
:1024F00000F0BD80626892F82C20920700F1B7804E
:10250000072BC3D099B9E27DC6F3801102F0010216
:10251000914240F0AC80062205F11E0104F1080052
:1025200007931FF088FE079B002840F0A080002B37
:1025300040F02A816B7F063B1F2BA7D804200BF0AD
:1025400023FC0028A2D017F02DF9236A064643B9D0
:10255000E38B40F2712202FB03F3B0FBF3F203FBC7
:1025600012062268834B52680721A2FB030301FB7A
:1025700002317DA3D3E90023FDF7B2FD6FF442736E
:10258000C3181F3B4FF0000747F1FF32B34272F10F
:102590000002FFF47BAF16F099FFA67D636816F08A
:1025A000E5FE05F11E03019309AB0493C6F3801603
:1025B00004F11803029603932B7FC3F380130146A3
:1025C000064600933A460123204615F037FE304672
:1025D00016F03CFE16F086FE002840F08181664829
:1025E000214616F037FD626892F82C3043F0010363
:1025F00082F82C30A37D43F08003A3750BF0DEFB43
:10260000172303714FF6FF73C38095F81CE007464C
:102610003346CEF3401E00F11C0206F1200C1D686B
:1026200058689968DE68D66010336345156050605D
:10263000916002F11002F2D11B6813603B7FBC6015
:102640006EF345133B7717F057F8099BC7E904036E
:102650000BF0B4FBF860386839460AB0BDE8F047C3
:102660000BF0D6BBF6B2002E3FF410AF3AE7002BCA
:1026700070D16A7F052A7FF609AF252A3FF606AF9B
:1026800008F02101202940F0C1806268002A00F092
:10269000D080062B3FF6FAAE4FF0450929FA03F930
:1026A00019F0010940F0B180012B00F0B380042B38
:1026B0007FF4ECAE6B7F063B1F2B3FF6E7AE18F0C6
:1026C000010F3FF4E3AE16F051FE2E7F0278C6F301
:1026D0008013B3EBD21F7FF4D9AE0830062205F188
:1026E0001E011FF0A8FD00287FF4D0AE6B7F002BE9
:1026F0003FF4CCAE636823B106F00F06072E7FF4DB
:10270000C5AE03200BF040FB054600283FF4BEAEEB
:102710000BF054FB4FF6FF73EB8005232B71E7B9E9
:102720007F206B7E287669F3000328686B76294644
:102730000BF06EFBAAE6114A1149124840F2C7237A
:102740001CF052FE85F31188BFF36F8F03231846E8
:1027500002DFBDE6062B8CD09BE716F0D1FEC0B29F
:10276000DFE700BFAFF3008000CA9A3B0000000023
:10277000317F01008D49FD1A09810100743D02007D
:10278000043D0200882C0200012BE3D16A7F0C2A51
:102790007FF47CAEC8F38013B3EBD61F4FEAD61993
:1027A00000F0AD80BAF1010F1ED9B9F1000F06D0CB
:1027B00095F8293003F0C003402B3FF4BFAEC8F3B7
:1027C0008018B8EBD61F4FEAD61913D0B9F1000F15
:1027D0003FF45CAE95F8293003F0C003402B7FF442
:1027E00055AE4FF0010985E7C8F38019B9EBD61F44
:1027F0007FF44CAE062205F1240104F118001FF00D
:102800001AFD90B94FF0000974E76A7F063A1F2A53
:10281000F8D93BE66A7F0C2A7FF438AEC8F38018FB
:10282000B8EBD61F4FEAD619E4D0BAF1010FCDD8D4
:102830002CE69620079216F0B1FE079A104616F085
:102840009DFD03200BF0A0FA064600283FF41EAEC3
:102850000BF0B4FA4FF6FF73F38005233371002FAA
:1028600058D17F23727E33766FF300027276314641
:1028700030680BF0CDFA16F079FD0378032666F385
:10288000030303702B7F0278C3F3801363F3C71233
:102890000C2302704370A37DD2B2C3F3801363F3A1
:1028A0008612034603F8022BA269C0F80220A28B0D
:1028B0009A80D5F81E3083606B8C838116F0C6FC3D
:1028C00016F010FD50BB16F065FFA37D1B4843F0CA
:1028D00001032146A3750AB0BDE8F04716F0BABB64
:1028E000174A1849184840F2AF431CF07DFD87F3A2
:1028F0001188BFF36F8F0323184602DF6FE60622AD
:1029000005F1240104F118001FF095FC00283FF4A4
:1029100015AE47E716F0F4FDC3B2A3E7084A09492C
:10292000094840F233531CF05FFD002383F3118804
:10293000BFF36F8F304602DFC5E700BF457F010060
:10294000743D02000C3D0200882C020000000000D3
:102950002DE9F041C468A28A4FF6FF739A4282B013
:1029600000F0DF80054615F07DFD2B89628B208C01
:10297000A3831A4492B2104494F82730E28380B2C1
:10298000411C21845E064FF00001618304F12201A5
:1029900000F1A18003F03F000B4694F8281000904E
:1029A00004F1290013F0FEFE0646D4E90C31A28B97
:1029B00002FB0333A26B1344E26B8B4294BFD21829
:1029C00052188A4228BF0A46E263616C226C94F86E
:1029D00049301144616494F8622094F82C10C3F3D8
:1029E000020363F3061112F004024FF0000384F8AF
:1029F0002C10A363236478D016F06EFB002016F031
:102A0000C1FB201D16F0DEFB2389A17A40F25B603A
:102A100043EA014116F090FC304614F077FB214662
:102A2000594816F017FBA08916F0B8FD94F8482015
:102A300094F84900C2F3C003002102F0070200F03D
:102A4000070016F0E3FC204615F0D4FD27682E6839
:102A5000384614F047FB06446A6806F10901002075
:102A600016F0A8FD804616F069FE002016F080FEE4
:102A7000E36B94F8490003F12F02636C00F0070048
:102A8000012103EB420516F0EFFB4544054494F8A1
:102A9000490000F00700022825D004280CBF4FF49D
:102AA000BC73282301211D4416F0E0FB284416F0D6
:102AB00037FEA18A05313246C9B2384614F014FBFC
:102AC0000546002834D1204614F0A6FAD0B90020DB
:102AD00002B0BDE8F0810A4603F03F03218D13F0F8
:102AE000ADFE064661E71823DCE7D4E9130108F0E0
:102AF0006BFB002880D194F8623043F0040384F823
:102B0000623079E7214A224922484FF4B0731CF021
:102B10006BFC85F31188BFF36F8F0323184602DF28
:102B2000D5E71D48214616F095FA16F0B1FBCEE721
:102B3000164A1A4917484FF4AB731CF055FC184B52
:102B40000721A5FB030301FB05310DA3D3E90023F6
:102B5000FDF7C6FA1349024613481CF045FC002550
:102B600085F31188BFF36F8F0323184602DF0F48E8
:102B7000214616F06FFA16F08BFB6FF08B00A7E77B
:102B800000CA9A3B0000000065880100543E020024
:102B9000702E0200882C020071720100642D020068
:102BA0008D49FD1AA83E02003C3D02005172010011
:102BB000F0B5C468A28A4FF6FF739A4285B000F060
:102BC0008F80054615F04EFC2B89628B208CA383E9
:102BD0001A4492B2104494F82730E28380B2411C28
:102BE00021845E064FF00001618304F1220160D46C
:102BF00003F03F000B4694F82810009004F12900E0
:102C000013F0D0FD0646204603A915F0CDFD039B29
:102C100094F862101A7861F3C3021A70039A94F858
:102C200062301178C3F3400363F38201117016F030
:102C300053FA002016F0A6FA201D16F0C3FA2389D5
:102C4000A17A40F25B6043EA014116F075FB304621
:102C500014F05CFA0399204615F07CFD21463A48B1
:102C600016F0F8F9E08916F099FC94F8490000F0A4
:102C7000070016F083FB27682E68384614F032FAF6
:102C800006446A6806F10901012016F093FC16F06B
:102C900081FDA18A05313246C9B2384614F024FAC2
:102CA000054620BB204614F0B7F950B9002005B006
:102CB000F0BD0A4603F03F03218D13F0BFFD064629
:102CC000A1E7224A224923484FF482731CF08CFB6F
:102CD00085F31188BFF36F8F0323184602DFE5E702
:102CE0001D48214616F0B6F916F0D2FADEE7174A6B
:102CF0001A491848FA231CF077FB194B0721A5FB4A
:102D0000030301FB05310EA3D3E90023FDF7E8F926
:102D10001449024614481CF067FB002585F311880E
:102D2000BFF36F8F0323184602DF1048214616F0C9
:102D300091F916F0ADFA6FF08B00B8E7AFF30080B1
:102D400000CA9A3B0000000089860100B43E0200E0
:102D5000702E0200882C020071720100642D0200A6
:102D60008D49FD1A043F02003C3D020051720100F2
:102D70002DE9F04107461748DFF85C8015461C46F0
:102D80001CF025FB0026B4420CDC14481CF01FFB91
:102D9000052C0DD92B786BB9114B04221A702046E3
:102DA000BDE8F081A95D40461CF011FB0136EAE761
:102DB000032CF4D90B49042228461FF03CFA0028C2
:102DC000EDD1074B0322132138461A701DF069FA22
:102DD000E5E700BF98420200AA420200AB450200AC
:102DE000D6260020B04202001FB506240294044CEF
:102DF0000194BDF8184000941EF099F804B010BD7D
:102E0000B5420200F0B504469BB00F461C220021DB
:102E100013A81E4612911FF006FA237807AD032B64
:102E20004DD8DFE803F00246484A29492846FDF715
:102E300071F9059563780493A3780393E37802937B
:102E40002379019363790093A379224A1E210AA86A
:102E50001BF05AFE20483A460AA91CF0B8FAB4887A
:102E60000020671E874219DD31680A5C451CAAB143
:102E70005319013BA34211DC4B5D083B012B00F1D0
:102E8000020022D8013A1F2A014428BF1F2212A89B
:102E90001FF0A1F9114812A91CF099FA012110485C
:102EA0001CF0B9F80F4B06221A7004F063FF1BB038
:102EB000F0BD0D49BAE70D49B8E70D49B6E70D4A2F
:102EC0000A2128461BF020FEB3E7023A1044C9E766
:102ED000BC420200DE420200014302002043020025
:102EE00084280200D6260020C3420200CA42020003
:102EF000D4420200E75C020010B50848084C1CF000
:102F000066FA084800211CF086F82378032B03D1C9
:102F100003F034FD0523237010BD00BF31430200D0
:102F2000D62600208C28020008B559B9064B074860
:102F300002221A701CF04BFABDE808400448012137
:102F40001CF069B808BD00BFD6260020454302002A
:102F50008C2802007FB5124A002310685168CDF812
:102F60000130CDF80530029303AB03C390681860BD
:102F700003AB0C498DF8003068461023ADF80230E1
:102F8000ADF8043004F0A6FE014628B106481CF056
:102F90001EFA07B05DF804FB04481CF018FAF8E7C5
:102FA000B0270200052E0000564302006C430200C9
:102FB0002DE9F0432A4889B01CF041F829481CF05B
:102FC0003EF8002003F03CFA20BB2748274E284F4C
:102FD000DFF8A080DFF8A0901CF0F9F9012333702E
:102FE0003378042B25D0052B1AD0012B31D1234D5A
:102FF00023481CF0ECF90FCD03AC0FC42B68236001
:10300000002300931A46194603A804F0B3FA0023DC
:103010003370E5E71B4809B0BDE8F0431CF0D7B9B1
:1030200048461CF0D4F9002003F00AFAFFF792FF9B
:10303000EDE700F03FF838461CF0C9F9404600F0D3
:10304000A7F800F063F8002140F267601EF088FFE7
:10305000DDE700214FF480401EF082FFC0E700BF93
:103060008C2802008428020081430200D62600201A
:10307000E243020007270020C4430200BC270200ED
:10308000AB4302009443020010B508488468A3686B
:1030900033B9236806490548BDE810401022184797
:1030A00098470F28F5D86FF0210010BD602402006A
:1030B000D72600201FB5114C20461EF001FC034608
:1030C00068B9226803920E4A0090CDE901020D49C9
:1030D00001221BF0CEFF6FF0120004B010BD236878
:1030E00003930024084B02932046CDE90044054990
:1030F000234603221BF0BDFF2046EEE760240200BA
:10310000034402003027020024440200F0B51B4CA7
:103110001B4D85B0002627463022002138461FF07F
:1031200082F82B68174A03EB43039918D35A23807C
:103130008B78A370FFF7A8FF50B1134B02930023C5
:103140000390CDE900331149012218461BF091FF8D
:1031500040F26760002101361EF002FF102E04F1DC
:103160000304D9D12B6803220133B3FBF2F202EB43
:1031700042029B1A2B6005B0F0BD00BFD72600208D
:10318000300E0020414502003E440200302702007C
:10319000F0B58BB04379089303790793C37806930E
:1031A00083780593437804930378039305460024BA
:1031B000344B3549029303222346CDE9004420468F
:1031C0001BF057FF2A786F782B79AE78E978032ABD
:1031D00050D8DFE802F002354B4D13FB01F5002417
:1031E00017FB03F713FB06F6284B029364222346D2
:1031F000B7FBF2F7B6FBF2F6B5FBF2F5CDE900440A
:103200002149032220461BF034FF214BFFB2F6B2C6
:10321000EDB20134102C1F705E709D7003F103033A
:10322000F7D1FFF731FFF8B11A4B02930023CDE934
:10323000003303900122144918461BF01AFF13E0D3
:10324000154B11490094CDE9014300231846032290
:103250001BF00FFF114B0C490094CDE901430023F3
:10326000032218461BF005FF0BB0F0BD0C4BF2E734
:103270000C4BF0E70C4B0392CDE901430094002383
:103280000222D8E758440200302702009944020085
:10329000D7260020A8440200BE440200CD4402000C
:1032A000EC4402000F450200304502002DE9F04FCA
:1032B00091B08407009302F004030293C2F3C203A7
:1032C00003F10103DDF86880039205460E4605937D
:1032D00040F0BA81041D30B1072909D86FF01B00F6
:1032E00011B0BDE8F08F01F007063444C6F10806BE
:1032F000009B4FF00009591E4FF0040A4FF0FF33B6
:103300000193CDF810904F46CB4653460DB1009A2D
:1033100022600598002800F3E8809848009A8242CD
:1033200003D397488242C0F0E080039AA4EB050ED5
:1033300092074FEA9E0000F103810F2F00F2B18047
:10334000002D00F0058107F140020DEB020C019AFF
:103350000CF8200C0CF8102C049801300490E7E0D5
:103360007A285DD84B280ED8472859D829282DD837
:10337000252852D054D820287AD02338D0F1000BF9
:103380004BEB000B74E04C382E2849D8DFE800F0F6
:103390007048484848484848484848484B48484882
:1033A000484848484859484B4B595959704B6D4803
:1033B0007048184B184848827F4B48484B487F005C
:1033C00000204FF0000B4FF0040A38E02A38C0B25A
:1033D000012202FA00F010EA0E0F49D110F0625CEF
:1033E0002FD110EA020B43D06046013C5444B4FB99
:1033F000FAF40AFB04F4002D61D0A3EB050CA444FD
:10340000B4453FF66BAF002868D1042B47D158F87C
:10341000043B2360043404232AE0019A013A019218
:103420004FF0000B24E011F8010C6C2834D111F896
:10343000023C00206C2B8346C5D14FF0080A53464E
:10344000D3E708F1070828F007080734F8E802ABCB
:1034500024F0070435B106982044B0423FF63EAF51
:10346000C4E900AB08344FF0000B4FF0080A534694
:1034700011F8010F002878D0BBF1000F7FF470AF76
:103480002528F5D1019B013301934FF0010B4FF03B
:10349000040AECE7584694E700208346A5E7082B8A
:1034A00002D06FF015001BE708F1070828F00708A5
:1034B000F8E80223C4E9002308340823D8E768B9F0
:1034C000042B02D108F10408A4E7082BE9D108F184
:1034D000070828F0070808F10808EDE7059A013AFF
:1034E000059258F8042B009210E7039A900720D514
:1034F000A4EB050E4FEA9E004FF0010CBEF5007FD5
:10350000CFD20F2FCDD8F5B107F140020DEB020E4F
:10351000C0B2019A0EF8200C0EF8102CBCF1000F6E
:103520003FF41AAF60F07F000EF8200C09F101099A
:103530000137C5F10802043406924FF6DA7E97E7A8
:103540004FF0000CDAE7BCF1000F01D00136EFE7D5
:10355000029802360028EBD10098CDE90631FCF73D
:10356000E1FDDDE906310644E2E7631BB3F5806F58
:1035700097D23DB9A6F10804E018B1E64023020055
:1035800004640200029A28609B082B709DF810309A
:10359000C2B1EB7085F80290B9F1000F05D008A810
:1035A0000022C5F1010C97420ED1C5F101030DF1C6
:1035B00020084FF0000A01930DF1300B574512D14E
:1035C000601B8DE66B70E5E710F8013B190608D526
:1035D0000CEB040EB64503F07F033FF67FAE04F814
:1035E000013B0132DFE7B9F1000F03D098F9002069
:1035F000002A17DB029BD3B11AF80B2004F8012B29
:103600000022019B18191044B0423FF667AE98F8AB
:10361000000004F8010B0099039220461EF0DBFD28
:10362000039A14440AF1010A08F10108C6E798F860
:10363000002055F822300093029B45F82230009874
:10364000FCF770FD421CDCE76FF00D0048E600BFA0
:10365000014B1860704700BF8801002080B5054607
:103660000E46174698461AF067FF03461EF05EFEA8
:10367000DFF81890044649F8003042463046394693
:10368000A84754F8090000F0D9FF00BF0800000067
:103690002DE9F047058B04462807904611D40229EE
:1036A00005F0070540F0CC8020461BF0C5FE78B140
:1036B0000138218B042811D8DFE800F0C2106D8595
:1036C000950001290CBF45F0100545F02005258324
:1036D00088F31188BFF36F8FBDE8F08701F0070A08
:1036E000AA4500F0A5800027B9463E46A368002BF6
:1036F00000F0BC8041F00801218388F31188BFF3FA
:103700006F8FA168002900F0BA800D68002900F0D1
:10371000B680D1F80480334652462046C047002D7B
:1037200076D02B6829461D46F0E701F007035A1FA3
:10373000012A1BD8002221F00701062B276889B235
:10374000C4E9002209D13B4603E0628B0132628367
:103750001B68002BF9D141F00201218320461BF0A8
:103760006BFE00287AD041F0200176E0042B0AD1CC
:1037700021F0070189B2218320461BF05DFE10B1C4
:1037800041F020012183218B01F0070AAA454FD087
:103790000027B946AAE7236921F0070141F0060195
:1037A000062DD3F8009021832DD1B9F1000F3FD021
:1037B00041F00801218388F31188BFF36F8F3A49E4
:1037C0002046C84729E021F00701236941F00401A0
:1037D00089B2042DD3F804902183E6D000273E4619
:1037E0004FF0040A82E721F00701236941F0050147
:1037F00089B2052DD3F808902183D6D000273E4604
:103800004FF0050A72E700273E464FF0060A6DE7C3
:103810002B4687E7B9F1000FD1D1EFF311882023B0
:1038200083F31288BFF36F8F238B23F00803238366
:10383000258BEA062ED525F01003238305F0070516
:103840006669218B002EBFF670AF00232768C4E99C
:10385000003321F0070141F001012183218B01F0A8
:10386000070AAA454FF000097FF440AF002F9CD013
:1038700041F00801218388F31188BFF36F8F002F77
:10388000C8D03D6839463346524620461BF000FEFC
:103890002F46F4E7AB067FF51BAF25F0200323830B
:1038A00005F0070500E700BFBDF401002DE9F84F62
:1038B000814630480F461BF0E9FE064670B92E4C93
:1038C000DFF8B8B00546A0464FF0010A5C4507D3C3
:1038D000B9F1000F02D04FF0010AFDB9BDE8F88F31
:1038E000237B83B12368DB680BB12046984763686C
:1038F00083F806A023681B6943B96368042219682A
:1039000020461BF0E8FE01361034DFE720469847DA
:103910000028F2D00AFA06F31D43F4E7A94695FA07
:10392000A5F4B4FA84F40AFA04F3260108EB0414AB
:103930006FEA030B25EA0305237B63B158F80630D1
:103940001B6993B94644042273682046196809EA42
:103950000B091BF0C0FE002DE1D127B14FF4A4707C
:1039600000211EF0FDFA4D46B7E720469847002893
:10397000F1D1E7E73C0E002098270200A8270200BB
:10398000014B53F8200070479428020008B5034605
:1039900008462BB1044A136000F080FA002008BDED
:1039A0006FF01500FBE700BF8C0100200C4A0D48AA
:1039B000002310B513700C4A13600C4A4FF40041F9
:1039C0001360FFF7E3FF0A4B0A4918468B4200D306
:1039D00010BD1A1A5C681211013222711033F5E71A
:1039E0000D27002089F60100340E0020380E00203B
:1039F00098270200A827020070B50B4D297841B91D
:103A00000120FFF753FF094C094EB44202D30123B2
:103A10002B7070BD63685B791BB1236820469B687F
:103A200098471034F1E700BF0D27002098270200C7
:103A3000A827020010B5044608481BF027FE5CB119
:103A4000BFF35B8F064B53E8001F013943E80012B8
:103A5000002AF8D1BFF35B8F10BD00BF340E0020E9
:103A6000380E002070B50A4B0A4C1B680A4E0546FA
:103A70009847A860B44200D370BD63685B7923B1F6
:103A8000236829461B68204698471034F2E700BF98
:103A90008C01002098270200A8270200044A054B49
:103AA0009B1AB1EBD30F34BF52F83100002070479E
:103AB000A8260200982702002DE9F04F87B004AF36
:103AC000D7E90EA93D6B04460E4693469846BAF1D7
:103AD000000F1ED0C7F80490CDF8009010217A6B2B
:103AE00053460020FFF7E2FBB0F5006F014611D30B
:103AF00040F2FF730393194B02930023CDE9003387
:103B00001749022218461BF008FE0C37BD46BDE8D7
:103B1000F08F514604F007040BF0070BE40044EA71
:103B20008B1444EA412444EA055417350D4425F02A
:103B30000705ADEB050D04ADBAF1000F07D0CDF8C8
:103B400000907A6B534605F11000FFF7AFFB434638
:103B50002246314628461BF0C7FDD6E772450200D3
:103B600038270200406820B1034BC01A40F3CF0051
:103B700070474FF0FF307047A82602000EB403B51F
:103B800003AB014653F8042B0448019301F014F8E9
:103B900002B05DF804EB03B0704700BF57F70100B7
:103BA000CA0605D48B064CBF02490349FFF7E6BF9E
:103BB000704700BFAB450200AA4502002DE9F04F57
:103BC00087B004469DF844600D4690469946002E05
:103BD00000F0A280159B03F0020A03F00103049396
:103BE000159B03F0080B03F4807305931BF071FD24
:103BF000024600283DD095492046FFF7BFFF074603
:103C0000BAF1000F09D0159B13F0440F33D190493E
:103C10002A462046FFF7B2FF0744049B53B18D4B61
:103C20008D4953F826208D4B2046002A08BF1A469E
:103C3000FFF7A4FF059B002B49D0BBF1000F64D117
:103C4000B8F1000F66D0864942462046FFF796FF3E
:103C50000546129B3D44002B6DD1149B002B73D164
:103C6000159BDB0700F1EB8015992046FFF798FFC5
:103C7000D8E00746C4E77B4B18680028CCD07A4BC5
:103C80004FF47A7A1B68B5FBF3F54FF46163B5FB2B
:103C9000F0F100FB11550AFB05F54FF03C0CB1FBB0
:103CA000F3F203FB1211B5FBF0FEB1FBFCF300FBDA
:103CB0001E550CFB13110AFB05F50091B5FBF0F541
:103CC0006A49CDE901E52046FFF758FFA4E7BBF1BB
:103CD000000F1DD0664B674953F826202046FFF79A
:103CE0004DFF0546B8F1000F05D05D49424620461C
:103CF000FFF744FF0544B9F1000FAAD05E494A46D8
:103D00002046FFF73BFF0544A3E74FF00009E1E73A
:103D10005D46E7E745469CE7B9F1010F129B06D1E6
:103D2000002B66D1149B002B7CD000250CE0002BCF
:103D3000F8D052485EE05248129B524922461BF08E
:103D400011FB149B002B6AD0DFF83C81DFF83C911B
:103D5000149F1599102F204628BF1027FFF720FF2A
:103D60004FF0000B5D4547DC139B49461A7820460F
:103D7000FFF704FF4FF0010B1BF0070F03D1414683
:103D80002046FFF7FBFE5F453DD9139B494613F8DC
:103D90000B202046FFF7F2FE0BF1010BBBF1100FD9
:103DA000EAD13B49DFF8ECB020464FF0000AFFF7BC
:103DB000E5FE5246139B9A5CA2F120015F2928BFC1
:103DC0002E2259462046FFF7D9FE0AF1010ABAF120
:103DD000100F1DD01AF0070F03D141462046FFF700
:103DE000CDFE57455246E5D841462046FFF7C6FE70
:103DF000EBE7234835469FE741462046FFF7BEFEE6
:103E00000BF1010BAEE724492046FFF7B7FEC3E7ED
:103E1000139B3B441393149BDB1B149398D1002EEC
:103E20007FF41EAF6268A1682068D2E900231BF00E
:103E300084FC636800221A6007B0BDE8F08F074A6F
:103E400005492046FFF79AFE0EE700BFB245020083
:103E5000B6450200A42802000B4F0200AD45020047
:103E6000DB450200440E0020400E0020BF4502004A
:103E7000B8280200DF450200E545020073F70100A3
:103E800057F70100B94B0000F2450200EA45020075
:103E9000F4450200F6450200F0450200074A002101
:103EA0000123904206D8064A01B901231360054B4D
:103EB0001860704740085B000121F2E740420F00A4
:103EC000400E0020440E0020F8B5074F0D46044672
:103ED0004618B44201D12846F8BD14F8011BBB684E
:103EE00001485B689847F4E7E0230200014B036058
:103EF000002070470029020070B5064686B00D46C6
:103F0000002938D08B6805934B6804930B680393A2
:103F10000024244B24490293012223462046CDE964
:103F200000441BF09DFC6B6905932B690493EB68BF
:103F300003931E4B1C490094CDE901430122234603
:103F400020461BF08DFCEB690393194B1649009436
:103F5000CDE901430122234620461BF081FCAB69D9
:103F60000393144B10490094CDE9014301222346E9
:103F700020461BF075FC012E0DD1EFF30583103B9D
:103F800003930D4B02930023CDE9003306493246DB
:103F900018461BF065FC2946304606B0BDE8704067
:103FA00019F01EBA3346020068270200624602007A
:103FB00091460200A0460200CE46020030BFFFF745
:103FC000FDBF00BF2DE9F0410B4EDFF8308006EB5E
:103FD0000807CC1B05463246094920461EF0FBF86F
:103FE000A01942460021083C1EF01DF96C6707F13C
:103FF0000800BDE8F08100BF0000000004000000E0
:10400000A8270200054B5A699B689A421FBF044AC1
:10401000536843F080535360704700BF88260020E8
:1040200000ED00E0F0B585B00024434B0293CDE9EC
:104030000044234607460E460122404920461BF015
:104040002AFC3F4B9B6ADB0465D53E4B3B49009401
:10405000CDE901432046234601221BF01CFC17201A
:10406000374B9B6A1D050AD5374B02930023184630
:10407000CDE90033314901221BF00DFC1820304DF1
:10408000AB6A9C051FD50024304B029301222346C6
:104090002046CDE9004429491BF0FDFBAB6BAA6A21
:1040A00010040FD503932A4B24490094CDE9014312
:1040B0000122234620461BF0EEFB1FB1AB6A23F41E
:1040C0000043AB6219201E4B9B6A59050AD5214B50
:1040D000029300231846CDE90033184901221BF052
:1040E000DAFB1A20164A936A13F4807315D01A4B20
:1040F000029300231846CDE90033104901221BF03A
:10410000CAFB1B200E4A936A43F47F439362002349
:10411000337005B0F0BD1620A2E7926A9204F1D583
:104120000E4A06490093CDE90132184601221BF0E0
:10413000B2FB1C20E6E700BFE14602006827020050
:1041400000ED00E0F7460200084702001B470200AE
:104150003447020049470200644702007C470200DE
:104160001FB50024374B029301222346CDE90044BA
:10417000354920461BF08FFB344B9B6A9A015ED574
:10418000334B31490094CDE90143204623460122B7
:104190001BF081FB1E202D4B9B6ADB010AD52D4BAA
:1041A000029300231846CDE90033274901221BF072
:1041B00072FB1F20254B9B6A1C030AD5264B0293DA
:1041C00000231846CDE900331F4901221BF063FB91
:1041D00021201E4B9B6A59030AD5204B02930023D2
:1041E0001846CDE90033184901221BF054FB222068
:1041F000164B9B6A9A030AD5194B02930023184663
:10420000CDE90033104901221BF045FB23200F4B61
:104210009B6ADB030AD5134B029300231846CDE9B2
:104220000033094901221BF036FB2420074A936A18
:104230006FEA03436FEA1343936204B010BD1D207D
:10424000A9E700BFAB4702006827020000ED00E0CD
:10425000C3470200D6470200F04702000E480200A2
:10426000334802004D4802002DE9F04385B0002498
:104270004D4B0293CDE900442346804689461646BD
:104280004A49012220461BF006FB494B9B6ADF0688
:1042900040D5484B0094CDE901432046234643498D
:1042A00001221BF0F8FA1124414B9B6A1D070AD525
:1042B000414B02930023CDE900333C4901221846CB
:1042C0001BF0E9FA12243A4DAB6A980724D5002472
:1042D0003A4B36490293CDE9004423460122204659
:1042E0001BF0D9FA6F6BAB6A190659D5344B2F49BD
:1042F0000397CDE9014300942346012220461BF099
:10430000CAFAB9F1000F03D0AB6A23F08003AB62A5
:10431000132403E01024C7E76FF01507244B9B6AB2
:10432000DA070AD5274B02930023CDE900331F4952
:10433000012218461BF0AFFA14241D4B9B6A9B0602
:104340000AD5214B02930023CDE9003317490122FE
:1043500018461BF0A0FA1524154B9A6AD50602D40C
:104360009A6A90070AD55B68190507D54146384611
:1043700000F04AFA10B180F3098802240C4B9A6AC3
:10438000920642BF5A6A22F400525A629A6A42F076
:10439000FF029A6220460023337005B0BDE8F08327
:1043A0006FF01507B4E700BF7848020068270200E5
:1043B00000ED00E08E48020008470200C1480200FC
:1043C000D9480200EF4802007C4702002DE9F04185
:1043D000754B5F6890B00446C7F30806002383F36B
:1043E0001188BFF36F8F02F07F40B0F17F4F0CD187
:1043F00002F00C00082819D16C4A6D490093CDE9F0
:104400000132184601221BF046FA00252C464FF0D7
:104410000008F31E8DF81F80092B00F2AC80DFE846
:1044200003F00BA0A49CAAAAAAAAAAA8120746BF96
:104430000C461D460125EAE75E4B5D495A4FCDF813
:104440000080CDE901830023012218461BF023FAE6
:104450008DF81F80FE6A16F0020605D0564BCDF887
:104460000080CDE9018306E0FB6A002B0BDA534B99
:104470000096CDE9016300234D49012218461BF047
:104480000AFA00223BE0FB6A5B00FAD54C4B484934
:104490000096CDE901630122334630461BF0FBF95B
:1044A0007B69A26943F480737B61BFF34F8FBFF3D5
:1044B0006F8F7B6932F8022C23F480737B61BFF32A
:1044C0004F8FBFF36F8F4DF602739A420AD0BB6ACB
:1044D000DBB2002B33D00DF11F0201212046FFF784
:1044E000C3FE3CE023680393364B31490096CDE987
:1044F00001630122334630461BF0CDF922689DF856
:104500001F30CBB908AE04F120072068616833463C
:1045100003C30834BC421E46F7D10F9B002D3ED08A
:10452000C3F3080121B96FEA53236FEA43230F93C2
:1045300008A91046FFF7E0FC10B0BDE8F081BB6AA7
:1045400013F47F4F05D00DF11F010120FFF76AFD25
:1045500005E0BB6AB3F5803F93D3FFF701FE024647
:10456000CDE70DF11F020021B8E70DF11F0100207A
:10457000ECE7154B73E7154A154B0D4917F4F87F17
:1045800018BF1346103ECDE90336124B02930023A9
:10459000CDE90033012218461BF07DF971E723F4C1
:1045A000FF7323F00103C2E700ED00E03C49020085
:1045B00068270200674902007E4902009F49020005
:1045C000AD490200CC490200E8490200234902003B
:1045D0000E4902000C4A0200044B5A6942F01002D4
:1045E0005A615A6922F008025A61704700ED00E0F2
:1045F000EFF30880EFF3098101B57246FFF7E6FE9D
:1046000001BD00BF0B4880F3088817F0F7FB20209E
:1046100080F3118808484FF40461401880F309883A
:10462000EFF314800221084380F31488BFF36F8FE7
:1046300000F0B2F80042002040340020084B9B6894
:1046400083420BD1EFF3058343B1064B5A6842F026
:1046500080525A605A6A22F400425A6219F072BFBC
:104660008826002000ED00E014498A684FF03000F1
:104670001044EFF3098C80E8F01F202080F31288AB
:10468000BFF36F8F0E4F4FF000664A698A603E603D
:10469000506F0C4C2060906F0023936780F311885B
:1046A00004B5104600F014F9BDE8044002F13000F2
:1046B00090E8F01F8CF309887047000088260020DE
:1046C00004ED00E0740E00201EF0040F0CBFEFF3A9
:1046D0000880EFF30980816911F8021C0229FFD0DC
:1046E00001B572461BF0CCF801BD00BF40B20028F6
:1046F00007DB044A4109012300F01F00834042F810
:104700002130704700E100E040B200280CDB430993
:10471000064900F01F0020330122824041F8232087
:10472000BFF34F8FBFF36F8F704700BF00E100E012
:10473000054B420900F01F0053F82220012303FA21
:1047400000F01040704700BF00E100E040B20028D8
:10475000A8BF00F1604001F10101B8BF064B4FEA6C
:104760004111ACBF00F5614000F00F00C9B2B4BF09
:10477000195480F80013704714ED00E0044B054A0B
:1047800023F07F039360BFF34F8FBFF36F8F7047AA
:104790000000000000ED00E008B5FFF7EFFF0B4A56
:1047A000D2F8883023F47003C2F88830EFF3148312
:1047B00023F0040383F31488BFF36F8F18F0FAFE1D
:1047C00019F0F4FF00F05AF818F038FF00ED00E09F
:1047D00042F8203C009B42F81C3C0A49019B42F8ED
:1047E000183C029B42F8143C21F001014FF0807309
:1047F00042F8043C42F8081C0023203A0265836713
:10480000704700BF5D360000094A0346906870B1EA
:1048100013F1160F406E05D0A0F140029A4205D860
:10482000834203D2814228BF002070470020704796
:104830008826002008B515460B4A0C4B9060426F45
:104840001A600E4600F044F82C4686F309880020D2
:10485000034B98472046002100220023014C2047AB
:10486000BFF801005D36000088260020740E00208D
:10487000014B10221A61704700ED00E0044800234C
:104880002021C2180133272B82F80013F9D1704779
:1048900000E100E008B5EFF30583064A103B02EBA8
:1048A000C30152F8330049688847BDE80840FFF764
:1048B000A9BB00BFA0240200024B034A0348012108
:1048C00000F096B80000012000000020002902003E
:1048D000426E054B403A1A60044A4021C3E9011276
:1048E0001846012100F08EB8780E002000000B154C
:1048F0001FB5144AD2F89030C3F30723013B984206
:104900000FD9114B029300230390CDE900331846D1
:104910000E4901221BF006F86FF0150005B05DF896
:1049200004FBC2F898000B6823F01F03034343F015
:104930001003C2F89C308B6843F00103C2F8A0302A
:10494000ECE700BF00ED00E0234A02005027020020
:10495000F0B50E4689B01F4604460025B54212DA6E
:10496000606838B3BFB1431E18420FD0134B029397
:104970000023CDE9003312490395012218461AF0AD
:10498000D1FF6FF01502104609B0F0BD1F28EDD918
:1049900021680B42EAD1236805931AF0B3FFA3689C
:1049A00005A90343D0B20793FFF7A2FF10F1160F3A
:1049B000E7D0421C01350C34D0E700BF494A020061
:1049C00050270200044B0522C3F89420BFF34F8FF9
:1049D000BFF36F8F704700BF00ED00E0BFF35F8F44
:1049E000024B0022C3F89420704700BF00ED00E0A6
:1049F00010B5034C01232278FFF7AAFF207010BDE9
:104A00000F27002008B50B4A00231278FFF7A0FFFC
:104A100010F1160F07D0084A0021D2F89030C3F3E6
:104A20000723984200DB08BDC2F89800C2F8A01026
:104A30000130F2E70F27002000ED00E02DE9F04300
:104A400057485849D0F890300D68C3F307239D426A
:104A500085B000F2A180FFF7C1FF496800229542AE
:104A600001F10C011AD1504C504F25706846FFF7E8
:104A70003DFADFF83C81DFF83C9106460025AE4266
:104A80001FD1237846490020D1F89020C2F3072295
:104A900093427BDBFFF796FF00204CE0C0F89820A4
:104AA00051F80C3C23F01F03134343F01003C0F8EC
:104AB0009C3051F8043C43F00103C0F8A0300132AF
:104AC000CDE7009800EB05114FEA051CCB683B4091
:104AD000B3F5000F44D00AD8B3F5001F2ED0B3F5BC
:104AE000800F34D0B3F5801F10D00135C7E7B3F184
:104AF000807F3ED0B3F1007FF7D150F80C3088684A
:104B00004A681AF0FFFE40F4802009E050F80C30AB
:104B100088684A681AF0F6FE40F0885040F4302069
:104B2000039001A92078CDE90123FFF7E1FE0028D9
:104B300028DA6FF0150005B0BDE8F08350F80C30AE
:104B400088684A681AF0DEFE40EA0800E8E750F894
:104B50000C3088684A681AF0D5FE40EA0900DFE7A1
:104B600050F80C3088684A681AF0CCFE40F0827029
:104B7000D6E750F80C3088684A681AF0C3FE40F057
:104B80008870CDE7237801332370AEE7C1F8983001
:104B9000C1F8A000013377E74FF0FF30CBE700BF4B
:104BA00000ED00E00C2902000F2700200000F0FFBC
:104BB0000000081100000206F0B587B007460E4657
:104BC00014460021102268461D461DF02CFB0223CE
:104BD0008DF802302A46054B019321466846CDE9FF
:104BE000047619F0BBFF07B0F0BD00BF45F9010026
:104BF00008B5024B1B689847002008BD840E0020B2
:104C0000034B044A1860937843F002039370704793
:104C1000840E00209801002008B50649064821F0BE
:104C20000701C1F1005202F580321AF05EFB00204C
:104C300008BD00BFC7500020880E002070B5416934
:104C4000867A0B4D044659B1437ADB0706D42C23F0
:104C500003FB06535B6A1B689B68984700236361EC
:104C60002C20214606FB0050BDE870401CF0C8BF58
:104C70000C060020024B2C2202FB0030704700BFC4
:104C80000C060020827A064B2C2101FB02339A6A23
:104C90001B7F1B33801A23F00303B0FBF3F0704734
:104CA0000C06002038B5074B827A2C2404FB023313
:104CB0005B6AD3E901240C601568FFF7E3FF04FB8E
:104CC000005038BD0C0600202DE9F04385B00546A4
:104CD0006846039190461C461DF0CEF9DDE9006759
:104CE000EFF31189202383F31288BFF36F8F6B8B4F
:104CF000002B41D02A8B9A4225D900220023284636
:104D000018F020FE0446F0B189F31188BFF36F8FCD
:104D1000039B002B41D032463B4668461DF0D1F93B
:104D2000A27A264B2C2101FB023320465B6A1B68CA
:104D300003A91D68DDE90023A847606170BB204618
:104D4000FFF77CFF24E0698B4B1E6B8389F311888E
:104D5000BFF36F8F2B7F2A8BAC6A1B3323F00303C7
:104D6000521A02FB0344154B154AEB1A9B1053438E
:104D7000A3722B7FE372CBE789F31188BFF36F8FA8
:104D800023464246284618F0DDFD04460028BFD1E0
:104D90000024204605B0BDE8F083636101230025AF
:104DA0002381039B6382E27A6560294604F118003F
:104DB0001DF039FA63692582E360EAE70C060020FA
:104DC000A38B2EBA70B50C4C2C2500B970BD037A9C
:104DD0004668013BDBB20372002BF7D1C36043602E
:104DE000837A05FB03431B6A13B198473046ECE70F
:104DF000FFF724FFFAE700BF0C060020044A012356
:104E0000C2F840354FF080420020C2F87835704734
:104E100000E0014020B1034B800143F0010318473B
:104E2000704700BF402802000E4B402970B528BFD4
:104E300040210D4C46181D46B04203F1020304D137
:104E4000002305F81130074870BD02781209A25CF2
:104E500003F8022C10F8012B02F00F02A25C03F8F9
:104E6000012CE9E72E270020B04A020030B5037874
:104E70008BB0044607AD032B21D8DFE803F0021AFC
:104E80001C1E12492846FBF745F9059563780493E3
:104E9000A3780393E37802932379019363790093D2
:104EA000A3790B4A0B481E2119F02EFE09480BB0BE
:104EB00030BD0949E6E70949E4E70949E2E7094A5B
:104EC0000A21284619F020FEDFE700BFBC4202009D
:104ED000DE42020010270020C3420200CA42020044
:104EE000D4420200E75C02000378012B30B513D0F6
:104EF000022B27D07BB9194B0A4603F1100453F853
:104F0000045B42F8045BA342F9D11B781370438819
:104F10004B731B0A8B7330BD104B0A4603F1100410
:104F200053F8045B42F8045BA342F9D11B78137079
:104F300043684B73C3F307221B0CCB731B0A8A73A2
:104F40000B74E8E700F1100350F8042B41F8042B30
:104F50009842F9D103780B70DDE700BFC14A020027
:104F600008B51AF02BFE19F0D5F9044B1B680BB1EC
:104F70000A209847BDE8084019F0E0B9940E0020D7
:104F800038B5044608481AF0EEFC054648B1631EE1
:104F9000DBB21F2B96BF054A0021D15C0C301AF002
:104FA0005DFD284638BD00BFE8060020D24A020059
:104FB0000F2810B50CD80D280CD90A481AF0D3FCCC
:104FC000044618B104210C301AF048FD204610BDEB
:104FD0001328F2D009B10448F0E7BDE810400220E0
:104FE000FFF7CEBF140700206406002070B5C66826
:104FF0003378B6F8014083B90F21204603F08EFACA
:10500000F378054650B90A4A118831B96FEA04505D
:105010006FEA10501080074A137070BD437201216F
:1050200003F074F92846BDE8704003F045B900BFAD
:10503000BC260020AF27002010B5084C01460622F0
:1050400094F86F0003F038FD38B994F86F00044904
:10505000BDE81040052203F02FBD10BD0000002068
:10506000964A020030B502EBC303044687B00846F7
:105070009A4202D16FF05E0016E0114611F8085B0B
:10508000A54217D1038A517899420FD9CDE903344B
:10509000094B029300231846CDE90033074901224A
:1050A0001AF010FE6FF0150007B030BD5368984736
:1050B0000020F9E70A46DBE7014B0200F826020070
:1050C00070B5012186B004460C301AF0E8FC057872
:1050D0000D4A002321462846FFF7C4FF5F3011D157
:1050E000268AE0683146FFF79FFE084B02930023B3
:1050F000CDE90460CDE90033054903950222184645
:105100001AF0E0FD06B070BD202A0200234B020019
:10511000F82602001FB5C36807491B780393074BA5
:1051200002930023CDE90033022218461AF0CAFD8B
:1051300005B05DF804FB00BFF8260200554B0200E5
:105140001FB501460B481AF012FC0B490B481CF026
:1051500013FE00280ADA0A4B029300230390CDE9DC
:1051600000330849012218461AF0ACFD05B05DF87D
:1051700004FB00BF4C010020B801002040070020C4
:105180007D4B0200F826020070B586B005460C463D
:10519000FFF768FF5F3011D1268AE0683146FFF7DC
:1051A00043FE074B02930023CDE90460CDE90033B1
:1051B00004490395022218461AF084FD06B070BD1A
:1051C0009A4B0200F826020070B54B4886B01AF0E0
:1051D000E3FB0446002867D000F10C0528461AF0CE
:1051E00066FC022804D0042860D0444B039004E0FD
:1051F000238A032B09D80393414B02930023CDE963
:1052000000334049012218462BE0042128461AF0B9
:1052100046FCFF23428806882376238AC6F30B00C8
:105220009A4260830FD0CDE90332374B02930023BB
:10523000CDE900333349012218461AF043FD2046D8
:10524000FFF7C0FD1BE00F2103F068F9054658B9D0
:10525000638B03932D4B2B490090CDE90103012271
:1052600003461AF02FFDEAE703F0A6F9320B207689
:105270002146284602F0DAFE284603F01DF8244BAA
:10528000D3F84C3183B1234923481CF075FD002825
:105290000ADA224B029300230390CDE90033194927
:1052A000012218461AF00EFD06B070BD238A012BAC
:1052B00002D803931A4BA0E7284602211AF0EFFB0D
:1052C000054600781AF0D6FC10F002060DD1154AFA
:1052D0001549164840F60C431AF086F886F31188F3
:1052E000BFF36F8F0323184602DF114A2878042387
:1052F0002146FFF749FFA2E74C010020BE4C020007
:10530000BC4B0200F8260200DD4B0200014C0200FB
:1053100000000020B8010020400700207D4B020063
:10532000234C02003F4C0200734C0200A14C0200CF
:10533000C829020010B5012104460C301AF0AFFB59
:105340002146034A0078BDE810400723FFF71CBF41
:10535000E82902001FB501210C301AF0A0FB0378E8
:105360000393064B02930023CDE900330449012245
:1053700018461AF0A7FC05B05DF804FBD24C0200F9
:10538000F82602001FB5C368B3F80140012120468A
:1053900003F0C4F8034650B9074A08490394CDE91D
:1053A0000102009001221AF08DFC04B010BD04B07F
:1053B000BDE8104002F080BFF44C0200F826020065
:1053C0007FB5C3681D788DB9B3F801600F213046F1
:1053D00003F0A4F8044658B9194B1A490396CDE9CD
:1053E00001030090034601221AF06CFC04B070BD6A
:1053F000294602F08BFFA378012B05D0204604B08C
:10540000BDE8704002F058BFBFF35B8F6368BFF325
:105410005B8FDB07F2D52046032102F077FF0320E4
:105420001AF09BFE0028E9D0074B0390CDE9015309
:10543000044900952B46022228461AF043FCDDE77A
:10544000184D0200F82602003E4D02007FB5C568E7
:10545000B5F801600121304603F060F8044658B900
:10546000104B11490396CDE9010300900346012238
:105470001AF028FC04B070BD2B783BB9D5F8033086
:10548000C0F89530D5F80730C0F899304FF4803126
:10549000201D1AF001FC204604B0BDE8704002F067
:1054A0000BBF00BFF44C0200F82602002DE9F04FBC
:1054B000894687B090460646D0B1BFF35B8FDFF8D0
:1054C0002CA14FF0000B5AE8004F4AE800B3002B24
:1054D000F9D1BFF35B8F27466CB9454B454903961D
:1054E000CDE9014300942346012220461AF0EAFB4D
:1054F00007B0BDE8F08F2046FFF7C4FB3E4D0C23FC
:1055000003FB00504288B24226D02046FFF7BAFB88
:105510000C2303FB005037494388CDF800B0CDE998
:105520000363364B0122CDE901B358465B461AF0BE
:10553000C9FBBFF35B8F5AE8003F4AE80072002ABC
:10554000F9D1BFF35B8F002BD2D01F46384607B08E
:10555000BDE8F04FFFF736BCA0450AD020461AF050
:10556000FDF9B8F81020D8F80C1004F10C001AF06E
:105570006CFA2046FFF786FB0C2606FB00504368BA
:10558000ABB1B9F1000F12D12046FFF77BFB06FB50
:10559000005001214268D2E90003127A03F01F068D
:1055A000B1405B09DAB100EB83001AF075FB2046CD
:1055B000FFF768FB0C2606FB00508368002BC5D064
:1055C0002046FFF75FFB704305F800902046FFF789
:1055D00059FB06FB0055A86818F0E6F9B6E7C94381
:1055E00000EB83001AF07DFBE1E700BF48010020DB
:1055F000644D0200F8260200980E00208C4D020037
:105600002DE9F04FD0F80C80008A98F80030012284
:1056100002EB8301814287B062D90393334B02933B
:105620000023CDE90410CDE90033314918461AF0C2
:1056300049FB07B0BDE8F08F2E4B2D490395CDE90E
:1056400001030090034601221AF03CFB013698F852
:1056500000309E42EDDA08EB86030F21B3F80150CB
:10566000B3F80370284602F059FF04460028E3D03F
:1056700000F1C00957B1656965B9CDE9015B1C4905
:1056800000952B46012228461AF01CFB204602F00A
:1056900013FEDBE7A2692B686361954208BFA36133
:1056A000204602F061FC18F07FF9C5F800A0236ADB
:1056B0009BB9C4E90755BFF35B8F59E8003F013B35
:1056C00049E80032002AF8D1BFF35B8F0021204661
:1056D000013F02F055FCBFB2CCE71D602562EAE74E
:1056E0000026DFF814B0B246B1E700BFBF4D02009C
:1056F000F8260200EA4D0200064E020070B5C568A9
:10570000B5F8016086B00121304602F007FF04467B
:1057100058B9484B48490396CDE901030090034628
:1057200001221AF0CFFA06B070BD2B781A2B00F1C7
:10573000040619D1C378012B60D14FF48041304663
:105740001AF0AAFA42040FD4D4F88830049304A9BA
:10575000D4F890300593204603F03AFD204606B079
:10576000BDE8704002F0A8BD2B78002B46D1B5F8FB
:105770000320A4F8862091B2B5F80520A4F88C2067
:10578000B5F80720A4F88E208A1F92B240F67A401E
:10579000824209D9294A0391CDE901322649009371
:1057A000022218461AF08EFAB4F88C30B3F5FA7F5C
:1057B0000AD30393224B02930023CDE900331E4901
:1057C000022218461AF07EFAB4F88E20A2F10A03DB
:1057D0009BB240F676418B420AD91A4B02930023C2
:1057E0000392CDE900331449022218461AF06AFAEE
:1057F0006FF4805130461AF074FA17E0BFF35B8FF4
:105800006368BFF35B8FDB04F2D52B78202BEFD1DD
:1058100094F89430002BEBD0013B84F894304FF493
:105820002032002304F1400018F022FB204603F050
:105830004DF893E7F44C0200F82602001D4E0200DA
:10584000454E02006C4E020008B502F0DDF8BFF3D1
:105850005B8F084B1A68BFF35B8F02F00B02BFF33C
:105860005B8F53E8001F43E800200028F9D1BFF305
:105870005B8F08BDD400002010B5C1E900239DF85E
:1058800008300B720C46FFF7FDF9034B0C2202FBAC
:1058900000335C6010BD00BF980E0020F8B50246D2
:1058A0000B4610481AF05FF80446C0B104210C30D2
:1058B0001AF0BAF82046FFF7E5F90B4D0C2707FB65
:1058C0000050002646802046FFF7DCF907FB005019
:1058D00086602046FFF7D6F907FB00556E6020462C
:1058E000F8BD00BFBC060020980E002070B50C4D1E
:1058F00006460FCD90B06C460FC40FCD0FC40FCD30
:105900000FC495E80F000F2E84E80F009BBF10AB6B
:1059100003EB8606034856F8400C10B070BD00BF7C
:10592000D0270200984E0200034B0146D3F86C01C9
:1059300082689268104700BF000000202DE9F04304
:1059400000F10C06044685B030461AF0C0F801217B
:1059500005463046B4F810801AF099F8238A012BD6
:1059600010D803931D4B02930023CDE900331C494B
:10597000012218461AF0A6F9204605B0BDE8F0430A
:10598000FFF720BA304602211AF089F8074600785E
:105990001AF070F910F0010906460DD1114A1249AA
:1059A000124841F2360319F01FFD89F31188BFF345
:1059B0006F8F0323184602DF05230D4A38782146EE
:1059C000FFF7E2FBB307D7D56369A4F8108013FA99
:1059D00085F5E56005B0BDE8F08300BF234C02000B
:1059E000F82602003F4C0200A04E0200A14C02002B
:1059F000A029020030B50C4685B018F08BFCE26897
:105A00001378022B23D0042B10D00393124B029354
:105A100000231846CDE90033104901221AF052F94B
:105A20002046FFF7CFF96FF015040BE050781AF01D
:105A300021F9C207054602D52046FFF77FFFAB07D5
:105A400005D4002418F07AFC204605B030BD20466D
:105A5000FFF776FBF5E700BFB94E0200F82602001B
:105A60002DE9F043042189B03848394D394EDFF82B
:105A7000E880DFF8E8901AF00FF901F0C5FF384B25
:105A800003930024374B35490293032223462046D3
:105A9000CDE900441AF016F9EA79334B2846012A79
:105AA00088BF1E46FFF7E2F9304B2C490094CDE940
:105AB0000360CDE901430322234620461AF002F990
:105AC0002F460126EB799E4207F107072EDB95F85A
:105AD00070402046FFF70AFFB5F876300693B5F818
