:10000000004200207D45000079F7010069450000AD
:1000100069450000694500006945000000000000D6
:100020000000000000000000000000004146000049
:100030006945000000000000E1450000694500003E
:100040000D480000E96701000D4800000D48000060
:100050000D4800000D4800000D4800000D4800004C
:100060000D4800000D4800000D4800000D4800003C
:100070000D4800000D4800000D4800000D4800002C
:100080000D4800000D4800000D4800000D4800001C
:100090000D4800000D4800000D4800000D4800000C
:1000A0000D4800000D4800000D4800000D480000FC
:1000B0000D4800000D4800000D4800000D480000EC
:1000C0000D4800000D4800000D4800000D480000DC
:0C00D0000D4800000D4800000D48000025
:1000E00053B94AB9002908BF00281CBF4FF0FF319F
:1000F0004FF0FF3000F00CB8ADF1080C6DE904CE04
:1001000000F018F8DDF804E0DDE9022304B07047E0
:10011000704700BF034611F8012B03F8012B002A9A
:10012000F9D17047034613F8012B002AFBD1181AA6
:10013000013870472DE9F04786468C460846089EF0
:10014000154674461946002B40F0C2808542B2FA2B
:1001500082F245D94AB1C2F1200300FA02FC2EFA1C
:1001600003F3954043EA0C0C94404FEA154EA8B2B5
:10017000BCFBFEF8230C0EFB18CC08FB00F943EA8D
:100180000C43994528D9EB1808F1FF3704D299455B
:1001900002D9A8F102072B44A3EB0903A4B2B3FBD5
:1001A000FEFC0EFB1C330CFB00F044EA0344A042AF
:1001B00014D92C190CF1FF3304D2A04202D9ACF1AE
:1001C00002032C44241A43EA07401EB1D440002302
:1001D00034607360BDE8F0874746DDE76346F1E7CA
:1001E00092BB431B01214FEA154EAFB2B3FBFEFC9D
:1001F000200C0EFB1C330CFB07F840EA0343984528
:1002000062D9EB180CF1FF3004D2984502D9ACF159
:1002100002002B44A3EB0803A4B2B3FBFEFC0EFBCD
:100220001C330CFB07F744EA0344A7424ED92C19B0
:100230000CF1FF3304D2A74202D9ACF102032C44E3
:10024000E41B43EA0040C0E7C2F1200320FA03F1B7
:10025000954090402EFA03F303434FEA154EAFB298
:10026000B1FBFEFC0EFB1C10190C0CFB07F841EA5D
:100270000041884504FA02F422D969180CF1FF30D4
:1002800004D2884502D9ACF102002944A1EB08014F
:100290009BB2B1FBFEFC0EFB1C110CFB07F743EA03
:1002A00001439F420ED9EB180CF1FF3104D29F425B
:1002B00002D9ACF102012B44DB1B41EA004192E779
:1002C0006046E3E76146F7E76046A3E76346B7E7C2
:1002D000834206D916B9002108467BE7C6E900E04B
:1002E000F9E7B3FA83F78FB9834201D3724508D88F
:1002F000BEEB020460EB030301209C461EB9002103
:1003000068E73846FAE7C6E9004CF8E7C7F1200C81
:10031000BB4022FA0CF41C432EFA0CF120FA0CF329
:10032000B84001434FEA14490EFA07F5B3FBF9F858
:100330001FFA84FE09FB18300B0C08FB0EFA43EA87
:1003400000439A4502FA07F240D9E31808F1FF305A
:1003500004D29A4502D9A8F102002344A3EB0A0370
:1003600089B2B3FBF9F809FB183308FB0EFE41EA2A
:1003700003418E452CD9611808F1FF3304D28E4514
:1003800002D9A8F10203214443EA0040A0FB0298ED
:10039000A1EB0E014145CE46434602D306D14D4561
:1003A00004D2B9EB020E68EB04030138002EA6D08C
:1003B000B5EB0E0261EB030101FA0CFC22FA07F324
:1003C0004CEA0303F940C6E9003198E74046C5E727
:1003D0004346D9E7000000002DE9F843D0E907388B
:1003E000856903EB08042F34A5420F46164619D839
:1003F000DFF86C80A3FB080117A3D3E90023FFF704
:100400006FFE0346601BA0FB080123F07F4412A38C
:10041000D3E90023FFF764FE20F07F403C603060AA
:10042000BDE8F883DFF838900BA3D3E90023A5FBE0
:100430000901FFF755FE20F07F440A480A2106A370
:10044000D3E90023E8FB0901FFF74AFE20F07F40D3
:100450003C603060BDE8F8838D49FD1A070000005C
:1004600000CA9A3B00166BF1002800F030812DE99C
:10047000F04FC34C94F85E30DA078DB000F1618123
:10048000627F94F8293004EB820204EB8303166A3E
:10049000DF6A0EB3354615F8020BC0F380100CF07E
:1004A000A7FB0368C6F802308388AB8033785B060D
:1004B00006D5062128460AF0C7FD002800F0438132
:1004C0003D4615F8020BC0F380100CF091FB036859
:1004D000C7F802308388AB80337813F00E0F40F0FA
:1004E0008E8063691BB10C200DB0BDE8F08F0DF05C
:1004F0003DFA8146002800F033810DF043FA824630
:10050000002800F02A8110F0F3F90546002800F0D9
:100510002981C06E4FF6FF73AB8405F1100B0028E4
:1005200000F0178105F1600205F15C010AF098FD09
:10053000B5F8583023F4EF6323F0070343F48C73CA
:1005400043F00103A5F8583095F8373003F03F0326
:1005500063F07F0385F8373095F8723023F0070396
:1005600085F8723095F83C3023F00F034FF0000807
:1005700085F83C304FF4C023C5F870312846C5E9F2
:100580001288C5F86C80A5F8708085F83980A5F8C8
:100590002A80C5F82E80C5F85080A5F87681A5F888
:1005A0006C8112F039FC85F83881C5F83C9110F067
:1005B00029FC95F87C3160F3020385F87C3110F05A
:1005C00027FC95F87C3160F3C50385F87C3195F8FC
:1005D000683168F3410385F8683105F1B80012F01D
:1005E000DDF9C4E9159AC4F814B0C5E9028885F8A4
:1005F00000802D6116F016FF002840F0A680237EB3
:100600000121C3F342030DF12B008DF82B300AF0CA
:10061000C3FE024600285CD0797830460FF088FB94
:100620005849594BB4F85C70A0FB0101C0184FF059
:10063000000551A3D3E9002341F10701C4E90255A4
:100640002570FFF74DFD60600CF090FA00F109088D
:100650003FB9357805F00F05A5F10105B5FA85F527
:100660006D09207E636865F3000010F001052076B7
:1006700036D0464A0992002010600225444A454F70
:1006800004930BAE019305920321CDE90200069479
:1006900043460090089607972A460B950CF004F9FC
:1006A00031460DF0F7F9A0B93B4905914AF2D8332C
:1006B0000093CDE90300CDE9010007970896069461
:1006C0004346012203210B950CF0BAF82EE00FF0FF
:1006D00083BA6369002B3FF406AF0FF039FA02E7E3
:1006E0002A4A2E48049303F2471306940295912157
:1006F0001360A7FB000301FB0731264B0793244B34
:1007000005934FF6FF730992022703930BAE1AA3CA
:10071000D3E900230B970896FFF7E2FC4346CDE9A7
:1007200000503A46284603210CF0BEF831460DF041
:10073000B1F90028CDD194F85E3043F0010384F87C
:100740005E300020D0E61220CEE60FF001FA032042
:10075000CAE605F16400E866E4E648460DF00CF9E7
:100760000720C1E650460DF013F948460DF004F994
:10077000F6E700BFAFF300808D49FD1A07000000C7
:100780003C1B002000CA9A3B8C49FD1A301B0020FC
:10079000ADFD000009CD0000B5F80000002AE78497
:1007A00070B5037E8AB0C3F342030D4604460121AF
:1007B0000DF1230016468DF823300AF0EDFD717817
:1007C000024628460FF0B4FA1F49204AA0FB013127
:1007D000981841F107011AA3D3E90023FFF780FC21
:1007E00063689842054621D21B1A00220192184ADA
:1007F0000293184BA21AA3FB023202219209002392
:100800000A4409AE099114490591CDE90333032146
:10081000D2B20696009318460CF0A6F831460DF0B9
:1008200039F938B9656000200AB070BDFBD9C21A29
:100830000023DBE70C200AB070BD00BFAFF30080DF
:100840008D49FD1A0700000000CA9A3B8C49FD1A29
:100850003C1B0020ABAAAAAA09CD000000000000A2
:1008600038B5194C9DF810E094F838C01CF001051B
:1008700023D163F3420C400194F82630E1854FEA1E
:10088000CE0E0EF0180E00F0200040EA0E0023F00D
:10089000380303430D4884F826309121A2FB00035E
:1008A00084F838C001FB023105A3D3E90023FFF728
:1008B00017FCC4E90C00284638BD0C25284638BD75
:1008C0008D49FD1A07000000280A0020002AE7844D
:1008D00010B504469DF80800E2834FEA411CC000B1
:1008E000A17D00F018000CF0200C4CEA000C0C4824
:1008F00021F038014CEA010CA3FB0002912184F89D
:1009000016C001FB032104A3D3E90023FFF7E8FB92
:10091000206210BDAFF300808D49FD1A0700000072
:10092000002AE784000000002DE9F047044600F1AA
:10093000280190F8380094F82630514DDFF84491A2
:10094000C0F3400060F386138CB084F826300CF0BE
:100950005FF994F82620E38D4B48246102F0790278
:10096000002784F826209121A3FB0002C4E9027726
:10097000277001FB032140A3D3E90023FFF7B0FB5D
:10098000424A636B2363651BA2FB05250933C5F34C
:100990004715984205EB45028FBF636003466060D0
:1009A000276349F8223006460CF0E0F8636900F14D
:1009B00009074FEA450A002B44D00DF12C08AA4440
:1009C00009EB8A030993CDF820800694E38D2E4825
:1009D0004FF00009A3FB0002CDF80C90912101FB20
:1009E0000321636804932A4B07932A4B0593022340
:1009F0000B9321A3D3E90023FFF772FB104619469E
:100A00004FF47A720023FFF76BFB0435EDB2CDE9AA
:100A1000016003213B462A46CDF8009048460BF082
:100A200043FF41460DF036F840B994F8383043F0B2
:100A3000010384F838300CB0BDE8F0870C200CB00E
:100A4000BDE8F0870DF12C08CDE90A336168434613
:100A50000AAA032001F068F90028B0D10B990E48CA
:100A600005A3D3E90023A1FB0001FFF739FB0A9B93
:100A700020F07F471F44A2E78D49FD1A07000000C0
:100A8000280A0020B41B0020002AE784898888886F
:100A900009CD00001D03010000CA9A3B00000000C0
:100AA0002DE9F04F05468BB08B4601200221994677
:100AB000144618F0B9FE00220221824601200AF0F5
:100AC0001FFB3F494FF4C07228460AF0A9FA461DA1
:100AD0003C4B0093F6B201954B4632460121002073
:100AE0000BF09CFF10F0FD0F0ED0374A3749384805
:100AF00040F6B4031EF0F0FB002383F31188BFF32C
:100B00006F8F0323184602DF324BA4FB03482046B5
:100B100029A3D3E900234146FFF7E2FA2E4B20F048
:100B20007F47A7FB03310722E01A02FB071168EB9E
:100B300001014FF47A720023FFF7D2FACDE9017078
:100B4000CDF800B008950695696895F937402348B7
:100B50000491234931EA240128BF01460591214C23
:100B600007944FF6FE7103914B4632460121002057
:100B70000BF066FE10F0FD0F0ED0134A1349144817
:100B800040F6C9031EF0A8FB002383F31188BFF3CE
:100B90006F8F0323184602DFBAF1000F02D10BB0AA
:100BA000BDE8F08F0122022110460BB0BDE8F04FE6
:100BB0000AF0A6BAAFF300808D49FD1A07000000C5
:100BC000680A002021080100FC320200C033020044
:100BD000902B020000CA9A3B8D49FD1A6961010001
:100BE0001D630100C10701002DE9F0418468A28C5A
:100BF0004FF6FF739A428CB044D00546204612F05F
:100C0000FBFB2B7D012B00F03981022B00F02C81A6
:100C1000002B00F00B8194F83861002E40F0278102
:100C20002B8AE78D94F93720CDE90A666BB3002A49
:100C3000C0F271810023A4F87231AB7CA28D03F065
:100C40000303551C012BADB23AD0B4F87631002B1A
:100C500000F01D81AB4240F271815B1B9BB2002210
:100C6000062BA4F87631E28540F20E8194F93730F4
:100C70009342C0F26881002325E09DF827102046AA
:100C800010F0A4F90CB0BDE8F081002AB8BF84F8D8
:100C90005D61AB7CA28D03F00303551C012BADB24B
:100CA0000ED0B4F87231002BCFD0AB4240F2558158
:100CB0005B1BA4F87231B4F87631002BCAD102E084
:100CC0000023A4F8763194F83C2063F3820284F880
:100CD0003C2029460DF12702204612F0D9F8743045
:100CE000CBD0B4F870312BB1AB4240F205815B1B25
:100CF000A4F87031B4F86C312BB1AB4240F2F38000
:100D00005B1BA4F86C31E58D16B9AF4200F0E280B0
:100D10000135ADB294F8B53013F0010731D1DDE9FA
:100D20000A130A46002B40F0E580002900F0D48029
:100D30001F461846A28C24690694CDE90356053255
:100D4000A54D0290CDE90017D2B2012100200595F2
:100D50000BF00AFE10F0FD0F94D00CF0C5FE84429B
:100D600090D09E4A9E499F4840F282531EF0B4FAAA
:100D7000002383F31188BFF36F8F0323184602DF2C
:100D800080E794F937206FF30003002A84F8B53028
:100D9000C0F2988094F85800C0F3C00100F007003A
:100DA00016F05CF994F8582094F8593002F00301D9
:100DB0002831C2F34002C900D14003F003022832B7
:100DC000C3F34003D200DA40E38B03F23F13B1F5E3
:100DD000A07F2CBF5B1803F5A073B2F5A07F2CBFDA
:100DE0009B1803F5A07303447F4A80480721E3FB67
:100DF0000021104676A3D3E90023FFF771F9DDE95E
:100E00000A1320F07F4260686260904235BF171A73
:100E1000801A002000270A46002B8BD157EA010CCC
:100E200088D1002858D019461F4683E794F87230BD
:100E300003F01803182B7FF4EEAE218DB4F86E2169
:100E40008B1D9A42C4BF931F5B1AB4F86A11CCBFC2
:100E50009BB21346994200F09C80A4F86A31A4F832
:100E60006C31A4F87021D6E63D2684F8386131460D
:100E700020460CB0BDE8F04110F0A8B80023A4F85B
:100E80007031A4F86C31C6E6012633461BE7E28CCC
:100E9000052A97BF013240F2E2434FF4FA7392B24F
:100EA00003FB02F2B4F8743142F2107101FB032328
:100EB000013BB3FBF2F39BB2A4F87631002B7FF435
:100EC000C9AE00E794F85900012100F0070016F0C0
:100ED000C7F867E735461DE7002D43D000271146C8
:100EE00038463B4626E70023A4F86C31204612F032
:100EF00071F808E738461DE70CF08AFD0146A0B3FB
:100F00000023A4F87031A38CC3801B2303710068F5
:100F10000CF050FDEEE694F85D316BB3013B84F8C4
:100F20005D3104F1B808404611F07AFDB8B340468F
:100F300011F076FDB8B30023E3857BE60821204657
:100F400010F044F89EE6A7B9D4F860315A0813F0BF
:100F5000010336D1C4F860218DE63E21204610F011
:100F600035F88FE6002EB9D18CE60123A4F8703154
:100F7000C0E613460126A6E60AAA0BA92846FFF7F3
:100F80002BFADDE90A231343CBD0237884F85D31B3
:100F9000C7E7B4F8701100297FF43DAE5FE7FF208A
:100FA0000FF0D6FFC3E70246D4E917010AF070F844
:100FB0000028C0D194F83C301B0744BF238DE38543
:100FC00038E642F000421E46C4F860213B467AE60D
:100FD0008D49FD1A070000007D070100FC32020068
:100FE0000C340200902B02008C49FD1A00CA9A3B77
:100FF0002DE9F04F87B0CDE90432BDF844200378E5
:101000000192BDF84820BDF840B0BDF84C80078E75
:10101000009104460292002B00F01381013FBFB201
:1010200094F85800D4F8F490A7EB08039DB2C0F3ED
:10103000C00100F00700039516F010F8E68C052EAD
:1010400040F2068116FB05F6BBF1050FB6B240F281
:10105000E24A40F2088194F8592094F8581002F0BE
:1010600003032833C2F34002DB00D34001F0030244
:101070002832B3F5A47FC1F340014FEAC20222FA3D
:1010800001F238BF4FF4A473B2F5A47F2CBF9B18B4
:1010900003F5A47303F2D5131844834A834B072145
:1010A000E0FB023118464FF09613E3619623238448
:1010B0007BA3D3E90023FFF713F85D4620F07F40C0
:1010C00040F2E2430AFB06F103FB05F54B1E2B44FD
:1010D000B3FBF5F31FFA83FA05FB0AF3994260604C
:1010E000564680F0A0807048591AA1FB00016CA3FD
:1010F000D3E90023FEF7F4FF20F07F408144638DA5
:10110000B4F8FC201344984494F83730A8EB07084F
:101110004644DB09668500F0B280236C0399624F78
:1011200003FB01F102FB03320B46A16C0A44616C24
:101130008A4294BFC3EB0203C3EB0103A36416F01E
:10114000C3F9064694F85C01C0F3420016F0BEF9FC
:10115000064405FB06F6564B06F5742606F23F26B6
:10116000A3FB0636B60CA36C26640AFB06F06A08DD
:101170000344963A934228BF1346C4E91123059BC2
:1011800040F2E24808FB03F323650023A0FB0701BC
:10119000C4F8643142A3D3E90023FEF7A1FF049B06
:1011A000A9EB00094348A0FB0330800A08FB00F0CC
:1011B000A0FB07013AA3D3E90023FEF791FFAE1B82
:1011C00020F07F47019B2385029BA4F874312946B8
:1011D0002046A4F826B011F097FE374B218D2B4402
:1011E000881DB3FBF5F39AB29042A4F86E2104D2A5
:1011F000C1F57F41FA310A4492B2009BA4F86A21FA
:1012000013B10023A4F876314B46324639462046C6
:10121000FFF746FC94F8683143F0010384F8683125
:1012200007B0BDE8F08F2048C91AA1FB00011CA33C
:10123000D3E90023FEF754FF20F07F40A9EB00091B
:101240005DE7438D1F44B0F8FC301F44BFB2E7E6B2
:10125000039B013616FB03F6BBF1050FB6B24FF444
:10126000FA7A3FF6F8AE4FF096130BF10105E36101
:1012700096232384ADB20A204FF4FA7322E7049B2D
:101280000948A3FB000106A3D3E90023FEF728FFCA
:1012900020F07F472E46013794E700BFAFF3008070
:1012A0008D49FD1A0700000000CA9A3B8C49FD1ABF
:1012B00083DE1B435917B7D17FC3C901000000006B
:1012C0002DE9F04F134615460A6853F8087BD2F80B
:1012D00000A0B0F82EC00246044652F82EBBD0F84B
:1012E0001E0094F81C900E469178628CA5F808C0F8
:1012F0009970D4F82A306B6091B0D4F83A30C5F8C0
:101300002230ADF83C2094F83E2085F826200E903F
:1013100010AA12E9030005F122030C90ADF8341075
:10132000184605210AF038F895F8273000F03F00FC
:1013300060F3050385F8273094F83F30C3F30402C7
:1013400085F82820A28EEA820128C9F380190DD9D8
:1013500003F01F031B3303F01F030B2B06D892B2BD
:10136000063A92B240F67A439A4217D90022CAF856
:10137000082095F82C3062F3000385F82C30012604
:10138000E5682671584621460CF008FB28682E7146
:10139000294611B0BDE8F04F0CF00CBB33680021BA
:1013A0005960E38EB5F816802B8340F2E24303FBCD
:1013B00008F83846638E0B9311F0BAFD94F83F207D
:1013C00097F85C11520962F3430187F85C1116F03B
:1013D0007BF80A9097F85C01C0F3420016F076F8AB
:1013E0000A9A104408FB00F0B74A00F5742000F296
:1013F0003F20A2FB00204FEA5802800C963A286357
:101400006A6394F8312040F2E24302FB03F36B6419
:10141000238FA7F874314146384611F075FDAB4B68
:10142000AB4AC7F878214344B3FBF8F39AB2A7F864
:101430006E21298B881D824204DDC1F57F41FA317E
:101440000A4492B2A7F86A216B68C7F86031234654
:1014500013F81C2FC2F340120A92DA0700F10C8134
:10146000BDF83430A4F823300C9884F81E904FF463
:101470008073C4F81F00A383EB8AE3842B8B23853E
:10148000B7F87431638597F85C31C3F3420384F88D
:101490002C3038460FF038FAA882E08021465846B2
:1014A00074680CF07BFAAB8AE3801C2323710A9BDF
:1014B000D4F80090002B40F0D3800A9B237721467C
:1014C00048460CF077FA95F8499095F848B009F03D
:1014D00007090BF0070B0121484615F0C1FD0BF081
:1014E00003032833CBF3400B09F00302DB0023FA9C
:1014F0000BF32832B3F5A47FC9F340094FEAC202C7
:1015000038BF4FF4A47322FA09F2B2F5A47F2CBFBE
:101510009B1803F5A47303F2D5130344DFF8B491C9
:1015200004466D480721E3FB09014FF09613C5E916
:10153000033363A3D3E90023FEF7D2FD20F07F40FD
:101540007860F3680B982A6B40F2E24101FB0031AE
:1015500001F2B341891A0C1B01200221A8EB0208F9
:10156000002209F0CDFD50460EF0DAFD0246A4FB44
:101570000901144652A3D3E90023FEF7B1FDCDF8CB
:1015800004A0B3685549009120F07F4BA21C3A3B60
:10159000D2B25B44012100200BF040FA01287AD03E
:1015A0009AF81830DB0753D438460FF0ADF9494BA1
:1015B000A8FB0389044642A3D3E9002340464946D9
:1015C000FEF78EFD464BB668464A079220F07F45EF
:1015D000A5FB0331B8EB0300434B05934FF4F873BD
:1015E000069708937B684FF0000ACDE903A34FF0FC
:1015F000070303FB051169EB01014FF47A72002325
:10160000FEF76EFD05343A3EE4B2CDE90150CDF867
:1016100000B033462246012150460BF011F910F07C
:10162000FD0F0DD0314A3249324840F2F1131DF01E
:1016300053FE8AF31188BFF36F8F0323184602DF2E
:1016400001220221104611B0BDE8F04F09F058BD4B
:10165000002301220093184611460BF09DF9A3E7E1
:1016600095F8273043F0400385F82730281D15F002
:1016700045F80123288521E71C4A1F491D48FD2301
:101680001DF02AFE002383F31188BFF36F8F03231D
:10169000184602DFE4E60CF027FA824580D0134AB0
:1016A000164914484FF426731DF016FE002383F3E9
:1016B0001188BFF36F8F0323184602DF70E700BF66
:1016C0008D49FD1A0700000083DE1B437FC3C9015B
:1016D000404B4C0000CA9A3B8C49FD1A296101001D
:1016E0008D49FD1AF560010069610100D4380200DE
:1016F000C0330200902B0200E42F020030390200B8
:101700002DE9F04F8BB09A46BDF858300593CDE9DE
:101710000301BDF85C309DF85470BDF860800693FD
:10172000002093460EF0E6FE002800F01E8107F030
:101730000105044628460BF05BFA002D4CD1D4F885
:10174000149004F110030793B9F1000F4BD06669B0
:10175000356896F84800C0F3C00100F0070015F0A6
:101760007DFCF389B64A00F2CF300344B548072127
:10177000E3FB00211046B0A3D3E90023FEF7B0FC41
:1017800020F07F40686094F8381067F3420184F8D5
:10179000381094F827106AF30001DDE9032384F878
:1017A000271014990968A16114998988A183A4F864
:1017B000248004F11000CDF800B00021FFF788F874
:1017C000606315F02FFE002840F0D3802046FFF71D
:1017D000ABF80BB0BDE8F08F062109F035FC00280E
:1017E000ADD11220F5E70CF0C1F80790002800F009
:1017F000FD800FF07DF80546002800F0F4801430DD
:1018000009F0DEFD05F11006002840F0DE8003211E
:1018100005F1180015F0E0FA069B2B85E86E059B94
:10182000EB844FF6FF73AB84002800F0E18005F1F4
:10183000600205F15C0109F013FCB5F8583023F49F
:10184000EF6323F0070343F48C7343F00103A5F81F
:10185000583095F872304FF0000923F0070385F8EF
:101860007230C5F86C90A5F87090A5F82A90C5F86C
:101870002E9005F1320014F0EBFE95F8373060F34E
:101880000503012185F837300DF1270015F0A4FA82
:101890009DF827206C4B85F83990A3FB0213DB08D9
:1018A00003EB4303A2EB830295F83730298DA5F8AB
:1018B000769103F03F0385F8373095F83C30A5F872
:1018C0006C91053223F0070385F83820059A85F8D6
:1018D0003C3040F2E2495D4BA5F8748109FB02F906
:1018E0004FF4C0224B44C5F87021881DB3FBF9F3B7
:1018F0009AB28242A5F86E2102DD063A521A92B2DD
:10190000A5F86A21284611F087FA4946284611F0C1
:10191000FBFA4FF00009079BC5F83C3185F8389178
:101920000FF070FA95F87C3160F3020385F87C3192
:101930000FF06EFA95F87C3160F3C50385F87C31C1
:1019400095F8683169F3410385F8683105F1B8000D
:1019500011F024F84FF09613C5E907336661C5E925
:10196000029985F800902D61F3E60C200BB0BDE8DC
:10197000F08F6569EB6D73B1354A3649364840F2F0
:1019800021431DF0A9FC002383F31188BFF36F8F5F
:101990000323184602DF05F1500105F14C0009F060
:1019A00063FB0646002836D02F68EE65D7F83C5119
:1019B00015B328460BF0E0FF38460EF09FFF0023DA
:1019C000032063610BB0BDE8F08F214A2349224810
:1019D000C1231DF081FC89F31188BFF36F8F0323AE
:1019E000184602DF13E707980BF0C6FF0720F0E662
:1019F00005F16400E8661AE7154A1949164840F2ED
:101A00002A431DF069FC85F31188BFF36F8F032310
:101A1000184602DFCDE70E4A11490F4840F2234332
:101A20001DF05AFC86F31188BFF36F8F032318460D
:101A300002DFB9E7AFF300808D49FD1A070000000F
:101A40008C49FD1A00CA9A3BABAAAAAA7FC3C90156
:101A500060390200D8310200902B0200482C0200AD
:101A60004C330200000000002DE9F04F04468DB019
:101A7000067F238D406AADF82C30E307C6F3C0170C
:101A800088461546C6F340160A9000F1DF80A77716
:101A9000BDF82C300A98A4F823300027A783C4F897
:101AA0001F00D8F80030D3F800A0EB8AE3842B8B1A
:101AB0002385BAF82430638515F004FD84F82C00E2
:101AC000D5F8009048460EF01FFF3946A882E08006
:101AD000484611F02DFAD8F80470206821460BF022
:101AE0005DFFAB8AFB801C233C683B71002E40F0FD
:101AF000BD803E77394620460BF05CFF95F84800E4
:101B0000B5F816B0D8F80C70614C40F2E243C0F35F
:101B1000C00100F0070003FB0BFB15F09FFA002249
:101B200002213F1A012009F0EBFA50460EF0BAFCF0
:101B3000A7FB044754A3D3E90023054639462046B2
:101B4000FEF7CEFACDF804A0D8F80830514900913C
:101B500020F07F462A1D3A3BD2B2334401210020B7
:101B60000AF05CFF10F0FD0F0ED04B4A4B494C4879
:101B700040F241331DF0B0FB002383F31188BFF323
:101B80006F8F0323184602DF4FF0000A53460322EB
:101B90000121CDF800A050460AF0FEFE48460EF0A6
:101BA000B3FE05463A4838A3D3E90023ABFB000156
:101BB000FEF796FA19463B4BD8F8088008933A4B43
:101BC000069340F27133CDF81C900993D9F8043094
:101BD0008346CDE904A3104600234FF47A72FEF742
:101BE0007FFA324B0722A6FB0331CDE902B002FB9C
:101BF0000611E01A67EB01014FF47A720023FEF739
:101C00006FFA0535A8F13A08EDB2CDE90060434618
:101C10002A46012150460AF02FFE10F0FD0F0DD08C
:101C20001D4A1E491E4840F272331DF055FB8AF3CF
:101C30001188BFF36F8F0323184602DF01220221B0
:101C400010460DB0BDE8F04F09F05ABA124A1849D3
:101C5000134840F2BD231DF03FFB002383F311889E
:101C6000BFF36F8F0323184602DF10E795F8273084
:101C700043F0400385F82730281D14F03FFD01266E
:101C8000288536E7AFF300808D49FD1A0700000074
:101C900000CA9A3BE562010060390200C0330200CD
:101CA000902B0200E96201001D6301008D49FD1ABD
:101CB000E42F020000000000052801D0002070473A
:101CC00070B500200D460EF027FE044638B190F99D
:101CD0003730002B05DA40682860204670BD0020B0
:101CE00070BD90F858000E4EC0F3C00100F0070020
:101CF00015F0B4F90B4A00F265400721E0FB06211C
:101D0000104605A3D3E90023FEF7EAF920F07F404F
:101D1000E2E700BFAFF300808D49FD1A0700000025
:101D200000CA9A3B8C49FD1A2DE9F04F93B0FF276A
:101D30000B930B1D0A930023CDE90E33054616467F
:101D40008DF83770994608933C4698469A460DF1AF
:101D5000400B614B0593614B03930FAB01930EABAB
:101D60000020009302231093CDF818B00490029045
:101D700033460DF1370229460AF094FE022812D0AC
:101D8000109BB3B9FF2C25D03368434522D0002FD8
:101D900050D0013FFF24FFB28DF83740D9E72946E4
:101DA00000200AF0CBFE109B022BF8D0109B002BDA
:101DB000E8D04B4A4B494C4840F2D9131DF08CFAFD
:101DC000002383F31188BFF36F8F0323184602DFCC
:101DD000FF2CD9D19DF83700FF283AD011A9FFF781
:101DE0006BFF0028B5D09DF83730052B18D0FF2C9D
:101DF000DDF83880119B0AD04946404609930AF025
:101E0000B7FE0A9B03EB0A029042099B23D89A462D
:101E10000F9B9DF837400893C146D6F8008098E79D
:101E200000200EF079FD0028E1D090F93730002B2A
:101E3000DDDA8EE72D492A4A2B4840F2E1131DF0E6
:101E40004BFA87F31188BFF36F8F0323184602DF25
:101E50009FE7FF2C37D026480721AAFB000301FB90
:101E60000A311BA3D3E90023FEF73AF9044600B177
:101E70003E3408991F4AA1F57423A3F510739342C9
:101E800017D81B480721A9FB000301FB093110A348
:101E9000D3E90023FEF724F9089A174BA3FB02238A
:101EA00004EB93440B9B044400201C6013B0BDE87A
:101EB000F08F01F1E87303F5D43303F5A57309F14D
:101EC000FF390893DDE76FF0090013B0BDE8F08F2C
:101ED00000CA9A3B00000000F5650100F9650100A9
:101EE000AC390200F0390200902B0200F8390200F0
:101EF0008D49FD1ABFBDF07F83DE1B43000000004B
:101F00002DE9F043C668476873683D491A68D0F800
:101F10000090A7F57423A3F510738B4283B080461D
:101F200007D907F1E87707F5D43709F1FF3907F545
:101F3000A57773685168DD8ACDF8049006F1100327
:101F400001AA0220FFF7F0FE00284ED10199A1EB73
:101F500009031B0237D4084649460AF009FE034626
:101F600028480721A3FB000201FB032122A3D3E998
:101F70000023FEF7B5F834690444002C346109DB12
:101F800040F2E24305FB03F3A3422FD2E41AA3423B
:101F9000FCD33461D8F800301A48A3EB0903A3FB43
:101FA0000002072101FB032113A3D3E90023FEF75D
:101FB00097F8154BA3FB0737A0EB974020443061FF
:101FC00003B0BDE8F08348460AF0D2FD03460D4851
:101FD0000721A3FB000201FB032107A3D3E9002390
:101FE000FEF77EF83469241AC7E73469002CD1D192
:101FF00003B0BDE8F08300BF00CA9A3B00000000B8
:10200000BFBDF07F8D49FD1A83DE1B430000000039
:10201000F0B5C468636883B00546002B4FD116F055
:10202000BFFF002017F012F80021084617F000F853
:1020300000222521082017F03DF83D4B019301A80F
:1020400017F024F83B4940F25B6017F0D9F8237A87
:10205000C3F3420262F306132372204615F03CFCE0
:1020600027682E68384614F0A1FF06446A6806F116
:102070000901012017F002FA17F0F0FA20460EF0DD
:102080005BF8811C3246C9B2384614F091FF054610
:1020900000BB204614F024FF10B9002003B0F0BDAF
:1020A000254A2649264840F229431DF015F985F3B3
:1020B0001188BFF36F8F0323184602DFEDE793F813
:1020C0002C309B07ABD01F48214616F027FF17F096
:1020D00043F8E2E7184A1C49194840F211431DF041
:1020E000FBF81A4B0721A5FB030301FB05310EA3E7
:1020F000D3E90023FDF7F4FF1549024615481DF00A
:10210000EBF8002585F31188BFF36F8F0323184682
:1021100002DF1148214616F001FF17F01DF86FF09D
:102120008B00BBE7AFF3008000CA9A3B00000000C1
:10213000D6BE898E55555500C03B0200782D020051
:10214000902B0200397101006C2C02008D49FD1AA0
:10215000703C0200443C0200D97401000000000001
:102160002DE9F041C46894F91630002B8CB0C0F210
:10217000DA80636805460E46002B40F0C980A37DD7
:102180006FF30003A37516F00BFF002016F05EFF3F
:102190000021084616F04CFF00222521082016F0E9
:1021A00089FF01200BF054FD0746002800F0A180B4
:1021B00007F11C0016F0A8FF754B0B930BA816F047
:1021C00065FF744940F25B6017F01AF8A07DC0F318
:1021D0004100253014F0FEFE6F48214616F09EFEA9
:1021E000A37D9B0602D46368002B7FD0962017F056
:1021F00039F900231A461946184617F06BF8D4F837
:1022000000802F68404614F0D1FE07446A6807F149
:102210000901002017F032F917F020FA17F0CAF878
:1022200020460EF04BF9011DC9B240463A4614F063
:10223000BFFE804600287DD116B9236A002B31D11C
:1022400063683BB1554B0122022100209D6008F0DC
:102250008BFFB8B9204614F043FE18B900200CB02B
:10226000BDE8F0814E4A4F494F4840F20B231DF024
:1022700033F8002383F31188BFF36F8F03231846CD
:1022800002DFEBE7464A4949474840F206231DF082
:1022900023F8002383F31188BFF36F8F03231846BD
:1022A00002DFD7E7424A0792424A059240F2F31210
:1022B00000930892CDE90366CDE9016606943B469A
:1022C000032231460AF0BCFA10F0FD0FB8D0344AB0
:1022D000394935484FF4FA731CF0FEFF86F3118834
:1022E000BFF36F8F0323184602DFA9E717F052F8F8
:1022F00085E72B4A31492C484FF4C5731CF0ECFF9D
:1023000087F31188BFF36F8F0323184602DF4FE76F
:10231000636893F82C30D90705D4636893F82C30A0
:102320009A077FF52CAF2648214616F0F7FD16F0E8
:1023300013FF93E71A4A23491B4840F2E5131CF0A8
:10234000CBFF214B0721A8FB030301FB08310EA3A0
:10235000D3E90023FDF7C4FE1C4902461C481CF0CB
:10236000BBFF002585F31188BFF36F8F0323184649
:1023700002DF1848214616F0D1FD16F0EDFE6FF091
:102380008B006CE7AFF3008000CA9A3B00000000AE
:10239000D6BE898E5555550079240000880300204B
:1023A0007C3C0200782D0200902B0200802C020061
:1023B000E17E0100897F0100243102000C3C020013
:1023C000397101006C2C02008D49FD1AC83C0200D5
:1023D000443C0200E17D010038B5044615F0C0FC24
:1023E000A37DA27DC3F34103013303F00303032B59
:1023F00008BF002363F3420214BF03F12500252028
:10240000A27514F0E7FD63680BB123694BB90AF0BC
:10241000ADFBC11C002017F0A5F8BDE8384017F04F
:102420001DB917F0CDF805460AF0A0FBC11C00202D
:1024300017F098F817F012F917F0C2F829460AF0C9
:1024400097FB0B4A03460721A0FB020201FB032175
:1024500005A3D3E90023FDF743FE23691B1A23617B
:1024600038BD00BFAFF3008000CA9A3B00000000F7
:102470008D49FD1A000000002DE9F0478AB004469E
:1024800016F0A8FEC0B250B914F0FEFDB8482146BF
:1024900016F044FD0AB0BDE8F04716F05DBE16F038
:1024A000BBFE054616F0BEFF064616F0C5FF16F049
:1024B0009BFFEDB2074616F07BFF14F0E5FD002D03
:1024C000E4D001200BF0C4FB0546002800F0338166
:1024D00094F8168018F0080FC8F3C10AC8F3C001B9
:1024E00040F0C0802E7F6268FFB206F00F03002A22
:1024F00000F0BD80626892F82C20920700F1B7804E
:10250000072BC3D099B9E27DC6F3801102F0010216
:10251000914240F0AC80062205F11E0104F1080052
:1025200007931FF0F7FD079B002840F0A080002BC9
:1025300040F02A816B7F063B1F2BA7D804200BF0AD
:1025400087FB0028A2D017F091F8236A064643B90A
:10255000E38B40F2712202FB03F3B0FBF3F203FBC7
:1025600012062268834B52680721A2FB030301FB7A
:1025700002317DA3D3E90023FDF7B2FD6FF442736E
:10258000C3181F3B4FF0000747F1FF32B34272F10F
:102590000002FFF47BAF16F0FDFEA67D636816F027
:1025A00049FE05F11E03019309AB0493C6F380169F
:1025B00004F11803029603932B7FC3F380130146A3
:1025C000064600933A460123204615F09BFD30460F
:1025D00016F0A0FD16F0EAFD002840F08181664863
:1025E000214616F09BFC626892F82C3043F0010300
:1025F00082F82C30A37D43F08003A3750BF042FBDF
:10260000172303714FF6FF73C38095F81CE007464C
:102610003346CEF3401E00F11C0206F1200C1D686B
:1026200058689968DE68D66010336345156050605D
:10263000916002F11002F2D11B6813603B7FBC6015
:102640006EF345133B7716F0BBFF099BC7E9040304
:102650000BF018FBF860386839460AB0BDE8F0475F
:102660000BF03ABBF6B2002E3FF410AF3AE7002B66
:1026700070D16A7F052A7FF609AF252A3FF606AF9B
:1026800008F02101202940F0C1806268002A00F092
:10269000D080062B3FF6FAAE4FF0450929FA03F930
:1026A00019F0010940F0B180012B00F0B380042B38
:1026B0007FF4ECAE6B7F063B1F2B3FF6E7AE18F0C6
:1026C000010F3FF4E3AE16F0B5FD2E7F0278C6F39E
:1026D0008013B3EBD21F7FF4D9AE0830062205F188
:1026E0001E011FF017FD00287FF4D0AE6B7F002B7A
:1026F0003FF4CCAE636823B106F00F06072E7FF4DB
:10270000C5AE03200BF0A4FA054600283FF4BEAE88
:102710000BF0B8FA4FF6FF73EB8005232B71E7B986
:102720007F206B7E287669F3000328686B76294644
:102730000BF0D2FAAAE6114A1149124840F2C72317
:102740001CF0CAFD85F31188BFF36F8F0323184671
:1027500002DFBDE6062B8CD09BE716F035FEC0B23B
:10276000DFE700BFAFF3008000CA9A3B0000000023
:10277000F97D01008D49FD1AD17F01007C3C0200EA
:102780000C3C0200902B0200012BE3D16A7F0C2A43
:102790007FF47CAEC8F38013B3EBD61F4FEAD61993
:1027A00000F0AD80BAF1010F1ED9B9F1000F06D0CB
:1027B00095F8293003F0C003402B3FF4BFAEC8F3B7
:1027C0008018B8EBD61F4FEAD61913D0B9F1000F15
:1027D0003FF45CAE95F8293003F0C003402B7FF442
:1027E00055AE4FF0010985E7C8F38019B9EBD61F44
:1027F0007FF44CAE062205F1240104F118001FF00D
:1028000089FC90B94FF0000974E76A7F063A1F2AE5
:10281000F8D93BE66A7F0C2A7FF438AEC8F38018FB
:10282000B8EBD61F4FEAD619E4D0BAF1010FCDD8D4
:102830002CE69620079216F015FE079A104616F021
:1028400001FD03200BF004FA064600283FF41EAEFB
:102850000BF018FA4FF6FF73F38005233371002F46
:1028600058D17F23727E33766FF300027276314641
:1028700030680BF031FA16F0DDFC0378032666F3BE
:10288000030303702B7F0278C3F3801363F3C71233
:102890000C2302704370A37DD2B2C3F3801363F3A1
:1028A0008612034603F8022BA269C0F80220A28B0D
:1028B0009A80D5F81E3083606B8C838116F02AFCD9
:1028C00016F074FC50BB16F0C9FEA37D1B4843F004
:1028D00001032146A3750AB0BDE8F04716F01EBB00
:1028E000174A1849184840F2AF431CF0F5FC87F32B
:1028F0001188BFF36F8F0323184602DF6FE60622AD
:1029000005F1240104F118001FF004FC00283FF435
:1029100015AE47E716F058FDC3B2A3E7084A0949C8
:10292000094840F233531CF0D7FC002383F311888D
:10293000BFF36F8F304602DFC5E700BF0D7E010099
:102940007C3C0200143C0200902B020000000000BE
:102950002DE9F041C468A28A4FF6FF739A4282B013
:1029600000F0DF80054615F0E1FC2B89628B208C9E
:10297000A3831A4492B2104494F82730E28380B2C1
:10298000411C21845E064FF00001618304F12201A5
:1029900000F1A18003F03F000B4694F8281000904E
:1029A00004F1290013F062FE0646D4E90C31A28B33
:1029B00002FB0333A26B1344E26B8B4294BFD21829
:1029C00052188A4228BF0A46E263616C226C94F86E
:1029D00049301144616494F8622094F82C10C3F3D8
:1029E000020363F3061112F004024FF0000384F8AF
:1029F0002C10A363236478D016F0D2FA002016F0CE
:102A000025FB201D16F042FB2389A17A40F25B6072
:102A100043EA014116F0F4FB304614F0DBFA21469C
:102A2000594816F07BFAA08916F01CFD94F848204E
:102A300094F84900C2F3C003002102F0070200F03D
:102A4000070016F047FC204615F038FD27682E6871
:102A5000384614F0ABFA06446A6806F10901002012
:102A600016F00CFD804616F0CDFD002016F0E4FDBA
:102A7000E36B94F8490003F12F02636C00F0070048
:102A8000012103EB420516F053FB4544054494F83D
:102A9000490000F00700022825D004280CBF4FF49D
:102AA000BC73282301211D4416F044FB284416F072
:102AB0009BFDA18A05313246C9B2384614F078FA36
:102AC0000546002834D1204614F00AFAD0B9002077
:102AD00002B0BDE8F0810A4603F03F03218D13F0F8
:102AE00011FE064661E71823DCE7D4E9130108F07C
:102AF000CFFA002880D194F8623043F0040384F8C0
:102B0000623079E7214A224922484FF4B0731CF021
:102B1000E3FB85F31188BFF36F8F0323184602DFB1
:102B2000D5E71D48214616F0F9F916F015FBCEE75A
:102B3000164A1A4917484FF4AB731CF0CDFB184BDB
:102B40000721A5FB030301FB05310DA3D3E90023F6
:102B5000FDF7C6FA1349024613481CF0BDFB0025D9
:102B600085F31188BFF36F8F0323184602DF0F48E8
:102B7000214616F0D3F916F0EFFA6FF08B00A7E7B5
:102B800000CA9A3B000000002D8701005C3D020056
:102B9000782D0200902B0200397101006C2C02008C
:102BA0008D49FD1AB03D0200443C0200197101003C
:102BB000F0B5C468A28A4FF6FF739A4285B000F060
:102BC0008F80054615F0B2FB2B89628B208CA38386
:102BD0001A4492B2104494F82730E28380B2411C28
:102BE00021845E064FF00001618304F1220160D46C
:102BF00003F03F000B4694F82810009004F12900E0
:102C000013F034FD0646204603A915F031FD039B61
:102C100094F862101A7861F3C3021A70039A94F858
:102C200062301178C3F3400363F38201117016F030
:102C3000B7F9002016F00AFA201D16F027FA2389AA
:102C4000A17A40F25B6043EA014116F0D9FA3046BE
:102C500014F0C0F90399204615F0E0FC21463A48EB
:102C600016F05CF9E08916F0FDFB94F8490000F0DD
:102C7000070016F0E7FA27682E68384614F096F930
:102C800006446A6806F10901012016F0F7FB16F008
:102C9000E5FCA18A05313246C9B2384614F088F9FC
:102CA000054620BB204614F01BF950B9002005B0A2
:102CB000F0BD0A4603F03F03218D13F023FD0646C5
:102CC000A1E7224A224923484FF482731CF004FBF7
:102CD00085F31188BFF36F8F0323184602DFE5E702
:102CE0001D48214616F01AF916F036FADEE7174AA3
:102CF0001A491848FA231CF0EFFA194B0721A5FBD3
:102D0000030301FB05310EA3D3E90023FDF7E8F926
:102D10001449024614481CF0DFFA002585F3118897
:102D2000BFF36F8F0323184602DF1048214616F0C9
:102D3000F5F816F011FA6FF08B00B8E7AFF30080EA
:102D400000CA9A3B0000000051850100BC3D020012
:102D5000782D0200902B0200397101006C2C0200CA
:102D60008D49FD1A0C3E0200443C0200197101001D
:102D70002DE9F041002490B01D4616460F463C2236
:102D8000214601A800941FF0BDF93F2DA84628BF99
:102D90004FF03F084246314668461FF08BF908F174
:102DA00040030DEB0308204808F8404C1CF087FA5C
:102DB000DFF87880A54225DC1D481CF080FA1D490B
:102DC00038681CF008FE18BB062D07D11A4B326874
:102DD0001A60B2889A80194B02221A706946184804
:102DE0001CF06DFA294617481CF069FA16480621AE
:102DF0001CF065FA317815481CF061FA284610B0CD
:102E0000BDE8F081315D40461CF059FA0134D1E74C
:102E10000F4938681CF0DFFD0028DFD10D481CF099
:102E20004EFA0D4B0122D8E7A4410200B74102003F
:102E30001F4402006905002028270020F6260020F4
:102E4000DC410200EA410200F44102000C420200AF
:102E500058050020BD410200F72600201FB50624BA
:102E60000294044C0194BDF8184000941DF0CEFF6C
:102E700004B010BD204202007FB50BAB0593039355
:102E8000054B02930023CDE900330322184600F0DE
:102E9000CFFD07B05DF804FB2742020038B50748B4
:102EA000074C1CF00CFA074800211CF018F8257894
:102EB00015B903F01FFD257038BD00BF3742020071
:102EC000F62600209427020008B551B9054B0648A4
:102ED00019701CF0F4F9BDE80840044801211BF00A
:102EE000FEBF08BDF62600204B42020094270200D8
:102EF000F0B545488BB01CF006F844481CF003F8C8
:102F000041F2343000211EF09AFF002003F054FA01
:102F1000002857D13E481CF0D2F93E4D3E4F3F4E5F
:102F200041F2343000211EF08AFF01232B702C78EF
:102F3000012C4DD0022C61D0002CFBD133788BB109
:102F400037481CF0BCF900F035F9364B0393364B8B
:102F500036490094CDE90143032223462046FFF77A
:102F60008BFF3470324B1A68324B19688A4223D077
:102F7000314C1A600121317021683048013103233E
:102F800091FBF3F303EB4303C91A21601CF097F99B
:102F900023688DF81430FF238DF815300023ADF829
:102FA00016306423ADF8183040F6CD4000211EF0F5
:102FB00046FF05A800F060F800214FF4A4701EF051
:102FC0003EFFB4E71E480BB0BDE8F0401CF077B9F7
:102FD0001C481CF074F9DFF870C0BCE80F0005ACA9
:102FE0000FC4DCF8003023600024009423462246FE
:102FF000214605A804F07AFA2C7098E7384600F0CC
:103000003BF800232B7092E7942702008C270200E4
:1030100062420200F626002028270020F726002022
:10302000A54202005F4202002742020088250200FA
:10303000500E0020480E00204C0E0020C44202001A
:10304000754202008C4202009C26020010B508481E
:103050008468A36833B9236806490548BDE8104071
:103060001022184798470F28F5D86FF0210010BD9F
:1030700040230200F826002030B58BB04379089336
:1030800003790793C3780693837805934378049371
:103090000378039300243F4B029305462346CDE972
:1030A00000443D49032220461BF047FF2B78012BAB
:1030B00036D0022B4DD0002B5ED1384A36490093D2
:1030C000CDE90132184603221BF037FF28796978D1
:1030D000AC78EA78642311FB00F114FB00F4B1FB37
:1030E000F3F1B4FBF3F4C9B2E4B212FB00F2B2FBA9
:1030F000F3F2D2B22A4B00200130102819705C7014
:103100009A7003F10303F7D1FFF7A0FF00283ED028
:10311000244B02930023CDE900330390012232E0D7
:10312000214B1D490094CDE901430322234620464B
:103130001BF003FF2A7902EB8204C2EB0221642315
:103140006401B1FBF3F1B4FBF3F4C9B2E4B2920150
:10315000CDE7164B10490094CDE9014303222346E5
:1031600020461BF0EAFE2A796423C2EB02222146A4
:10317000B2FBF3F2D2B2BDE703930D4B0094CDE95D
:10318000014302222346044918461BF0D6FE0BB029
:1031900030BD00BFED420200182602002E4302009F
:1031A000F8260020A84302005543020075430200A0
:1031B0009343020070B5194C2669A568336823F45F
:1031C000006333602B684FF480320B212046984710
:1031D00033681B054FF4006154BFEB682B69204630
:1031E00098470E480B211BF0B7FEA0B942200021E2
:1031F0001EF025FE0A4A094C1368013313600B21A7
:1032000020461BF0A9FE08B1012070BD002121203D
:103210001EF015FEF3E70020F7E700BF8022020052
:10322000500E00202DE9F04F91B08407009302F07A
:1032300004030293C2F3C20303F10103DDF86880C3
:10324000039205460E46059340F0BA81041D30B145
:10325000072909D86FF01B0011B0BDE8F08F01F00D
:1032600007063444C6F10806009B4FF00009591EBA
:103270004FF0040A4FF0FF330193CDF810904F4602
:10328000CB4653460DB1009A22600598002800F302
:10329000E8809848009A824203D397488242C0F05F
:1032A000E080039AA4EB050E92074FEA9E0000F11E
:1032B00003810F2F00F2B180002D00F0058107F18E
:1032C00040020DEB020C019A0CF8200C0CF8102CAB
:1032D000049801300490E7E07A285DD84B280ED896
:1032E000472859D829282DD8252852D054D8202805
:1032F0007AD02338D0F1000B4BEB000B74E04C3844
:103300002E2849D8DFE800F0704848484848484827
:10331000484848484B484848484848484859484B16
:103320004B595959704B6D487048184B1848488292
:103330007F4B48484B487F0000204FF0000B4FF078
:10334000040A38E02A38C0B2012202FA00F010EA7A
:103350000E0F49D110F0625C2FD110EA020B43D05E
:103360006046013C5444B4FBFAF40AFB04F4002D1B
:1033700061D0A3EB050CA444B4453FF66BAF002825
:1033800068D1042B47D158F8043B2360043404234C
:103390002AE0019A013A01924FF0000B24E011F863
:1033A000010C6C2834D111F8023C00206C2B8346B0
:1033B000C5D14FF0080A5346D3E708F1070828F0B3
:1033C00007080734F8E802AB24F0070435B1069883
:1033D0002044B0423FF63EAFC4E900AB08344FF0A2
:1033E000000B4FF0080A534611F8010F002878D05F
:1033F000BBF1000F7FF470AF2528F5D1019B01339D
:1034000001934FF0010B4FF0040AECE7584694E7A4
:1034100000208346A5E7082B02D06FF015001BE7BC
:1034200008F1070828F00708F8E80223C4E9002398
:1034300008340823D8E768B9042B02D108F104083E
:10344000A4E7082BE9D108F1070828F0070808F1DC
:103450000808EDE7059A013A059258F8042B009206
:1034600010E7039A900720D5A4EB050E4FEA9E00C3
:103470004FF0010CBEF5007FCFD20F2FCDD8F5B1A4
:1034800007F140020DEB020EC0B2019A0EF8200CBB
:103490000EF8102CBCF1000F3FF41AAF60F07F0063
:1034A0000EF8200C09F101090137C5F108020434B6
:1034B00006924FF6DA7E97E74FF0000CDAE7BCF1A0
:1034C000000F01D00136EFE7029802360028EBD159
:1034D0000098CDE90631FCF725FEDDE9063106440A
:1034E000E2E7631BB3F5806F97D23DB9A6F10804FC
:1034F000E018B1E620220200BC620200029A2860B5
:103500009B082B709DF81030C2B1EB7085F80290CB
:10351000B9F1000F05D008A80022C5F1010C9742AF
:103520000ED1C5F101030DF120084FF0000A0193FF
:103530000DF1300B574512D1601B8DE66B70E5E73E
:1035400010F8013B190608D50CEB040EB64503F044
:103550007F033FF67FAE04F8013B0132DFE7B9F1AC
:10356000000F03D098F90020002A17DB029BD3B18B
:103570001AF80B2004F8012B0022019B18191044A3
:10358000B0423FF667AE98F8000004F8010B0099CE
:10359000039220461EF08EFD039A14440AF1010A9C
:1035A00008F10108C6E798F8002055F8223000938A
:1035B000029B45F822300098FCF7B4FD421CDCE782
:1035C0006FF00D0048E600BF014B1860704700BF68
:1035D0009001002080B505460E46174698461AF021
:1035E0000FFF03461EF012FEDFF81890044649F85C
:1035F0000030424630463946A84754F8090000F0EA
:10360000D9FF00BF080000002DE9F047058B0446F4
:103610002807904611D4022905F0070540F0CC8018
:1036200020461BF081FE78B10138218B042811D887
:10363000DFE800F0C2106D85950001290CBF45F050
:10364000100545F02005258388F31188BFF36F8F9F
:10365000BDE8F08701F0070AAA4500F0A580002721
:10366000B9463E46A368002B00F0BC8041F008013B
:10367000218388F31188BFF36F8FA168002900F0C0
:10368000BA800D68002900F0B680D1F80480334676
:1036900052462046C047002D76D02B6829461D464D
:1036A000F0E701F007035A1F012A1BD8002221F07E
:1036B0000701062B276889B2C4E9002209D13B46DD
:1036C00003E0628B013262831B68002BF9D141F069
:1036D0000201218320461BF027FE00287AD041F00A
:1036E000200176E0042B0AD121F0070189B2218361
:1036F00020461BF019FE10B141F020012183218BDF
:1037000001F0070AAA454FD00027B946AAE7236966
:1037100021F0070141F00601062DD3F80090218326
:103720002DD1B9F1000F3FD041F00801218388F37A
:103730001188BFF36F8F3A492046C84729E021F02E
:103740000701236941F0040189B2042DD3F80490E4
:103750002183E6D000273E464FF0040A82E721F09D
:103760000701236941F0050189B2052DD3F80890BE
:103770002183D6D000273E464FF0050A72E7002786
:103780003E464FF0060A6DE72B4687E7B9F1000F7A
:10379000D1D1EFF31188202383F31288BFF36F8F09
:1037A000238B23F008032383258BEA062ED525F0EF
:1037B0001003238305F007056669218B002EBFF6F1
:1037C00070AF00232768C4E9003321F0070141F0FE
:1037D00001012183218B01F0070AAA454FF000095E
:1037E0007FF440AF002F9CD041F00801218388F383
:1037F0001188BFF36F8F002FC8D03D68394633461C
:10380000524620461BF0BCFD2F46F4E7AB067FF581
:103810001BAF25F02003238305F0070500E700BF59
:10382000ADF301002DE9F84F814630480F461BF0FB
:10383000A5FE064670B92E4CDFF8B8B00546A04686
:103840004FF0010A5C4507D3B9F1000F02D04FF0E9
:10385000010AFDB9BDE8F88F237B83B12368DB68DB
:103860000BB120469847636883F806A023681B695C
:1038700043B963680422196820461BF0A4FE013690
:103880001034DFE7204698470028F2D00AFA06F302
:103890001D43F4E7A94695FAA5F4B4FA84F40AFAAC
:1038A00004F3260108EB04146FEA030B25EA030571
:1038B000237B63B158F806301B6993B94644042250
:1038C00073682046196809EA0B091BF07CFE002D7D
:1038D000E1D127B14FF4A47000211EF0B0FA4D469B
:1038E000B7E7204698470028F1D1E7E75C0E0020B3
:1038F0008026020090260200014B53F820007047FA
:103900009C27020008B5034608462BB1044A136001
:1039100000F080FA002008BD6FF01500FBE700BF43
:10392000940100200C4A0D48002310B513700C4A76
:1039300013600C4A4FF400411360FFF7E3FF0A4B9A
:103940000A4918468B4200D310BD1A1A5C6812113E
:10395000013222711033F5E72E27002079F501009E
:10396000540E0020580E00208026020090260200EF
:1039700070B50B4D297841B90120FFF753FF094C71
:10398000094EB44202D301232B7070BD63685B798A
:103990001BB1236820469B6898471034F1E700BFAD
:1039A0002E270020802602009026020010B5044633
:1039B00008481BF0E3FD5CB1BFF35B8F064B53E897
:1039C000001F013943E80012002AF8D1BFF35B8FD2
:1039D00010BD00BF540E0020580E002070B50A4BD9
:1039E0000A4C1B680A4E05469847A860B44200D3AB
:1039F00070BD63685B7923B1236829461B68204644
:103A000098471034F2E700BF94010020802602009E
:103A100090260200044A054B9B1AB1EBD30F34BF2A
:103A200052F83100002070478825020080260200ED
:103A30002DE9F04F87B004AFD7E90EA93D6B0446DE
:103A40000E4693469846BAF1000F1ED0C7F8049070
:103A5000CDF8009010217A6B53460020FFF7E2FB6F
:103A6000B0F5006F014611D340F2FF730393194B79
:103A700002930023CDE900331749022218461BF0B8
:103A8000C4FD0C37BD46BDE8F08F514604F0070475
:103A90000BF0070BE40044EA8B1444EA412444EAA7
:103AA000055417350D4425F00705ADEB050D04ADA4
:103AB000BAF1000F07D0CDF800907A6B534605F1AC
:103AC0001000FFF7AFFB43462246314628461BF065
:103AD00083FDD6E7E643020020260200406820B1BD
:103AE000034BC01A40F3CF0070474FF0FF307047D0
:103AF000882502000EB403B503AB014653F8042B2E
:103B00000448019301F014F802B05DF804EB03B02F
:103B1000704700BF47F60100CA0605D48B064CBFAC
:103B200002490349FFF7E6BF704700BF1F44020088
:103B30001E4402002DE9F04F87B004469DF8446012
:103B40000D4690469946002E00F0A280159B03F08A
:103B5000020A03F001030493159B03F0080B03F41E
:103B6000807305931BF02DFD024600283DD095493A
:103B70002046FFF7BFFF0746BAF1000F09D0159B9B
:103B800013F0440F33D190492A462046FFF7B2FF85
:103B90000744049B53B18D4B8D4953F826208D4B20
:103BA0002046002A08BF1A46FFF7A4FF059B002BFA
:103BB00049D0BBF1000F64D1B8F1000F66D086493F
:103BC00042462046FFF796FF0546129B3D44002BD8
:103BD0006DD1149B002B73D1159BDB0700F1EB809B
:103BE00015992046FFF798FFD8E00746C4E77B4BBE
:103BF00018680028CCD07A4B4FF47A7A1B68B5FB52
:103C0000F3F54FF46163B5FBF0F100FB11550AFBCE
:103C100005F54FF03C0CB1FBF3F203FB1211B5FBC1
:103C2000F0FEB1FBFCF300FB1E550CFB13110AFB6D
:103C300005F50091B5FBF0F56A49CDE901E52046AF
:103C4000FFF758FFA4E7BBF1000F1DD0664B674993
:103C500053F826202046FFF74DFF0546B8F1000F28
:103C600005D05D4942462046FFF744FF0544B9F1BF
:103C7000000FAAD05E494A462046FFF73BFF0544A5
:103C8000A3E74FF00009E1E75D46E7E745469CE71B
:103C9000B9F1010F129B06D1002B66D1149B002BAA
:103CA0007CD000250CE0002BF8D052485EE0524852
:103CB000129B524922461BF0CDFA149B002B6AD06E
:103CC000DFF83C81DFF83C91149F1599102F2046B6
:103CD00028BF1027FFF720FF4FF0000B5D4547DCA2
:103CE000139B49461A782046FFF704FF4FF0010B5B
:103CF0001BF0070F03D141462046FFF7FBFE5F454F
:103D00003DD9139B494613F80B202046FFF7F2FEDE
:103D10000BF1010BBBF1100FEAD13B49DFF8ECB01E
:103D200020464FF0000AFFF7E5FE5246139B9A5CCF
:103D3000A2F120015F2928BF2E2259462046FFF715
:103D4000D9FE0AF1010ABAF1100F1DD01AF0070FBF
:103D500003D141462046FFF7CDFE57455246E5D8F0
:103D600041462046FFF7C6FEEBE7234835469FE76E
:103D700041462046FFF7BEFE0BF1010BAEE724499A
:103D80002046FFF7B7FEC3E7139B3B441393149BF6
:103D9000DB1B149398D1002E7FF41EAF6268A168DC
:103DA0002068D2E900231BF040FC636800221A60FF
:103DB00007B0BDE8F08F074A05492046FFF79AFE95
:103DC0000EE700BF264402002A440200AC2702008E
:103DD000C44D0200214402004F440200640E002042
:103DE000600E002033440200C0270200534402004A
:103DF0005944020063F6010047F60100314B000010
:103E0000664402005E440200684402006A44020004
:103E100064440200074A00210123904206D8064A62
:103E200001B901231360054B1860704740085B001F
:103E30000121F2E740420F00600E0020640E0020D6
:103E4000F8B5074F0D4604464618B44201D128463E
:103E5000F8BD14F8011BBB6801485B689847F4E79C
:103E6000C0220200014B03600020704708280200B6
:103E700070B5064686B00D46002938D08B6805938C
:103E80004B6804930B6803930024244B244902934A
:103E9000012223462046CDE900441BF059FC6B6902
:103EA00005932B690493EB6803931E4B1C49009404
:103EB000CDE901430122234620461BF049FCEB6972
:103EC0000393194B16490094CDE90143012223467F
:103ED00020461BF03DFCAB690393144B1049009442
:103EE000CDE901430122234620461BF031FC012E7F
:103EF0000DD1EFF30583103B03930D4B0293002389
:103F0000CDE900330649324618461BF021FC29460C
:103F1000304606B0BDE8704019F0C6B9A7440200AB
:103F200050260200D6440200054502001445020056
:103F30004245020030BFFFF7FDBF00BF2DE9F04151
:103F40000B4EDFF8308006EB0807CC1B05463246E7
:103F5000094920461EF0AEF8A01942460021083C4F
:103F60001EF0D0F86C6707F10800BDE8F08100BFD3
:103F7000000000000400000090260200054B5A6972
:103F80009B689A421FBF044A536843F080535360B2
:103F9000704700BFA826002000ED00E0F0B585B016
:103FA0000024434B0293CDE90044234607460E46C6
:103FB0000122404920461BF0E6FB3F4B9B6ADB0495
:103FC00065D53E4B3B490094CDE90143204623464D
:103FD00001221BF0D8FB1720374B9B6A1D050AD521
:103FE000374B029300231846CDE9003331490122B3
:103FF0001BF0C9FB1820304DAB6A9C051FD500246F
:10400000304B0293012223462046CDE90044294942
:104010001BF0B9FBAB6BAA6A10040FD503932A4BB4
:1040200024490094CDE901430122234620461BF098
:10403000AAFB1FB1AB6A23F40043AB6219201E4BED
:104040009B6A59050AD5214B029300231846CDE9F6
:104050000033184901221BF096FB1A20164A936A76
:1040600013F4807315D01A4B029300231846CDE940
:104070000033104901221BF086FB1B200E4A936A75
:1040800043F47F4393620023337005B0F0BD1620E4
:10409000A2E7926A9204F1D50E4A06490093CDE94F
:1040A0000132184601221BF06EFB1C20E6E700BF20
:1040B000554502005026020000ED00E06B4502006D
:1040C0007C4502008F450200A8450200BD45020064
:1040D000D8450200F04502001FB50024374B02937B
:1040E00001222346CDE90044354920461BF04BFB15
:1040F000344B9B6A9A015ED5334B31490094CDE92C
:1041000001432046234601221BF03DFB1E202D4B80
:104110009B6ADB010AD52D4B029300231846CDE99B
:104120000033274901221BF02EFB1F20254B9B6AE1
:104130001C030AD5264B029300231846CDE9003311
:104140001F4901221BF01FFB21201E4B9B6A5903B4
:104150000AD5204B029300231846CDE900331849B5
:1041600001221BF010FB2220164B9B6A9A030AD5F2
:10417000194B029300231846CDE900331049012260
:104180001BF001FB23200F4B9B6ADB030AD5134B6B
:10419000029300231846CDE90033094901221BF0A0
:1041A000F2FA2420074A936A6FEA03436FEA134343
:1041B000936204B010BD1D20A9E700BF1F46020096
:1041C0005026020000ED00E0374602004A46020099
:1041D0006446020082460200A7460200C146020071
:1041E0002DE9F04385B000244D4B0293CDE9004406
:1041F00023468046894616464A49012220461BF03E
:10420000C2FA494B9B6ADF0640D5484B0094CDE982
:10421000014320462346434901221BF0B4FA1124EE
:10422000414B9B6A1D070AD5414B02930023CDE900
:1042300000333C49012218461BF0A5FA12243A4DDE
:10424000AB6A980724D500243A4B36490293CDE94E
:1042500000442346012220461BF095FA6F6BAB6A9F
:10426000190659D5344B2F490397CDE901430094E2
:104270002346012220461BF086FAB9F1000F03D035
:10428000AB6A23F08003AB62132403E01024C7E77A
:104290006FF01507244B9B6ADA070AD5274B029368
:1042A0000023CDE900331F49012218461BF06BFAA9
:1042B00014241D4B9B6A9B060AD5214B02930023B5
:1042C000CDE900331749012218461BF05CFA15248A
:1042D000154B9A6AD50602D49A6A90070AD55B688C
:1042E000190507D54146384600F04AFA10B180F367
:1042F000098802240C4B9A6A920642BF5A6A22F439
:1043000000525A629A6A42F0FF029A6220460023E3
:10431000337005B0BDE8F0836FF01507B4E700BF58
:10432000EC4602005026020000ED00E002470200C9
:104330007C450200354702004D47020063470200FA
:10434000F04502002DE9F041754B5F6890B00446DE
:10435000C7F30806002383F31188BFF36F8F02F0C1
:104360007F40B0F17F4F0CD102F00C00082819D12A
:104370006C4A6D490093CDE90132184601221BF0C9
:1043800002FA00252C464FF00008F31E8DF81F801E
:10439000092B00F2AC80DFE803F00BA0A49CAAAAD2
:1043A000AAAAAAA8120746BF0C461D460125EAE79D
:1043B0005E4B5D495A4FCDF80080CDE90183002363
:1043C000012218461BF0DFF98DF81F80FE6A16F0F7
:1043D000020605D0564BCDF80080CDE9018306E0FA
:1043E000FB6A002B0BDA534B0096CDE901630023E7
:1043F0004D49012218461BF0C6F900223BE0FB6A3A
:104400005B00FAD54C4B48490096CDE90163012287
:10441000334630461BF0B7F97B69A26943F48073D9
:104420007B61BFF34F8FBFF36F8F7B6932F8022C34
:1044300023F480737B61BFF34F8FBFF36F8F4DF613
:1044400002739A420AD0BB6ADBB2002B33D00DF163
:104450001F0201212046FFF7C3FE3CE023680393BF
:10446000364B31490096CDE901630122334630468F
:104470001BF089F922689DF81F30CBB908AE04F112
:10448000200720686168334603C30834BC421E46D7
:10449000F7D10F9B002D3ED0C3F3080121B96FEA7D
:1044A00053236FEA43230F9308A91046FFF7E0FC5C
:1044B00010B0BDE8F081BB6A13F47F4F05D00DF159
:1044C0001F010120FFF76AFD05E0BB6AB3F5803FDD
:1044D00093D3FFF701FE0246CDE70DF11F02002145
:1044E000B8E70DF11F010020ECE7154B73E7154A03
:1044F000154B0D4917F4F87F18BF1346103ECDE950
:104500000336124B02930023CDE9003301221846F3
:104510001BF039F971E723F4FF7323F00103C2E7BD
:1045200000ED00E0B047020050260200DB47020029
:10453000F2470200134802002148020040480200EE
:104540005C48020097470200824702008048020050
:10455000044B5A6942F010025A615A6922F008026B
:104560005A61704700ED00E0EFF30880EFF3098136
:1045700001B57246FFF7E6FE01BD00BF0B4880F3B0
:10458000088817F09FFB202080F3118808484FF41B
:104590000461401880F30988EFF314800221084376
:1045A00080F31488BFF36F8F00F0B2F80042002050
:1045B00040340020084B9B6883420BD1EFF3058306
:1045C00043B1064B5A6842F080525A605A6A22F44C
:1045D00000425A6219F01ABFA826002000ED00E040
:1045E00014498A684FF030001044EFF3098C80E8DA
:1045F000F01F202080F31288BFF36F8F0E4F4FF013
:1046000000664A698A603E60506F0C4C2060906F73
:104610000023936780F3118804B5104600F014F965
:10462000BDE8044002F1300090E8F01F8CF30988E7
:1046300070470000A826002004ED00E0940E002042
:104640001EF0040F0CBFEFF30880EFF309808169BF
:1046500011F8021C0229FFD001B572461BF088F840
:1046600001BD00BF40B2002807DB044A4109012315
:1046700000F01F00834042F82130704700E100E065
:1046800040B200280CDB4309064900F01F0020332C
:104690000122824041F82320BFF34F8FBFF36F8F79
:1046A000704700BF00E100E0054B420900F01F0029
:1046B00053F82220012303FA00F01040704700BF96
:1046C00000E100E040B20028A8BF00F1604001F125
:1046D0000101B8BF064B4FEA4111ACBF00F5614084
:1046E00000F00F00C9B2B4BF195480F8001370472E
:1046F00014ED00E0044B054A23F07F039360BFF301
:104700004F8FBFF36F8F70470000000000ED00E097
:1047100008B5FFF7EFFF0B4AD2F8883023F4700397
:10472000C2F88830EFF3148323F0040383F3148872
:10473000BFF36F8F18F0A2FE19F09CFF00F05AF83B
:1047400018F0E0FE00ED00E042F8203C009B42F84B
:104750001C3C0A49019B42F8183C029B42F8143C5D
:1047600021F001014FF0807342F8043C42F8081C2C
:104770000023203A02658367704700BFD5350000EB
:10478000094A0346906870B113F1160F406E05D0C8
:10479000A0F140029A4205D8834203D2814228BF49
:1047A0000020704700207047A826002008B5154655
:1047B0000B4A0C4B9060426F1A600E4600F044F8B2
:1047C0002C4686F309880020034B98472046002199
:1047D00000220023014C2047AFF70100D53500002F
:1047E000A8260020940E0020014B10221A61704769
:1047F00000ED00E0044800232021C2180133272BDC
:1048000082F80013F9D1704700E100E008B5EFF33A
:104810000583064A103B02EBC30152F83300496896
:104820008847BDE80840FFF7A9BB00BF802302000E
:10483000024B034A0348012100F096B80000012012
:104840000000002008280200426E054B403A1A6022
:10485000044A4021C3E901121846012100F08EB834
:10486000980E002000000B151FB5144AD2F89030A6
:10487000C3F30723013B98420FD9114B0293002346
:104880000390CDE9003318460E4901221AF0C2FF09
:104890006FF0150005B05DF804FBC2F898000B68D6
:1048A00023F01F03034343F01003C2F89C308B68CE
:1048B00043F00103C2F8A030ECE700BF00ED00E0D8
:1048C0009748020038260200F0B50E4689B01F4610
:1048D00004460025B54212DA606838B3BFB1431E02
:1048E00018420FD0134B02930023CDE90033124935
:1048F0000395012218461AF08DFF6FF0150210463D
:1049000009B0F0BD1F28EDD921680B42EAD1236818
:1049100005931AF06FFFA36805A90343D0B207936C
:10492000FFF7A2FF10F1160FE7D0421C01350C343F
:10493000D0E700BFBD48020038260200044B052224
:10494000C3F89420BFF34F8FBFF36F8F704700BF42
:1049500000ED00E0BFF35F8F024B0022C3F894200C
:10496000704700BF00ED00E010B5034C0123227832
:10497000FFF7AAFF207010BD3027002008B50B4AB2
:1049800000231278FFF7A0FF10F1160F07D0084A96
:104990000021D2F89030C3F30723984200DB08BD12
:1049A000C2F89800C2F8A0100130F2E730270020CA
:1049B00000ED00E02DE9F04357485849D0F8903019
:1049C0000D68C3F307239D4285B000F2A180FFF775
:1049D000C1FF49680022954201F10C011AD1504CE7
:1049E000504F25706846FFF73DFADFF83C81DFF84D
:1049F0003C9106460025AE421FD12378464900204F
:104A0000D1F89020C2F3072293427BDBFFF796FF99
:104A100000204CE0C0F8982051F80C3C23F01F0314
:104A2000134343F01003C0F89C3051F8043C43F0AA
:104A30000103C0F8A0300132CDE7009800EB05116A
:104A40004FEA051CCB683B40B3F5000F44D00AD8B1
:104A5000B3F5001F2ED0B3F5800F34D0B3F5801F0F
:104A600010D00135C7E7B3F1807F3ED0B3F1007FAE
:104A7000F7D150F80C3088684A681AF0BBFE40F451
:104A8000802009E050F80C3088684A681AF0B2FEBD
:104A900040F0885040F43020039001A92078CDE9FF
:104AA0000123FFF7E1FE002828DA6FF0150005B0BA
:104AB000BDE8F08350F80C3088684A681AF09AFE16
:104AC00040EA0800E8E750F80C3088684A681AF0B5
:104AD00091FE40EA0900DFE750F80C3088684A6828
:104AE0001AF088FE40F08270D6E750F80C308868E3
:104AF0004A681AF07FFE40F08870CDE723780133D2
:104B00002370AEE7C1F89830C1F8A000013377E711
:104B10004FF0FF30CBE700BF00ED00E014280200AB
:104B2000302700200000F0FF0000081100000206FE
:104B3000F0B587B007460E4614460021102268469D
:104B40001D461DF0DFFA02238DF802302A46054B80
:104B5000019321466846CDE9047619F063FF07B05A
:104B6000F0BD00BF35F8010008B5024B1B6898473F
:104B7000002008BDA40E0020034B044A186093785F
:104B800043F0020393707047A40E0020A0010020A0
:104B900008B50649064821F00701C1F1005202F5A7
:104BA00080321AF01AFB002008BD00BFC750002059
:104BB000A80E002070B54169867A0B4D044659B1A4
:104BC000437ADB0706D42C2303FB06535B6A1B687E
:104BD0009B689847002363612C20214606FB005008
:104BE000BDE870401CF07BBF24060020024B2C2245
:104BF00002FB0030704700BF24060020827A064B7B
:104C00002C2101FB02339A6A1B7F1B33801A23F08D
:104C10000303B0FBF3F070472406002038B5074BC0
:104C2000827A2C2404FB02335B6AD3E901240C60F2
:104C30001568FFF7E3FF04FB005038BD2406002091
:104C40002DE9F04385B005466846039190461C4621
:104C50001DF081F9DDE90067EFF31189202383F36B
:104C60001288BFF36F8F6B8B002B41D02A8B9A4237
:104C700025D900220023284618F0C8FD0446F0B1CB
:104C800089F31188BFF36F8F039B002B41D032460D
:104C90003B4668461DF084F9A27A264B2C2101FB85
:104CA000023320465B6A1B6803A91D68DDE9002307
:104CB000A847606170BB2046FFF77CFF24E0698B4A
:104CC0004B1E6B8389F31188BFF36F8F2B7F2A8B69
:104CD000AC6A1B3323F00303521A02FB0344154B47
:104CE000154AEB1A9B105343A3722B7FE372CBE759
:104CF00089F31188BFF36F8F23464246284618F088
:104D000085FD04460028BFD10024204605B0BDE83B
:104D1000F0836361012300252381039B6382E27A90
:104D20006560294604F118001DF0ECF963692582DD
:104D3000E360EAE724060020A38B2EBA70B50C4C82
:104D40002C2500B970BD037A4668013BDBB20372C3
:104D5000002BF7D1C3604360837A05FB03431B6AD2
:104D600013B198473046ECE7FFF724FFFAE700BF9E
:104D700024060020044A0123C2F840354FF0804247
:104D80000020C2F87835704700E0014020B1034BA5
:104D9000800143F001031847704700BF202702003D
:104DA0000E4B402970B528BF40210D4C46181D46BA
:104DB000B04203F1020304D1002305F81130074883
:104DC00070BD02781209A25C03F8022C10F8012BC6
:104DD00002F00F02A25C03F8012CE9E74F27002044
:104DE0006949020030B503788BB0044607AD032B48
:104DF00021D8DFE803F0021A1C1E12492846FBF7EF
:104E000089F9059563780493A3780393E378029373
:104E10002379019363790093A3790B4A0B481E21F0
:104E200019F0D6FD09480BB030BD0949E6E709493C
:104E3000E4E70949E2E7094A0A21284619F0C8FDD2
:104E4000DFE700BF24490200464902003127002065
:104E50002B490200324902003C490200A05B0200DB
:104E60000378012B30B513D0022B27D07BB9194B17
:104E70000A4603F1100453F8045B42F8045BA342B2
:104E8000F9D11B78137043884B731B0A8B7330BDA9
:104E9000104B0A4603F1100453F8045B42F8045B1C
:104EA000A342F9D11B78137043684B73C3F30722F5
:104EB0001B0CCB731B0A8A730B74E8E700F1100319
:104EC00050F8042B41F8042B9842F9D103780B7069
:104ED000DDE700BF7A49020008B51AF0E7FD19F0D6
:104EE0007DF9044B1B680BB10A209847BDE80840C8
:104EF00019F088B9B40E002038B5044608481AF0F5
:104F0000AAFC054648B1631EDBB21F2B96BF054ABB
:104F10000021D15C0C301AF019FD284638BD00BFC5
:104F2000000700208B4902000F2810B50CD80D286F
:104F30000CD90A481AF08FFC044618B104210C3031
:104F40001AF004FD204610BD1328F2D009B1044820
:104F5000F0E7BDE810400220FFF7CEBF2C0700208D
:104F60007C06002070B5C6683378B6F8014083B976
:104F70000F21204603F036FAF378054650B90A4A65
:104F8000118831B96FEA04506FEA10501080074A57
:104F9000137070BD4372012103F01CF92846BDE86F
:104FA000704003F0EDB800BFDC260020D0270020C1
:104FB00010B5084C0146062294F86F0003F0E0FC9F
:104FC00038B994F86F000449BDE81040052203F099
:104FD000D7BC10BD000000200A49020030B502EB2A
:104FE000C303044687B008469A4202D16FF05E00C0
:104FF00016E0114611F8085BA54217D1038A5178D3
:1050000099420FD9CDE90334094B02930023184686
:10501000CDE90033074901221AF0CCFD6FF01500ED
:1050200007B030BD536898470020F9E70A46DBE730
:10503000BA490200E025020070B5012186B004469D
:105040000C301AF0A4FC05780D4A002321462846AE
:10505000FFF7C4FF5F3011D1268AE0683146FFF7C1
:105060009FFE084B02930023CDE90460CDE9003395
:1050700005490395022218461AF09CFD06B070BD42
:1050800028290200DC490200E02502001FB5C368A0
:1050900007491B780393074B02930023CDE90033A4
:1050A000022218461AF086FD05B05DF804FB00BF29
:1050B000E02502000E4A02001FB501460B481AF017
:1050C000CEFB0B490B481CF0C6FD00280ADA0A4B40
:1050D000029300230390CDE90033084901221846CA
:1050E0001AF068FD05B05DF804FB00BF4C0100201C
:1050F000C001002058070020364A0200E0250200C7
:1051000070B586B005460C46FFF768FF5F3011D1D9
:10511000268AE0683146FFF743FE074B02930023DF
:10512000CDE90460CDE90033044903950222184615
:105130001AF040FD06B070BD534A0200E02502009F
:1051400070B54B4886B01AF09FFB0446002867D024
:1051500000F10C0528461AF022FC022804D004288D
:1051600060D0444B039004E0238A032B09D80393B7
:10517000414B02930023CDE90033404901221846F8
:105180002BE0042128461AF002FCFF2342880688FF
:105190002376238AC6F30B009A4260830FD0CDE9B1
:1051A0000332374B02930023CDE900333349012208
:1051B00018461AF0FFFC2046FFF7C0FD1BE00F2148
:1051C00003F010F9054658B9638B03932D4B2B4917
:1051D0000090CDE90103012203461AF0EBFCEAE757
:1051E00003F04EF9320B20762146284602F082FE6B
:1051F000284602F0C5FF244BD3F84C3183B1234934
:1052000023481CF028FD00280ADA224B02930023D1
:105210000390CDE900331949012218461AF0CAFC5F
:1052200006B070BD238A012B02D803931A4BA0E766
:10523000284602211AF0ABFB054600781AF092FCD2
:1052400010F002060DD1154A1549164840F60C43D8
:105250001AF042F886F31188BFF36F8F03231846C4
:1052600002DF114A287804232146FFF749FFA2E70D
:105270004C010020774B0200754A0200E025020035
:10528000964A0200BA4A020000000020C001002035
:1052900058070020364A0200DC4A0200F84A0200A1
:1052A0002C4B02005A4B0200D028020010B50121FD
:1052B00004460C301AF06BFB2146034A0078BDE827
:1052C00010400723FFF71CBFF02802001FB5012183
:1052D0000C301AF05CFB03780393064B0293002317
:1052E000CDE900330449012218461AF063FC05B0E9
:1052F0005DF804FB8B4B0200E02502001FB5C3687C
:10530000B3F801400121204603F06CF8034650B980
:10531000074A08490394CDE90102009001221AF0DE
:1053200049FC04B010BD04B0BDE8104002F028BF35
:10533000AD4B0200E02502007FB5C3681D788DB932
:10534000B3F801600F21304603F04CF8044658B919
:10535000194B1A490396CDE9010300900346012237
:105360001AF028FC04B070BD294602F033FFA37880
:10537000012B05D0204604B0BDE8704002F000BF0C
:10538000BFF35B8F6368BFF35B8FDB07F2D520460B
:10539000032102F01FFF03201AF04EFE0028E9D07F
:1053A000074B0390CDE90153044900952B46022297
:1053B00028461AF0FFFBDDE7D14B0200E025020092
:1053C000F74B02007FB5C568B5F801600121304692
:1053D00003F008F8044658B9104B11490396CDE97B
:1053E00001030090034601221AF0E4FB04B070BDF3
:1053F0002B783BB9D5F80330C0F89530D5F8073095
:10540000C0F899304FF48031201D1AF0BDFB2046C2
:1054100004B0BDE8704002F0B3BE00BFAD4B020067
:10542000E02502002DE9F04F894687B090460646F8
:10543000D0B1BFF35B8FDFF82CA14FF0000B5AE81F
:10544000004F4AE800B3002BF9D1BFF35B8F27462A
:105450006CB9454B45490396CDE901430094234679
:10546000012220461AF0A6FB07B0BDE8F08F2046C7
:10547000FFF7C4FB3E4D0C2303FB00504288B242B1
:1054800026D02046FFF7BAFB0C2303FB0050374918
:105490004388CDF800B0CDE90363364B0122CDE956
:1054A00001B358465B461AF085FBBFF35B8F5AE8A1
:1054B000003F4AE80072002AF9D1BFF35B8F002B4E
:1054C000D2D01F46384607B0BDE8F04FFFF736BCD4
:1054D000A0450AD020461AF0B9F9B8F81020D8F83B
:1054E0000C1004F10C001AF028FA2046FFF786FB96
:1054F0000C2606FB00504368ABB1B9F1000F12D186
:105500002046FFF77BFB06FB005001214268D2E9F1
:105510000003127A03F01F06B1405B09DAB100EB19
:1055200083001AF031FB2046FFF768FB0C2606FBD0
:1055300000508368002BC5D02046FFF75FFB704307
:1055400005F800902046FFF759FB06FB0055A868B8
:1055500018F08EF9B6E7C94300EB83001AF039FB67
:10556000E1E700BF480100201D4C0200E0250200D9
:10557000B80E0020454C02002DE9F04FD0F80C8009
:10558000008A98F80030012202EB8301814287B043
:1055900062D90393334B02930023CDE90410CDE984
:1055A0000033314918461AF005FB07B0BDE8F08F0B
:1055B0002E4B2D490395CDE90103009003460122AE
:1055C0001AF0F8FA013698F800309E42EDDA08EB4E
:1055D00086030F21B3F80150B3F80370284602F098
:1055E00001FF04460028E3D000F1C00957B1656906
:1055F00065B9CDE9015B1C4900952B46012228467F
:105600001AF0D8FA204602F0BBFDDBE7A2692B684E
:105610006361954208BFA361204602F009FC18F0BF
:1056200027F9C5F800A0236A9BB9C4E90755BFF361
:105630005B8F59E8003F013B49E80032002AF8D16E
:10564000BFF35B8F00212046013F02F0FDFBBFB29C
:10565000CCE71D602562EAE70026DFF814B0B24609
:10566000B1E700BF784C0200E0250200A34C020025
:10567000BF4C020070B5C568B5F8016086B0012165
:10568000304602F0AFFE044658B9484B48490396ED
:10569000CDE901030090034601221AF08BFA06B00F
:1056A00070BD2B781A2B00F1040619D1C378012B99
:1056B00060D14FF4804130461AF066FA42040FD4AC
:1056C000D4F88830049304A9D4F890300593204688
:1056D00003F0E2FC204606B0BDE8704002F050BD89
:1056E0002B78002B46D1B5F80320A4F8862091B280
:1056F000B5F80520A4F88C20B5F80720A4F88E2072
:105700008A1F92B240F67A40824209D9294A03910F
:10571000CDE9013226490093022218461AF04AFACE
:10572000B4F88C30B3F5FA7F0AD30393224B02937B
:105730000023CDE900331E49022218461AF03AFA36
:10574000B4F88E20A2F10A039BB240F676418B4258
:105750000AD91A4B029300230392CDE9003314496E
:10576000022218461AF026FA6FF4805130461AF0D9
:1057700030FA17E0BFF35B8F6368BFF35B8FDB0426
:10578000F2D52B78202BEFD194F89430002BEBD06E
:10579000013B84F894304FF42032002304F14000A0
:1057A00018F0CAFA204602F0F5FF93E7AD4B02006D
:1057B000E0250200D64C0200FE4C0200254D0200FE
:1057C00008B502F0DDF8BFF35B8F084B1A68BFF332
:1057D0005B8F02F00B02BFF35B8F53E8001F43E8BF
:1057E00000200028F9D1BFF35B8F08BDD400002052
:1057F00010B5C1E900239DF808300B720C46FFF785
:10580000FDF9034B0C2202FB00335C6010BD00BFAE
:10581000B80E0020F8B502460B4610481AF01BF8E7
:105820000446C0B104210C301AF076F82046FFF788
:10583000E5F90B4D0C2707FB00500026468020465B
:10584000FFF7DCF907FB005086602046FFF7D6F92A
:1058500007FB00556E602046F8BD00BFD40600204F
:10586000B80E002070B50C4D06460FCD90B06C46BA
:105870000FC40FCD0FC40FCD0FC495E80F000F2E2E
:1058800084E80F009BBF10AB03EB8606034856F875
:10589000400C10B070BD00BFB0260200514D020098
:1058A000034B0146D3F86C0182689268104700BF31
:1058B000000000202DE9F04300F10C06044685B0FD
:1058C00030461AF07CF8012105463046B4F81080C5
:1058D0001AF055F8238A012B10D803931D4B02931D
:1058E0000023CDE900331C49012218461AF062F961
:1058F000204605B0BDE8F043FFF720BA304602214C
:105900001AF045F8074600781AF02CF910F0010952
:1059100006460DD1114A1249124841F2360319F0D8
:10592000DBFC89F31188BFF36F8F0323184602DF76
:1059300005230D4A38782146FFF7E2FBB307D7D598
:105940006369A4F8108013FA85F5E56005B0BDE839
:10595000F08300BFDC4A0200E0250200F84A0200A2
:10596000594D02005A4B0200A828020030B50C46DF
:1059700085B018F033FCE2681378022B23D0042B97
:1059800010D00393124B029300231846CDE9003345
:10599000104901221AF00EF92046FFF7CFF96FF0F7
:1059A00015040BE050781AF0DDF8C207054602D561
:1059B0002046FFF77FFFAB0705D4002418F022FC38
:1059C000204605B030BD2046FFF776FBF5E700BF67
:1059D000724D0200E02502002DE9F043042189B058
:1059E0003848394D394EDFF8E880DFF8E8901AF092
:1059F000CBF801F0C5FF384B03930024374B3549F2
:105A00000293032223462046CDE900441AF0D2F83F
:105A1000EA79334B2846012A88BF1E46FFF7E2F990
:105A2000304B2C490094CDE90360CDE901430322BA
:105A3000234620461AF0BEF82F460126EB799E42F7
:105A400007F107072EDB95F870402046FFF70AFFA5
:105A5000B5F876300693B5F872301E490390CDE95B
:105A600004430024204B0293032223462046CDE921
:105A700000441AF09FF895F871603046FFF7F2FE87
:105A8000B5F8743013490390CDE90463174B0094C3
:105A9000CDE901430322234620461AF08BF809B0D2
:105AA000BDE8F0833846FFF79DF90023CDE9036098
:105AB000CDE9014800940322494618461AF07AF8C5
:105AC0000136BBE7D4000020000000202044020083
:105AD000B64D0200E02502008A4D0200954D0200FD
